:100000000C9450060C9478060C9478060C947806A0
:100010000C9478060C9478060C9478060C94780668
:100020000C9478060C9478060C94310F0C94A00F65
:100030000C9478060C9478060C9478060C94780648
:100040000C9478060C9405130C9478060C9478069E
:100050000C9478060C9478060C9478060C94D211C3
:100060000C9478060C9478060C9478060C94780618
:100070000C9478060C9478060C9478060C94780608
:100080000C941C120C9478060C9478060C94780648
:100090000C9478060C9478060C9478060C947806E8
:1000A0000C9478060C9478060C94780600000000F6
:1000B0000080C0C0E0F0F0F0F0E0E0C0C080800060
:1000C0000000000000000080C0F0F8FCFCFCFEFE18
:1000D000FEFEFE3C000000000000000000000000EA
:1000E0000000000000071F1F7FFFFFFEFCF9FBF769
:1000F000E7CFDF1F1F9EC8E0F838C4CFEFFFFFFF38
:10010000FFFFFFFFFFFFFFF8F0C00000000000004E
:100110000000000000000000000000000F1FFFDFD3
:100120009F3FDFDFDFFFE0EEEEFFFFFFFC630FDF4F
:10013000EFE7F7F7F7F7E7EFEFFFDFBF7FFFCF005E
:10014000800000000000000000004040800000002F
:100150005FBFFFDFDF3EF0FFFFFFFFFFFFFFFFFF9F
:10016000FFFCFF1FC7FB7D3FBFBFFEDEDFCDE3E926
:10017000CC07E9E7E58686000000000000000000EB
:1001800000017E7EFCFDFF3B1337610FFFFFFFFF89
:10019000FF7F7F7FFFFFFFF003FDFEFF87870301E7
:1001A00001010383CF506FEFEFDFDFE0C0000000FD
:1001B00000000000183CFCFCDFCBE7E8E8F0F8E8C2
:1001C000EFEDECEEEECE9F3E7EFEFCFDFFF8FF7FF6
:1001D000373797CCE0341B090D07060607030301E8
:1001E00000000000000000007FFFFFFF7F7C3C9FBD
:1001F000DFDFDF9F3F7F7CFCFCFFFFFF60673F9FEF
:10020000472198E6F1F1FD01000000000000000028
:1002100000000000000000000000000000000000DE
:1002200000384E3F010000060C08C80909E9E5F452
:10023000F6FAF9FDFEFF01FFFFFFFF0000000000DE
:1002400000000000000000000000000000000000AE
:100250000080C0C0E0F0F0F0F0E0E0C0C0808000BE
:100260000000000000000080C0F0F8FCFCFCFEFE76
:10027000FEFEFE3C00000000000000000000000048
:100280000000000000071F1F7FFFFFFEFCF9FBF7C7
:10029000E7CFDF1F1F9EC8E0F838C4CFEFFFFFFF96
:1002A000FFFFFFFFFFFFFFF8F0C0000000000000AD
:1002B0000000000000000000000000000F1FFFDF32
:1002C0009F3FDFDFDFFFE0EEEEFFFFFFFC630FDFAE
:1002D000EFE7F7F7F7F7E7EFEFFFDFBF7FFF0F007D
:1002E000000000000000000000000000000000000E
:1002F0001FBFFFDFDF3EF0FFFFFFFFFFFFFFFFFF3E
:10030000FFFCFF1FC7FBFDFFFFFFFEFEFFFDFBEF36
:10031000DC3F78A0208080200000000000202040EA
:1003200010205C5C3E7FFFFF7FFF610FFFFFFFFF40
:10033000FF7F7F7FFFFFFFF00FDFDFDFBFBF3F1FCC
:100340001F2F2FA7D75169E2E8DFDFE0C0000000D0
:1003500000000000183CFCFCDFCBE6E8E8F0F8E821
:10036000EFEDECEEEECE9F3E7EFEFCFDFFF8FF7F54
:10037000373797CC60341B090D07060607030301C6
:1003800000000000000000007FFFFFFF7F7C3C9F1B
:10039000DFDFDF9F3F7F7CFCFCFFFFFF6067BFDF8D
:1003A000E7E104F2F9F9FC000000000000000000A1
:1003B000000000000000000000000000000000003D
:1003C00000000101010101010101FE0000FFFFFE2B
:1003D000FFFFFFFFFFFF00FFFFFFFF000000000027
:1003E000000000000000000000000000000000000D
:1003F000FCFCF000000000F0FC1E0000F0F000002B
:10040000C0C0E07030000000C0C0E060000000002C
:1004100000000000000000000000000000000000DC
:1004200000000000000000FFFF070E1C9C8EBFFFB5
:10043000FE003FFFE0000387CDF870183E6EC7C393
:1004400001000000000000000000000000000000AB
:10045000000000000000000000000000001E0F036C
:10046000F8FEFFE7C181030300000F07000303014B
:100470000000189C8E070380800000000000000030
:10048000000000F0F0000080C0400000000000000C
:1004900000000000000000808181C3E3FF7F3E1860
:1004A0000080F03FCFFC0080FC7F070380FCFFC191
:1004B000E76E7CF0C0000000F8FF1FF8EC86030137
:1004C000F0F83C3C1C0C040000C060703E1F0707A5
:1004D0000703010000003C3E1F0F000F1F1E070115
:1004E00000003C3F1F0101000000070700381F0704
:1004F000000000031F3E70077F7F737130200000F3
:1005000000000000000000000000000000000000EB
:1005100000000000000000000000000000000000DB
:1005200000000000000000000000000000000000CB
:10053000000000000000060F0F060F0F0F0F000055
:100540000000003E5B4F5B3E3E6B4F6B3E1C3E7CB3
:100550003E1C183C7E3C181C577D571C1C5E7F5E61
:100560001C00183C1800FFE7C3E7FF001824180020
:10057000FFE7DBE7FF30483A060E262979292640B7
:100580007F050507407F05253F5A3CE73C5A7F3EE3
:100590001C1C08081C1C3E7F14227F22145F5F0075
:1005A0005F5F06097F017F006689956A6060606011
:1005B0006094A2FFA29408047E040810207E2010FC
:1005C00008082A1C08081C2A08081E101010100C05
:1005D0001E0C1E0C30383E3830060E3E0E06000053
:1005E00000000000005F00000007000700147F14F7
:1005F0007F14242A7F2A1223130864623649562066
:10060000500008070300001C2241000041221C008A
:100610002A1C7F1C2A08083E080800807030000849
:1006200008080808000060600020100804023E511D
:1006300049453E00427F40007249494946214149AF
:100640004D331814127F1027454545393C4A494916
:100650003141211109073649494936464949291E80
:10066000000014000000403400000008142241146F
:1006700014141414004122140802015909063E41C1
:100680005D594E7C1211127C7F494949363E4141E9
:1006900041227F4141413E7F494949417F09090942
:1006A000013E414151737F0808087F00417F4100AE
:1006B0002040413F017F081422417F404040407F5D
:1006C000021C027F7F0408107F3E4141413E7F09AA
:1006D0000909063E4151215E7F09192946264949EB
:1006E000493203017F01033F4040403F1F2040202B
:1006F0001F3F4038403F6314081463030478040329
:100700006159494D43007F414141020408102000D6
:100710004141417F04020102044040404040000347
:1007200007080020545478407F2844443838444413
:100730004428384444287F385454541800087E090B
:100740000218A4A49C787F0804047800447D40002B
:100750002040403D007F1028440000417F40007C45
:10076000047804787C080404783844444438FC183D
:1007700024241818242418FC7C0804040848545421
:10078000542404043F44243C4040207C1C2040204E
:100790001C3C4030403C44281028444C9090907CB5
:1007A0004464544C440008364100000077000000C7
:1007B0004136080002010204023C2623263C1EA109
:1007C000A161123A4040207A385454555921555568
:1007D0007941215454784121555478402054557919
:1007E000400C1E52721239555555593954545459AA
:1007F00039555454580000457C410002457D420063
:1008000001457C40F0292429F0F0282528F07C546B
:100810005545002054547C547C0A097F493249498B
:1008200049323248484832324A4848303A414121F8
:100830007A3A42402078009DA0A07D394444443952
:100840003D4040403D3C24FF2424487E4943662BE4
:100850002FFC2F2BFF0929F620C0887E0903205486
:100860005479410000447D413048484A3238404084
:10087000227A007A0A0A727D0D19317D2629292FE4
:1008800028262929292630484D40203808080808FC
:1008900008080808382F10C8ACBA2F102834FA00FE
:1008A000007B000008142A142222142A1408950040
:1008B000220095AA005500AAAA55AA55AA00000030
:1008C000FF00101010FF00141414FF001010FF00A0
:1008D000FF1010F010F0141414FC001414F700FFB3
:1008E0000000FF00FF1414F404FC141417101F1070
:1008F000101F101F1414141F00101010F00000001F
:10090000001F101010101F10101010F01000000029
:10091000FF101010101010101010FF10000000FF3A
:10092000140000FF00FF00001F10170000FC04F47B
:1009300014141710171414F404F40000FF00F71433
:10094000141414141414F700F714141417141010BA
:100950001F101F141414F4141010F010F000001FD6
:10096000101F0000001F14000000FC140000F01015
:10097000F01010FF10FF141414FF141010101F00BB
:10098000000000F010FFFFFFFFFFF0F0F0F0F0FFBD
:10099000FFFF0000000000FFFF0F0F0F0F0F384494
:1009A0004438447C2A2A3E147E02020606027E0255
:1009B0007E0263554941633844443C04407E201E16
:1009C0002006027E020299A5E7A5991C2A492A1C45
:1009D0004C7201724C304A4D4D303048784830BC32
:1009E000625A463D3E494949007E0101017E2A2A5C
:1009F0002A2A2A44445F444440514A444040444ADD
:100A000051400000FF0103E080FF000008086B6B0D
:100A1000083612362436060F090F06000018180093
:100A200000001010003040FF0101001F01011E00F6
:100A3000191D1712003C3C3C3C0000000000000067
:100A40000000240027002A002D00300000000000D4
:100A5000250028002B002E00310004080201104060
:100A60008040102040804080080204018040201017
:100A700002011080102040402004040404040304F8
:100A8000050202020204030202020206060606062C
:100A900006040402020204040601150126013701BE
:100AA0004A015D01720188019F01B801D201EE0186
:100AB0000B022A024B026E029302BA02E4021003F6
:100AC0003F037003A403DC03170455049704DD04FB
:100AD00027057505C80520067D06E0064907B80705
:100AE0002D08A9082D09B9094D0AEA0A900B400CF6
:100AF000FA0CC00D910E6F0F5A1053115B12721346
:100B00009A14D41520178018F519801B231DDE1E9A
:100B1000B420A622B524E4263429A72B402E003188
:100B2000EA330037453ABC3D68414C456B49C84DF6
:100B300068524F57805C0062101112131516171877
:100B40001A1C1D1F21232527292C2E3134373A3E0C
:100B50004145494E52575C62686E757B838B939C0E
:100B6000A5AFB9C4D0DCE9F7F0F89C8E8783878EF7
:100B70009CF8F00000FEFF0303030303070EFCF8DC
:100B80000000FEFF0303030303070EFCF80000FF51
:100B9000FF00000000000000FFFF0000FEFF838355
:100BA000838383C7EE7C380000F8FC0E0703030341
:100BB000070EFCF800003F7FE0C08080C0E07F3F70
:100BC000FFFF01010101010101FFFF0000FFFF0C18
:100BD0000C0C0C1C3E77E3C100007FFFC0C0C0C0FE
:100BE000C0E0703F1F00001F3F70E0C0C0C0E07059
:100BF0003F1F00007FFFC1C1C1C1C1E3773E1C00A0
:100C0000001F3F70E0C0C0C0E0703F1F0000000048
:100C10000001FFFF01000000D5F08D14A1C881CFB5
:100C2000D9F1AF20005D0CFC0C080B0002020200A1
:100C30000009040000010202000005240010010563
:100C40002401010104240206052406000107058190
:100C50000310004009040100020A00000007050219
:100C6000024000000705830240000004030904124B
:100C7000010002EF0201404123368000010102031E
:100C80000141726475696E6F204C4C43004172647F
:100C900075696E6F204C656F6E6172646F00EE1344
:100CA00011241FBECFEFDAE0DEBFCDBF11E0A0E020
:100CB000B1E0E4E9F5E302C005900D92AE34B1076E
:100CC000D9F728E0AEE4B1E001C01D92A131B2072E
:100CD000E1F716E0C0E5D6E004C02197FE010E94CE
:100CE000E517CF34D107C9F70E947A140C94C81ABB
:100CF0000C94000080916D010895E1E9F1E0A0E01D
:100D0000B8E000800EBC8111012C1197A0FDFDCF31
:100D10000192B9F70DB40895CF92DF92EF92FF924E
:100D2000CF93DF93EC016A017B01E091E105F09143
:100D3000E20509958823F1F1809190018230D0F18C
:100D400081E080938F0180918E0180938D0180914D
:100D50008100887F816080938100DE01AA0FBB1F24
:100D6000A70196010E948D1728EE33E040E050E085
:100D70000E94A01769017A019E0150E040E060E006
:100D800072E18AE790E00E946E1721503109410913
:100D900051093093890020938800C0928901D09234
:100DA0008A01E0928B01F0928C0180916F00826049
:100DB00080936F00DF91CF91FF90EF90DF90CF9005
:100DC00008959091F607982329F49091F5079823B8
:100DD00081E009F480E008956F927F928F929F9254
:100DE000AF92BF92CF92DF92EF92FF920F931F9339
:100DF000CF93DF93803891050CF096C0FB01E00F94
:100E0000F11DF7FD91C0603471050CF08DC0DB0160
:100E100077FF04C0AA27BB27A61BB70BA770BB2769
:100E2000FB0177FD3796C3E0F595E795CA95E1F7A5
:100E300077FF07C0319768E070E0EB01CA1BDB0B5E
:100E4000DE01A02EA694A694A694B12C077019F0EA
:100E5000DFEFAD1ABD0A30E0BF01EA01AF015695E0
:100E6000542F442757954795480F591F4F565E4FAB
:100E7000A60EB71E00E810E0081B190B88E090E0F2
:100E80004C018A1A9B0AA616B70609F44DC06830B1
:100E9000710509F449C06F3FEFEF7E070CF43AC0CB
:100EA00090E080E07A01F0E8EF0EF11C6F3F7607EA
:100EB000C1F1FC01EC0FFD1FE4916A01C80ED91EBF
:100EC000F0E03F010A2E01C0660C0A94EAF7F60131
:100ED0007080672860821097B1F06730710599F0D3
:100EE000FE01E80FF91FE4916701C80ED91EF0E07A
:100EF0003F01082C02C0759467940A94E2F7F6014A
:100F00007080672860820196821793071CF4081787
:100F1000190761F66F5F7F4FC20FD31F40585F4FB5
:100F2000B2CF1097E9F6EFCFDF91CF911F910F91DC
:100F3000FF90EF90DF90CF90BF90AF909F908F90F9
:100F40007F906F900895FC0180918801882311F1B2
:100F50003FB7F89482E08093E9002091F200822F5D
:100F600090E01816190614F481E090E0882339F017
:100F7000289844E6409387014091F1004083222362
:100F800039F02091F200211103C02BE62093E800F4
:100F90003FBF08958FEF9FEF08952FB7F89483E038
:100FA0008093E9009091E800892F807295FF04C03A
:100FB0009091F20080E4891B2FBF089580917F01FA
:100FC00081110DC082E080937B0184E080937C01DD
:100FD00010927E0110927D0181E080937F018BE76A
:100FE00091E00895CF93DF931F92CDB7DEB7698369
:100FF000DC01ED91FC910280F381E02D41E050E0B5
:10100000BE016F5F7F4F09950F90DF91CF910895DB
:1010100083E08093E9008091F200882319F08AE34D
:101020008093E80008950E94CD0790E00895CF9343
:10103000DF931F92CDB7DEB7FC018485958597FDC0
:1010400008C02FEF3FEF358724870F90DF91CF91B6
:101050000895CE0101960E94A307019719F4898192
:1010600090E0F3CF8FEF9FEFF0CF0F931F93CF93CD
:10107000DF931F92CDB7DEB78C01FC018485958587
:1010800097FF0BC0CE0101960E94A307019771F450
:10109000898190E0F80195878487F801848595859A
:1010A0000F90DF91CF911F910F9108958FEF9FEFD8
:1010B000F1CFFC018485958597FD0BC09FB7F8940F
:1010C00082E08093E9008091F2009FBF90E001965A
:1010D00008959FB7F89482E08093E9008091F20030
:1010E0009FBF90E008954091750150917601209145
:1010F00073013091740142175307B4F49091E800E2
:101100009570E1F39091E80092FD19C08093F10091
:10111000809175019091760101968F739927892BA3
:1011200019F48EEF8093E80080917501909176011B
:101130000196909376018093750181E0089580E097
:101140000895DF92EF92FF920F931F93CF93DF9357
:10115000D82E8A01EB017B01E40EF51ECE15DF05CA
:1011600059F0D7FE12C0FE0184910E9473082196A7
:101170008111F4CF0FEF1FEFC801DF91CF911F91C5
:101180000F91FF90EF90DF9008958881EECF0F933D
:101190001F93CF93DF931F92CDB7DEB782E0898391
:1011A00042E450E069E27CE080E80E94A1080E94ED
:1011B000DE07DC0112960D911C910115110589F0D5
:1011C000D801ED91FC910280F381E02DBE016F5FAB
:1011D0007F4FC801099597FD04C0F801008511856E
:1011E000ECCF89810F90DF91CF911F910F910895DE
:1011F000615030F02091F100FC0120830196F8CF7E
:10120000289884E6809387010895AF92BF92CF9289
:10121000DF92EF92FF920F931F93CF93DF936C01B6
:101220007B018B01040F151FEB015E01AE18BF0897
:10123000C017D10759F06991D601ED91FC91019049
:10124000F081E02DC6010995892B79F7C501DF9161
:10125000CF911F910F91FF90EF90DF90CF90BF90B3
:10126000AF9008953FB7F8948091690190916A0119
:10127000A0916B01B0916C0126B5A89B05C02F3FD2
:1012800019F00196A11DB11D3FBFBA2FA92F982FAC
:101290008827BC01CD01620F711D811D911D42E0A7
:1012A000660F771F881F991F4A95D1F708958F926F
:1012B0009F92AF92BF92CF92DF92EF92FF926B011B
:1012C0007C010E9432094B015C01C114D104E1048C
:1012D000F104B9F00E943209681979098A099B0959
:1012E000683E73408105910580F321E0C21AD10860
:1012F000E108F10888EE880E83E0981EA11CB11C5D
:10130000E4CFFF90EF90DF90CF90BF90AF909F9091
:101310008F9008958F929F92AF92BF92CF92DF925B
:10132000EF92FF920F931F93CF93DF936C017B019A
:101330008A0180910F01882309F45CC080918801A3
:10134000882309F457C080917A0180FF05C08091FD
:10135000E00082608093E000E801B12C8AEFA82EC3
:1013600093E0892E2AE3922E209711F4BB20D9F125
:101370000E94CD0781110AC0AA94AA20D9F161E088
:1013800070E080E090E00E945709EECF8C171D06B8
:1013900011F00CF08C2F9FB7F8948092E900209107
:1013A000E80025FD02C09FBFDFCF282F30E0C21B21
:1013B000D30BF701815020F041914093F100FACF17
:1013C000E20EF31EBB2021F09092E800B12CEBCF8F
:1013D0008091E80085FDE7CF9092E800BB24B394AC
:1013E000209709F3F3CF5D9884E680937901101676
:1013F00011063CF081E090E0F6019383828310E0D7
:1014000000E0C801DF91CF911F910F91FF90EF9005
:10141000DF90CF90BF90AF909F908F900895CF9224
:10142000DF92EF92FF921F93CF93DF93E82FF0E0CC
:10143000EC5EFE4F1081E62FF0E0603398F5E85C3B
:10144000F44FE491CE2FD0E0F12CE12C60E074E277
:1014500084EF90E0A7019E010E946E172150310990
:101460004109510991E02115310581E048075105F5
:101470006CF060E970ED83E090E0A7019E010E94AE
:101480006E17215031094109510993E0113089F05B
:10149000133039F1DF91CF911F91FF90EF90DF90E2
:1014A000CF900895EE0FFF1FE85CF54FC591D491E2
:1014B000CBCF80918F018111EDCF80918100887F0A
:1014C000892B8093810030938900209388001092AB
:1014D00085001092840080916F00826080936F007D
:1014E000D9CF80919100887F892B80939100309390
:1014F0009900209398001092950010929400D09338
:101500006701C093660181E080936501809171005D
:10151000826080937100BECFE82FF0E0EC5EFE4F5A
:101520008081813019F08330A9F0089580918F0176
:1015300081110FC080916F008D7F80936F0080912B
:101540005801E0915601F0915701908180958923CF
:10155000808308951092650180918D018111F9CFEA
:1015600080916301E0916101F0916201EECF909171
:101570009001923009F471C0292F30E0F901EC5E3E
:10158000FE4F40812C5A3E4FF9018083913031F457
:1015900020915401281302C0909359019F5F9093AA
:1015A000900190E0FC01E758F54F2491865A954F41
:1015B000FC01849130E0220F331FF901E45BF54F09
:1015C00065917491F901E25CF54FA591B4919C91FC
:1015D000982B9C93413019F04330D9F008959091A5
:1015E0006400977F909364001092800010928100B5
:1015F000909181009860909381009091810091601A
:101600009093810070935701609356018093580125
:10161000089590916500977F9093650010929000D7
:101620001092910090919100986090939100909108
:1016300091009160909391007093620160936101B9
:101640008093630180919001882321F06CE380E016
:101650000E940F0A80E00C948C0A08952D9A089538
:10166000BC0190E080E00C9457098FB18095807F99
:10167000669B88601C9B8460089520E191E061FD79
:1016800094E060FD990F62FD9295687F269FD001DE
:101690001124A80FAF56BE4F8C9140FF03C0892B79
:1016A0008C93089590958923FBCF2F923F924F9270
:1016B0005F926F927F928F929F92AF92BF92CF92E2
:1016C000DF92EF92FF920F931F93CF93DF93CDB7EB
:1016D000DEB728970FB6F894DEBF0FBECDBF9E834E
:1016E0008D836A3061F5DC0155968C91B8E08B9F53
:1016F00090011124ED81FE8181899289820F931FCF
:10170000928B818B108A178681E090E028960FB625
:10171000F894DEBF0FBECDBFDF91CF911F910F9127
:10172000FF90EF90DF90CF90BF90AF909F908F9001
:101730007F906F905F904F903F902F9008956D3005
:1017400019F32D813E8138872F83D9011F960D9182
:101750001C915097003811050CF07CC05196AD904B
:10176000BC90B0E4AB16B1040CF074C0F90125884C
:1017700025E0C801229E800D911D1124181619061E
:101780000CF068C0622C712CC30133E0880F991FE4
:101790003A95E1F78A0D9B1D181619060CF05AC0F0
:1017A000F489FB83AF81B8855396BC91BC83629F5B
:1017B000B0011124FB01E25CFA4F2F011982F20102
:1017C0008491F981F53009F480E0450128E02A830D
:1017D000A82FB0E0BE83AD833C8080FF3B803110FA
:1017E00004C0BB81EC81BE17F9F078018E2D801BFF
:1017F0008215D0F4D12CC12CC21490F4F0E8EF166D
:10180000F10450F4B601680D791D6034710520F4BF
:10181000432DC7010E943D0B2FEFC21AD20AECCF15
:101820003FEFE31AF30AE2CF8D819E81959587956C
:101830009A8191509A83860C971C9111C9CFA981E6
:10184000AF5FA983BFEF4B1A5B0A060D171DA630C9
:1018500009F0B5CFEF81F8852589422F50E08785C3
:101860009089F6E02F9F800D911D1124AF81B885DE
:1018700050969C938E931F9756962C9156972223A1
:1018800009F442CF6AEF64039001659F300D112483
:1018900020583F4F281739070CF036CFED91FC91B7
:1018A00011970190F081E02D6AE0CD0109952CCFD0
:1018B0000895089590E080E008950F9309E227E3EA
:1018C0004CEE53E070E060E084E390E00E94EC06B0
:1018D0008091F3079091F4076CE370E00E94D117B8
:1018E000892B29F480914E018F5F80934E01809166
:1018F0004E01837000E424E34CE452E011F04CEA22
:1019000050E070E060E090E080E00E94EC068CE047
:101910000E94E106882359F044E150E060E070E065
:1019200089EA91E00E948C0681E0809372010F9118
:1019300008958F929F92AF92BF92CF92DF92EF92D3
:10194000FF9280900508912CB12CA12CC090070823
:10195000D12C8FEFC81AD80A0D2C000CEE08FF0806
:10196000C814D904EA04FB048CF48C189D08AE0852
:10197000BF0841F00E940017A50194010E946E1754
:101980004B015C01C80CD91CEA1CFB1CC092E3058E
:1019900080900608912CB12CA12CC0900808D12C65
:1019A0008FEFC81AD80A0D2C000CEE08FF08C814D7
:1019B000D904EA04FB048CF48C189D08AE08BF0817
:1019C00041F00E940017A50194010E946E174B017F
:1019D0005C01C80CD91CEA1CFB1CC092E405FF90FA
:1019E000EF90DF90CF90BF90AF909F908F90089531
:1019F0000C9458170E94EB170F93CF93DF938091AD
:101A00000301882331F180910B088093E9078091CD
:101A10000C088093EA0783E08093EB07809103082A
:101A20008093E505809104088093E6051092E7070E
:101A30001092E8070E94990C1092530180EB94E0F9
:101A400090930201809301018FE080930001109236
:101A5000030180E80E94E1068823A1F09091E90744
:101A600080910D08981306C09091EA0780910E08A6
:101A7000981741F080910F088093E9078091100832
:101A80008093EA0780E10E94E1068823A1F090910B
:101A9000E90780910F08981306C09091EA0780919A
:101AA0001008981741F080910D088093E907809104
:101AB0000E088093EA0780E20E94E1068823A1F0E5
:101AC0009091E90780910B08981306C09091EA075E
:101AD00080910C08981741F0809109088093E907DC
:101AE00080910A088093EA0780E40E94E106882337
:101AF000A1F09091E90780910908981306C0909190
:101B0000EA0780910A08981741F080910B088093AA
:101B1000E90780910C088093EA076091000170E06A
:101B20008091F3079091F4070E94D117892B09F057
:101B30005FC02091E8079091E5058091E6052F3F71
:101B400069F0E091E707E20FF0E0EE0FFF1FEB51C5
:101B5000FA4F928383832F5F2093E8072091E90750
:101B6000920F9093E5052091EA07820F8093E60596
:101B70002091EB07222309F45CC021502093EB074E
:101B80002091E305291334C09091E405981330C0E7
:101B90008091EB078F5F8093EB07809153018F5FFC
:101BA000809353010E94990C42E350E060E070E0A2
:101BB00084EF91E00E948C0660E570E080E090E0A8
:101BC0000E94570942E350E060E070E080E293E059
:101BD0000E948C0660E570E080E090E00E9457096A
:101BE00044E650E060E070E08CE494E00E948C06F3
:101BF0004091E80750E06091E7072091E5053091BA
:101C0000E60590E080E070E0841795070CF0DEC0F8
:101C1000FC01E60FF71FFF27EE0FFF1FEB51FA4FF6
:101C2000A281A21304C0E381E31709F4DFC0019687
:101C3000EBCF2091E807222309F4A2CF3091E707E8
:101C40003F5F3093E70721502093E80799CF8191B8
:101C5000DF01119784608C93F5C0C2E0D0E041E0D1
:101C6000BE0182E090E00E943D0B2196CE33D1056B
:101C7000B1F7C2E0D0E041E0BE018DE790E00E9404
:101C80003D0B2196CE33D105B1F781E08093010859
:101C900081E390E09093FC078093FB071092FE078E
:101CA0001092FD0745E050E063E471E08CEE97E0B0
:101CB0000E94050987E390E09093FC078093FB075F
:101CC0001092FE071092FD07809153011F928F938F
:101CD00089E491E09F938F93CFE4D1E0DF93CF939A
:101CE0000E94F01709900020E9F7AE0140555140DD
:101CF0006FE471E08CEE97E00E9405096091E605C3
:101D000034E0639FB00111248091E50504E024E0F4
:101D10004AE355E034E0839FC00111240E94EC06A1
:101D20000F900F900F900F900F900F90D0E0C0E0A9
:101D30008091E8078C171D06D9F0D4F0E091E707F1
:101D4000EC0FF0E0EE0FFF1FEB51FA4F638134E030
:101D5000639FB0011124828104E024E04AE355E04E
:101D600034E0839FC00111240E94EC062196E0CF4D
:101D70006091E40584E0689FB00111248091E3053F
:101D800004E024E046E355E034E0839FC0011124E1
:101D90000E94EC06809101019091020101979093BD
:101DA000020180930101892B69F480910001863042
:101DB00018F081508093000180EB94E09093020131
:101DC00080930101DF91CF910F91089580910708D1
:101DD000821760F480910508281740F48091080864
:101DE000831720F480910608381748F181E080932A
:101DF00003011092720140E550E060E070E08CE475
:101E000094E00E948C0664E670E080E090E00E941E
:101E1000570940E550E060E070E088EE93E00E94F2
:101E20008C0664E670E080E090E00E94570944EF81
:101E300051E060E070E084EF91E00E948C06E3E9FD
:101E4000F1E09DE7915009F002CFE3E1F5E09DE775
:101E5000915009F402CF8191DF01119780628C9338
:101E6000F7CF1F920F920FB60F9211248F939F936B
:101E70008091E1009091E100937F9093E10083FFD6
:101E80000FC01092E90091E09093EB001092EC00EB
:101E900092E39093ED001092880198E09093F00007
:101EA00082FF22C093E09093E9009091F200992381
:101EB00019F09AE39093E80090917901992341F009
:101EC00090917901915090937901911101C05D9A9F
:101ED00090918701992341F09091870191509093BF
:101EE0008701911101C0289A84FF18C08091E200F7
:101EF0008E7E81608093E2008091E1008F7E8093EE
:101F0000E10080917A018E7E806180937A019F91B9
:101F10008F910F900FBE0F901F90189580FFF7CFF5
:101F20008091E2008E7E80618093E2008091E100EA
:101F30008E7E8093E10080917A018E7E8160E5CF74
:101F40001F920F920FB60F921124CF92DF92EF9251
:101F5000FF920F931F932F933F934F935F936F9332
:101F60007F938F939F93AF93BF93EF93FF93CF9301
:101F7000DF93CDB7DEB76C97DEBFCDBF1092E9001F
:101F80008091E80083FF25C068E0CE0145960E945D
:101F9000F80882EF8093E8008D8987FF39C090911F
:101FA000E80090FFFCCF982F907609F034C19E890D
:101FB0004F89588D2F89F88C911131C0803861F587
:101FC000809178018093F1001092F1008EEF809360
:101FD000E8006C960FB6F894DEBF0FBECDBFDF9160
:101FE000CF91FF91EF91BF91AF919F918F917F9191
:101FF0006F915F914F913F912F911F910F91FF90A2
:10200000EF90DF90CF900F900FBE0F901F9018951C
:102010009EEF9093E800C7CF1092F100D5CF91309A
:1020200059F48111D3CF4130510581F68091780167
:102030008D7F80937801CACF933049F48111C6CF48
:102040004130510519F6809178018260F2CF9530C8
:1020500041F48091E80080FFFCCF20682093E300EA
:10206000B5CF963009F0A9C00B8D1C8D22E01092DF
:10207000E9001092760110927501F2122EC01092B2
:102080007401109273010E94C7081F8299E099831E
:10209000FA8291E09E8390EA98879AEF998720913F
:1020A000750130917601275F3F4F3C832B838D83F1
:1020B0001092E9001092760110927501109374014C
:1020C0000093730149E050E0BE016F5F7F4F80E0F5
:1020D0000E94A1080E94C70879CF10937401009351
:1020E00073010E94DE07DC0112960D911C9101150F
:1020F000110509F451C1D801ED91FC910480F581DD
:10210000E02DBE016B5E7F4FC8010995009709F075
:102110003EC1F80100851185EACFF3E0FF120EC041
:102120008F89882309F440C0823061F440E860E17F
:102130008DE89CE00E947613811148CF81E2809364
:10214000EB0047CF813029F440E86BE081E89CE068
:10215000F1CF833099F70E94DE07DC011296ED90F3
:10216000FC908E010F5F1F4F6801E114F10479F0BC
:10217000D701ED91FC910680F781E02DB801C701F0
:102180000995080F111DF701E084F184EECFD80105
:102190001C92F60101900020E9F73197BF016C19FC
:1021A0007D0940E0C601C6CF6BE67CE0FB014491AF
:1021B00050E080E80E94A10809CF973009F4BECF13
:1021C000983021F481E08093F10000CF993009F03C
:1021D000FDCE837009F0B2CFE7E1F1E081E031E0BC
:1021E00096E32191222371F08093E9003093EB0074
:1021F000DF0111972C912093EC009093ED008F5FFD
:10220000873079F78EE78093EA001092EA008F8991
:1022100080938801DBCE8B8D9C8D1092E90010920B
:102220007601109275019093740180937301898DEA
:10223000811192C08E899D89913A49F4813209F0C9
:102240007DCF47E050E068E071E080E0B3CF9132AD
:1022500009F074CF833269F48F89988DB0E0A0E0E3
:102260008093040190930501A0930601B0930701A8
:10227000ADCE803269F48091E80082FFFCCF67E048
:1022800088E091E00E94F8088BEF8093E8009ECEF2
:10229000823209F09BCE8F8980930F01EEEFFFE72A
:1022A000859194918B3F9C4D51F1E0E0F8E0809155
:1022B000080190910901A0910A01B0910B01803BA6
:1022C0009440A105B105F1F480910F0180FD1AC081
:1022D000EE3F8AE0F80789F587E797E791838083E7
:1022E000809160008093770188E19BE00FB6F894BD
:1022F000A895809360000FBE9093600067CEEEEFCC
:10230000FAE0D5CF808191818737974709F05ECE7B
:10231000A89580916000886180936000809177012A
:1023200080936000EE3F2AE0F20789F08091FE0A78
:102330009091FF0A9183808349CE80819181873774
:10234000980751F29093FF0A8093FE0AC5CF10922E
:10235000FF0A1092FE0A3ACE0E94DE07DC011296B6
:102360000D911C910115110509F4E8CED801ED91EC
:10237000FC910190F081E02DBE016B5E7F4FC801A2
:102380000995811123CEF80100851185EBCF181630
:1023900019060CF41BCED2CEF1E0FF12BECE6FE6D2
:1023A0007CE004CF1F920F920FB60F9211242F934F
:1023B0003F938F939F93AF93BF9380916E019091C2
:1023C0006F01A0917001B09171013091680123E01B
:1023D000230F2D3758F50196A11DB11D20936801DB
:1023E00080936E0190936F01A0937001B09371017F
:1023F0008091690190916A01A0916B01B0916C018B
:102400000196A11DB11D8093690190936A01A0936B
:102410006B01B0936C01BF91AF919F918F913F91F0
:102420002F910F900FBE0F901F90189526E8230F45
:102430000296A11DB11DD2CF1F920F920FB60F921F
:1024400011242F933F934F935F936F937F938F93B9
:102450009F93AF93BF93CF93DF93EF93FF938091BD
:102460006501882389F080918D0181110DC08091D3
:102470006401811109C090916301E0916101F091C3
:10248000620180818927808380916001882309F41B
:102490009CC080915C0190915D01A0915E01B09122
:1024A0005F01892B8A2B8B2B09F48FC080915C01F3
:1024B00090915D01A0915E01B0915F010197A1092A
:1024C000B10980935C0190935D01A0935E01B0938C
:1024D0005F01892B8A2B8B2B09F077C0D1E0E0912B
:1024E0005A01F0915B01AF014F5F5F4F50935B0169
:1024F00040935A012491822F807FC22FCF70803861
:1025000021F48C2F0E948C0AEACF803919F5E091D2
:10251000E105F091E20509958D2780936401E09132
:102520005A01F0915B01CF01019690935B0180937A
:102530005A01649180919001C81788F6C13021F446
:10254000809159018111CBCF67FDC9CF8C2F0E949B
:102550000F0AC5CF87FD4CC03296F0935B01E09324
:102560005A01FA014491A0916601B0916701322F9E
:10257000242F0E94C2176C507E4F8F4F9F4F28EE22
:1025800033E040E050E00E94A01720935C013093BC
:102590005D0140935E0150935F0180915C019091D9
:1025A0005D01A0915E01B0915F01892B8A2B8B2B7D
:1025B00061F481E090E0A0E0B0E080935C01909352
:1025C0005D01A0935E01B0935F01FF91EF91DF91F8
:1025D000CF91BF91AF919F918F917F916F915F91BB
:1025E0004F913F912F910F900FBE0F901F90189514
:1025F000803E29F410925B0110925A0170CF803F07
:1026000009F06DCF10926001E0CF1F920F920FB6CC
:102610000F9211248F939F93AF93BF93EF93FF93E8
:1026200080918F01882309F454C080918901909191
:102630008A01A0918B01B0918C01892B8A2B8B2B65
:10264000A1F190915801E0915601F09157018081DC
:10265000892780838091890190918A01A0918B01C3
:10266000B0918C01181619061A061B069CF480916D
:10267000890190918A01A0918B01B0918C01019701
:10268000A109B1098093890190938A01A0938B01DC
:10269000B0938C01FF91EF91BF91AF919F918F917A
:1026A0000F900FBE0F901F90189510928D011092F1
:1026B0008F0180916F008D7F80936F008091580112
:1026C000E0915601F0915701908180958923808394
:1026D000E1CF809164018111DDCF90915801E091AB
:1026E0005601F091570180818927F1CFEF92FF9237
:1026F0000F931F93CF93DF93F82E192FE62E042FFD
:1027000081E0860F880F0E94730883E00E9473089F
:10271000CF2DD12FEC0EFD2EF11CCE15DF05B9F01B
:1027200007FF13C0FE0184910E947308182F80E0F8
:102730000E947308812321968111EFCFDF91CF9101
:102740001F910F91FF90EF9008958881EDCF81E068
:10275000F5CF0F931F93CF93DF938C0181E090E02F
:102760000E94F80C80FF32C08AE090E00E94F80CD2
:102770009FEF980F9E3F50F522E330E0D80150962E
:102780003C932E931F9728E330E052963C932E9370
:102790005197CBE0D0E0D801ED91FC910190F08110
:1027A000E02D682FC8010995CE010E94F80C2196F2
:1027B000C131D10581F780E00E947D0688EE93E06B
:1027C000DF91CF911F910F910C94300BDF91CF913E
:1027D0001F910F91089504970C94A91310929405DA
:1027E0001092930588EE93E0A0E0B0E08093950509
:1027F00090939605A0939705B093980581E291E098
:1028000090939205809391058FEF9FEF90939E0593
:1028100080939D0510920F089FEF909310081092DF
:102820000D0881E080930E0880930B0810920C082D
:102830009093090810920A0810920708109208084D
:102840009FE1909305089FE09093060892E1909392
:10285000030898E0909304081092EF071092EE0797
:102860001092F5071092F60790E19093F7071092F7
:10287000F4071092F3071092F90723E331E0309345
:10288000ED072093EC0721E431E03093F10720932A
:10289000F0071092FC071092FB071092FE071092AF
:1028A000FD078093FF0710920008809301081092A3
:1028B00002088AE796E09093E2058093E105109282
:1028C000E5051092E605E7EEF5E087EE97E0108269
:1028D000118232968E179F07D1F71092E707109258
:1028E000E8071092E9071092EA071092E3051092A8
:1028F000E4050895789484B5826084BD84B58160D0
:1029000084BD85B5826085BD85B5816085BD8091BA
:102910006E00816080936E00109281008091810032
:10292000826080938100809181008160809381002A
:10293000809180008160809380008091910082600E
:1029400080939100809191008160809391008091AB
:1029500090008160809390008091C100846080939A
:10296000C1008091C10082608093C1008091C1004C
:1029700081608093C1008091C30081608093C30017
:102980008091C00082608093C0008091C20081600D
:102990008093C20080917A00846080937A00809155
:1029A0007A00826080937A0080917A0081608093BF
:1029B0007A0080917A00806880937A001092880172
:1029C0001092780110927A018091D70081608093F3
:1029D000D70080EA8093D80089B5806189BD89B528
:1029E000826089BD09B400FEFDCF61E070E080E047
:1029F00090E00E9457098091D8008F7C806180937D
:102A0000D8008091E000807F8093E0008091E10019
:102A10008E7E8093E1008DE08093E200559A209AAB
:102A200081EC80937C0085B1806F85B984B1877E0D
:102A300084B984B1876E84B95E9A5F988AB1806DDB
:102A40008AB9769A6E9881B3806F81BB899880B37A
:102A50008D7080BB80E58CBD81E08DBD85E090E010
:102A60000E94300B5F9A85E090E00E94300B5E98E8
:102A70005C98E8E1FCE084918EBD00000DB407FE97
:102A8000FDCF31960CE0E532F007A9F75C9A81E8BA
:102A9000809364008091650081608093650080E090
:102AA0000E947D060E94350B87FF15C05C9885EA61
:102AB0008EBD00000DB407FEFDCF5C9A2E982F98B6
:102AC0002D988091640080628093640081E083BFD0
:102AD000889513BEFCCF0E94350B82FF48C02D980D
:102AE0000E94350B84788438E1F40E942E0B88EC28
:102AF00090E00E94300B2F9882E090E00E945817DF
:102B00008F3F29F06FEF82E090E00E94601784EF22
:102B100091E00E94300B2F9A0E94350B8478843804
:102B2000D9F30E94350B84718431E1F40E942E0B9D
:102B300088EC90E00E94300B2E9882E090E00E949A
:102B40005817882329F060E082E090E00E94601727
:102B500084EF91E00E94300B2E9A0E94350B847115
:102B60008431D9F388EC90E00E94300BB4CF0E94FE
:102B70002E0B82E090E00E94F80C882309F47FC0BD
:102B80003E9A3F9A81E080936D0181E090E00E943F
:102B9000F80C182F147081FF0CC011112E98C0EF83
:102BA000DFEF0E94350B86FF6FC02E9A2F9A0E948E
:102BB0002E0B82E390E00E94300B0E94350B8111B6
:102BC000F8CF85E00E94B70A8DE00E94B70A80E145
:102BD0008093F707809164008E7F809364008091DA
:102BE0007A00806480937A0080917A0086FDFCCF21
:102BF000C0917800D09179000E943209AB01BC01EC
:102C0000CE01B0E0A0E0DC01992788278C019D016E
:102C1000040F151F261F371FC901B801209164003A
:102C2000216020936400611571058105910511F003
:102C30000E944F17EE24E39401E911E0C0E0D0E0D8
:102C4000DD24D3948FB7F89440916E0150916F01B9
:102C500060917001709171018FBF8091F807242FEE
:102C6000281B822FF090F907FF20E1F12093FA074B
:102C70001092F907209731F30E940000E3CF1092E1
:102C80006D013E983F9881CF112329F0C430D105C2
:102C900011F42E9A2F9881E00E947D0600E128E52C
:102CA00048E65BE0BE0184E190E00E94EC0680E033
:102CB0000E947D068FE090E00E94300B2196C93182
:102CC000D10509F06ECF112311F02F9A2D9880E9CC
:102CD00091E00E94300B0E942E0B8CEE97E00E9438
:102CE000A91367CF9091F707291738F48F5F8917D9
:102CF00008F6E3BE889513BEBDCFD092F907409386
:102D0000F8078091F3079091F40701969093F407E8
:102D10008093F3078091F5078093F6070E94350BA7
:102D20008093F5078F2DF80181118FEF0024819397
:102D30008193819381930394D1F71092FE071092AF
:102D4000FD071092FC071092FB07E0917201F0E082
:102D5000EE0FFF1FEB5DF34F85919491FC010995F8
:102D600080E00E947D0686CF8F929F92AF92BF92A5
:102D7000CF92DF92EF92FF92CF93DF93EC016881C5
:102D800079818A819B81611571058105910521F405
:102D900064E279ED8BE597E02DE133EF41E050E01F
:102DA0000E946E1749015A019B01AC01A7EAB1E4E8
:102DB0000E948D176B017C01ACEEB4EFA50194016C
:102DC0000E949B17C60ED71EE81EF91EF7FE06C00E
:102DD00081E0C81AD108E10880E8F80AC882D982DF
:102DE000EA82FB82C701B6019F77DF91CF91FF9006
:102DF000EF90DF90CF90BF90AF909F908F9008950D
:102E00008F929F92AF92BF92CF92DF92EF92FF92FA
:102E10006091100170911101809112019091130144
:102E2000611571058105910521F464E279ED8BE569
:102E300097E02DE133EF41E050E00E946E17490129
:102E40005A019B01AC01A7EAB1E40E948D176B0106
:102E50007C01ACEEB4EFA50194010E949B17C60E55
:102E6000D71EE81EF91EF7FE06C081E0C81AD10879
:102E7000E10880E8F80AC0921001D0921101E092B6
:102E80001201F0921301C701B6019F77FF90EF90F6
:102E9000DF90CF90BF90AF909F908F9008956093F8
:102EA0001001709311018093120190931301089502
:102EB000F999FECF92BD81BDF89A992780B5089502
:102EC000262FF999FECF1FBA92BD81BD20BD0FB646
:102ED000F894FA9AF99A0FBE01960895052E97FB79
:102EE0001EF400940E94851757FD07D00E94A0177A
:102EF00007FC03D04EF40C948517509540953095FF
:102F000021953F4F4F4F5F4F089590958095709555
:102F100061957F4F8F4F9F4F08950E94C217A59FC5
:102F2000900DB49F900DA49F800D911D11240895C4
:102F3000B7FF0C948D170E948D17821B930B089579
:102F4000A1E21A2EAA1BBB1BFD010DC0AA1FBB1FAD
:102F5000EE1FFF1FA217B307E407F50720F0A21B1F
:102F6000B30BE40BF50B661F771F881F991F1A948C
:102F700069F760957095809590959B01AC01BD01B6
:102F8000CF010895A29FB001B39FC001A39F700D10
:102F9000811D1124911DB29F700D811D1124911D61
:102FA0000895AA1BBB1B51E107C0AA1FBB1FA61790
:102FB000B70710F0A61BB70B881F991F5A95A9F7E2
:102FC00080959095BC01CD010895EE0FFF1F0590EF
:102FD000F491E02D099481E090E0F8940C94C81AE3
:102FE000AEE0B0E0E6EFF7E10C949F1A0D891E8980
:102FF00086E08C831A8309838FEF9FE79E838D83FE
:10300000AE01475E5F4F6F89788DCE0101960E94B9
:1030100013182F813885020F131FF80110822E9686
:10302000E4E00C94BB1AABE0B0E0E9E1F8E10C9409
:10303000911A7C013B018A01FC011782168283816F
:1030400081FFC8C1CE0101965C01F7019381F301B4
:1030500093FD859193FF81913F01882309F453C12A
:10306000853239F493FD859193FF81913F0185323B
:1030700029F4B70190E00E94031AE7CF912C212C8C
:10308000312CFFE1F31538F08B3211F190F48032DE
:1030900009F1833229F137FC3CC020ED280F2A309A
:1030A00050F536FE20C08AE0989E200D1124922E05
:1030B00006C08D3291F0803371F7689430F8F301D7
:1030C00093FD859193FF81913F018111DACF21C05A
:1030D000689431F8689432F8F2CF689433F8EFCFFF
:1030E000689434F8ECCFEAE02E9E200D1124222EB5
:1030F000689435F8E4CF8E3229F436FC04C1689424
:1031000036F8DDCF8C3619F4689437F8D8CF883686
:10311000B1F2982F9F7D95549330E0F08336A1F162
:103120008337C1F1833509F063C02801F2E04F0E07
:10313000511CF801C080D180692D70E036FC02C0BE
:103140006FEF7FEFC6010E94ED194C01689437F8CC
:1031500082010AC00C5F1F4FFFE3F9838824839428
:10316000912C6501E89437F833FE2DC0522C811460
:10317000910471F5552009F468CFB70180E290E021
:103180000E94031A5A94F6CFF801808189830E5F5A
:103190001F4FE4CF2801F2E04F0E511CF801C08010
:1031A000D180692D70E036FC02C06FEF7FEFC60161
:1031B0000E94F8194C018201D5CFB70180E290E05E
:1031C0000E94031A2A942814190409F0B0F7CECFEC
:1031D000F60137FC859137FE81916F01B70190E0D0
:1031E0000E94031A51105A94F1E08F1A9108BFCF30
:1031F000843619F0893609F077C0F80137FE6BC0C4
:1032000060817181828193810C5F1F4FF32DFF7666
:103210003F2E97FF09C090958095709561957F4FDF
:103220008F4F9F4F689437F82AE030E0A5010E9445
:10323000331AC82ECA188C2C432C36FE0CC0E894C6
:1032400040F8C91440F434FE05C032FC03C0F32D2D
:10325000FE7E4F2E892C44FE95C0FE01EC0DF11D23
:103260008081803309F087C0242D297E422E842D51
:103270008870582E43FC95C040FE8FC09C2C821451
:1032800018F42C0C922C981844FE91C0B70180E3DE
:1032900090E00E94031A42FE09C088E790E041FED8
:1032A00002C088E590E0B7010E94031AC91408F42F
:1032B0008AC0CA94D12C9FEFC91AD90ACA0CDB1C48
:1032C000F60182916F01B70190E00E94031AAC14DD
:1032D000BD04B1F74FCF60817181072E000C880BC0
:1032E000990B0E5F1F4F92CFD32CE894D4F82AE0AD
:1032F00030E0853739F1232D297FD22E8F3601F129
:1033000048F48835A9F0F701868197812B96E2E190
:103310000C94AD1A803749F08837A9F7D4FE02C063
:103320006894D2F820E130E00DC06894D4F8F6CF6C
:1033300034FE03C0822F8660D82E20E132E002C026
:1033400028E030E0F801D7FE0FC0608171818281F2
:1033500093810C5F1F4FA5010E94331AC82ECA1813
:103360003D2CE89437F867CF6081718190E080E070
:103370000E5F1F4FF0CF42FC02C0839478CF83943E
:10338000839475CF842D867809F471CFF6CFB70179
:1033900080E290E00E94031A83948214C0F3512CBF
:1033A00073CF522C5818821408F46ECFF8CF842DA6
:1033B000867809F47BCF8BE241FE80E247FC8DE208
:1033C000B70190E071CFB70180E390E00E94031A4B
:1033D0009A946CCF8FEF9FEF99CFFC0105906150CD
:1033E00070400110D8F7809590958E0F9F1F08951B
:1033F000FC016150704001900110D8F780959095C4
:103400008E0F9F1F08950F931F93CF93DF93182F55
:10341000092FEB018B8181FD09C01FEF0FEF812F79
:10342000902FDF91CF911F910F91089582FF14C0CB
:103430002E813F818C819D81281739073CF4E881DA
:10344000F981CF0101969983888310838E819F81B2
:1034500001969F838E83E3CFE885F985812F0995B7
:10346000892BA1F3DACFFA01AA27283051F12031B4
:1034700081F1E8946F936E7F6E5F7F4F8F4F9F4F08
:10348000AF4FB1E03ED0B4E03CD0670F781F891F4A
:103490009A1FA11D680F791F8A1F911DA11D6A0F18
:1034A000711D811D911DA11D20D009F468943F91CB
:1034B0002AE0269F11243019305D3193DEF6CF01CA
:1034C0000895462F4770405D4193B3E00FD0C9F790
:1034D000F6CF462F4F70405D4A3318F0495D31FDFD
:1034E0004052419302D0A9F7EACFB4E0A695979550
:1034F000879577956795BA95C9F700976105710526
:1035000008959B01AC010A2E06945795479537956F
:103510002795BA95C9F7620F731F841F951FA01DC9
:1035200008952F923F924F925F926F927F928F9267
:103530009F92AF92BF92CF92DF92EF92FF920F9342
:103540001F93CF93DF93CDB7DEB7CA1BDB0B0FB64C
:10355000F894DEBF0FBECDBF09942A883988488809
:103560005F846E847D848C849B84AA84B984C8849F
:10357000DF80EE80FD800C811B81AA81B981CE0F96
:10358000D11D0FB6F894DEBF0FBECDBFED0108957B
:04359000F894FFCFDD
:103594000FB00401FFFFFFFF00E100000000000086
:1035A40001000000030100C1808100000000000050
:1035B40000F2078A09130808085908170835080093
:1035C400000000550B05095A0C590CA913FCFF0007
:0E35D40000EB1320202020200025303375004E
:00000001FF
