:100000000C9442070C946A070C946A070C946A07D4
:100010000C946A070C946A070C946A070C946A079C
:100020000C946A070C946A070C9469110C94D8110B
:100030000C946A070C946A070C946A070C946A077C
:100040000C946A070C943D150C946A070C946A078B
:100050000C946A070C946A070C946A070C940A14AF
:100060000C946A070C946A070C946A070C946A074C
:100070000C946A070C946A070C946A070C946A073C
:100080000C9454140C946A070C946A070C946A0735
:100090000C946A070C946A070C946A070C946A071C
:1000A0000C946A070C946A070C946A07FEFF030617
:1000B0007C7C0603FFFE00FCFEC6C3C3C6FEFC003C
:1000C000FFFF030387FE7800FEFE8000C0C0000033
:1000D000060606FEFE06008B4B28A8A8A828488B1B
:1000E0000B08CBCBC8C8C8C80B0B088BCBCBCB8BB2
:1000F000090808C8C9CBC3CFCF03000C8CCFC7CB2E
:1001000088080F10202F282820100F00003E3636B8
:1001100036363700000F1F3030301F0F00003E36DC
:100120003636363700000F1F3030301F0F1C1C22B0
:10013000417F0022140814223F04043F003E001CAB
:10014000222A3A003E08083E000026292910001CF9
:100150002222001C22221C003E0A0A34003E2A22CF
:10016000000000000080C0C0E0F0F0F0F0E0E0C06F
:10017000C08080000000000000000080C0F0F8FC9B
:10018000FCFCFEFEFEFEFE3C000000000000000045
:10019000000000000000000000071F1F7FFFFFFE9F
:1001A000FCF9FBF7E7CFDF1F1F9EC8E0F838C4CF8C
:1001B000EFFFFFFFFFFFFFFFFFFFFFF8F0C00000B2
:1001C000000000000000000000000000000000002F
:1001D0000F1FFFDF9F3FDFDFDFFFE0EEEEFFFFFFE0
:1001E000FC630FDFEFE7F7F7F7F7E7EFEFFFDFBFAE
:1001F0007FFFCF00800000000000000000004040B2
:10020000800000005FBFFFDFDF3EF0FFFFFFFFFF6A
:10021000FFFFFFFFFFFCFF1FC7FB7D3FBFBFFEDEF1
:10022000DFCDE3E9CC07E9E7E586860000000000C2
:100230000000000000017E7EFCFDFF3B1337610FD4
:10024000FFFFFFFFFF7F7F7FFFFFFFF003FDFEFF4C
:100250008787030101010383CF506FEFEFDFDFE0FA
:10026000C000000000000000183CFCFCDFCBE7E809
:10027000E8F0F8E8EFEDECEEEECE9F3E7EFEFCFD02
:10028000FFF8FF7F373797CCE0341B090D070606D0
:100290000703030100000000000000007FFFFFFFD4
:1002A0007F7C3C9FDFDFDF9F3F7F7CFCFCFFFFFF0D
:1002B00060673F9F472198E6F1F1FD0100000000D3
:1002C000000000000000000000000000000000002E
:1002D0000000000000384E3F010000060C08C8096D
:1002E00009E9E5F4F6FAF9FDFEFF01FFFFFFFF0063
:1002F00000000000000000000000000000000000FE
:10030000000000000080C0C0E0F0F0F0F0E0E0C0CD
:10031000C08080000000000000000080C0F0F8FCF9
:10032000FCFCFEFEFEFEFE3C0000000000000000A3
:10033000000000000000000000071F1F7FFFFFFEFD
:10034000FCF9FBF7E7CFDF1F1F9EC8E0F838C4CFEA
:10035000EFFFFFFFFFFFFFFFFFFFFFF8F0C0000010
:10036000000000000000000000000000000000008D
:100370000F1FFFDF9F3FDFDFDFFFE0EEEEFFFFFF3E
:10038000FC630FDFEFE7F7F7F7F7E7EFEFFFDFBF0C
:100390007FFF0F00000000000000000000000000D0
:1003A000000000001FBFFFDFDF3EF0FFFFFFFFFF89
:1003B000FFFFFFFFFFFCFF1FC7FBFDFFFFFFFEFE70
:1003C000FFFDFBEFDC3F78A02080802000000000D4
:1003D0000020204010205C5C3E7FFFFF7FFF610F0C
:1003E000FFFFFFFFFF7F7F7FFFFFFFF00FDFDFDFFC
:1003F000BFBF3F1F1F2F2FA7D75169E2E8DFDFE004
:10040000C000000000000000183CFCFCDFCBE6E868
:10041000E8F0F8E8EFEDECEEEECE9F3E7EFEFCFD60
:10042000FFF8FF7F373797CC60341B090D070606AE
:100430000703030100000000000000007FFFFFFF32
:100440007F7C3C9FDFDFDF9F3F7F7CFCFCFFFFFF6B
:100450006067BFDFE7E104F2F9F9FC00000000008B
:10046000000000000000000000000000000000008C
:100470000000000000000101010101010101FE0076
:1004800000FFFFFEFFFFFFFFFFFF00FFFFFFFF007A
:10049000000000000000000000000000000000005C
:1004A000000000C0FCFCF000000000F0FC1E00009A
:1004B000F0F060000080E0606060E000008080801C
:1004C000808000000000000000000000000000002C
:1004D0000000000000000000000000FFFFFF070E0A
:1004E0001C9C8EBFFFFE003FFFFFF000070F1FFCAC
:1004F000F8E0001C3E7FF1E18103030000000000F2
:1005000000000000000000000000000000000000EB
:1005100000003C1F0F03F8FEFFE7C1810303000C3E
:100520000F0700000C1C0E0F0780903030989F0FB3
:10053000030000000000000000F0F0000080C04058
:1005400000000000000000000000000000008081AA
:1005500081C3E3FF7F3E180080F03FCFFC0080FCAA
:100560007F070380FCFFC1E76E7CF0C0000000F84D
:10057000FF1FF8EC860301F0F83C3C1C0C04000063
:1005800000C060703E1F07070703010000003C3EEB
:100590001F0F000F1F1E070100003C3F1F0101003D
:1005A0000000070700381F07000000031F3E700708
:1005B0007F7F737130200000000000000000000009
:1005C000000000000000000000000000000000002B
:1005D000000000000000000000000000000000001B
:1005E000000000000000000000000000000000000B
:1005F000060F0F060F0F0F0F3F02043F003E2A2287
:10060000000E3008300E00003F04043F003E001C86
:10061000222A3A003E08083E000026292910001C24
:100620002222001C22221C003E0A0A34003E2A22FA
:1006300000002F002FF0F0FCFC0F0FCFCFCFCFCF5B
:10064000CF000000F0F0FCFC0F0F0F0F0F0FFCFCB1
:10065000F0F000FCFCFFFF3C3CF0F03C3CFFFFFCFA
:10066000FC00FCFCFFFFCFCFCFCFCFCF0F0F0000A0
:100670000000F0F0FCFC1F0F0F0F0F1FFCFCF0F050
:1006800000FFFFFCFC000000000000FCFCFFFF007E
:10069000FCFCFFFFCFCFCFCFCFCF0F0F00FCFCFF75
:1006A000FF0F0F0F0FFFFFFCFC0F0F3F3FF0F0F3AA
:1006B000F3F3F3FFFF3F3F00FFFFFFFF0F0F0F0FAD
:1006C0000F0FFFFFFFFF00FFFFFFFF00000303000E
:1006D00000FFFFFFFF003F3FFFFFF3F3F3F3F3F3F0
:1006E000F0F0000000000F0F3F3FF8F0F0F0F0F8DE
:1006F0003F3F0F0F0003030F0F3F3FFCFC3F3F0F37
:100700000F0303003F3FFFFFF3F3F3F3F3F3F0F0C6
:1007100000FFFFFFFF0F0F0F0FFFF8F8F8000000BA
:1007200000003E5B4F5B3E3E6B4F6B3E1C3E7C3E93
:100730001C183C7E3C181C577D571C1C5E7F5E1CA1
:1007400000183C1800FFE7C3E7FF0018241800FF5B
:10075000E7DBE7FF30483A060E2629792926407F55
:10076000050507407F05253F5A3CE73C5A7F3E1C64
:100770001C08081C1C3E7F14227F22145F5F005F50
:100780005F06097F017F006689956A60606060602E
:1007900094A2FFA29408047E040810207E20100872
:1007A000082A1C08081C2A08081E101010100C1E0D
:1007B0000C1E0C30383E3830060E3E0E060000008F
:1007C000000000005F00000007000700147F147F96
:1007D00014242A7F2A1223130864623649562050B3
:1007E0000008070300001C2241000041221C002ACF
:1007F0001C7F1C2A08083E0808008070300008088A
:10080000080808000060600020100804023E5149FA
:10081000453E00427F400072494949462141494DC9
:10082000331814127F1027454545393C4A49493150
:1008300041211109073649494936464949291E00CF
:100840000014000000403400000008142241141479
:10085000141414004122140802015909063E415D96
:10086000594E7C1211127C7F494949363E41414123
:10087000227F4141413E7F494949417F09090901A0
:100880003E414151737F0808087F00417F410020AD
:1008900040413F017F081422417F404040407F0299
:1008A0001C027F7F0408107F3E4141413E7F0909C1
:1008B00009063E4151215E7F0919294626494949C9
:1008C0003203017F01033F4040403F1F2040201F73
:1008D0003F4038403F631408146303047804036105
:1008E00059494D43007F4141410204081020004115
:1008F00041417F04020102044040404040000307A0
:10090000080020545478407F2844443838444444F4
:1009100028384444287F385454541800087E09026B
:1009200018A4A49C787F0804047800447D4000202B
:1009300040403D007F1028440000417F40007C047F
:100940007804787C080404783844444438FC18243B
:10095000241818242418FC7C08040408485454540F
:100960002404043F44243C4040207C1C2040201CA4
:100970003C4030403C44281028444C9090907C44AB
:1009800064544C44000836410000007700000041E8
:1009900036080002010204023C2623263C1EA1A1C7
:1009A00061123A4040207A385454555921555579AE
:1009B0004121545478412155547840205455794070
:1009C0000C1E5272123955555559395454545939CF
:1009D000555454580000457C410002457D420001B9
:1009E000457C40F0292429F0F0282528F07C545536
:1009F00045002054547C547C0A097F4932494949B6
:100A0000323248484832324A4848303A4141217AE5
:100A10003A42402078009DA0A07D39444444393DAD
:100A20004040403D3C24FF2424487E4943662B2F10
:100A3000FC2F2BFF0929F620C0887E09032054547F
:100A400079410000447D413048484A3238404022D4
:100A50007A007A0A0A727D0D19317D2629292F28FC
:100A6000262929292630484D40203808080808083A
:100A7000080808382F10C8ACBA2F102834FA000024
:100A80007B000008142A142222142A14089500223C
:100A90000095AA005500AAAA55AA55AA000000FF71
:100AA00000101010FF00141414FF001010FF00FFBE
:100AB0001010F010F0141414FC001414F700FF00D0
:100AC00000FF00FF1414F404FC141417101F10107E
:100AD0001F101F1414141F00101010F0000000004D
:100AE0001F101010101F10101010F010000000FF49
:100AF000101010101010101010FF10000000FF1444
:100B00000000FF00FF00001F10170000FC04F41499
:100B1000141710171414F404F40000FF00F7141451
:100B20001414141414F700F7141414171410101FCD
:100B3000101F141414F4141010F010F000001F1003
:100B40001F0000001F14000000FC140000F010F053
:100B50001010FF10FF141414FF141010101F0000C9
:100B60000000F010FFFFFFFFFFF0F0F0F0F0FFFFDC
:100B7000FF0000000000FFFF0F0F0F0F0F3844446D
:100B800038447C2A2A3E147E02020606027E027E39
:100B90000263554941633844443C04407E201E2092
:100BA00006027E020299A5E7A5991C2A492A1C4C37
:100BB0007201724C304A4D4D303048784830BC623A
:100BC0005A463D3E494949007E0101017E2A2A2AB2
:100BD0002A2A44445F444440514A444040444A51D4
:100BE000400000FF0103E080FF000008086B6B0875
:100BF0003612362436060F090F06000018180000BA
:100C0000001010003040FF0101001F01011E0019FB
:100C10001D1712003C3C3C3C00000000000000009E
:100C200000240027002A002D0030000000000025CD
:100C30000028002B002E0031000408020110408023
:100C400040102040804080080204018040201002B3
:100C50000110801020404020040404040403040513
:100C60000202020204030202020206060606060649
:100C70000404020202040406011501260137014A98
:100C8000015D01720188019F01B801D201EE010BE3
:100C9000022A024B026E029302BA02E40210033FE0
:100CA000037003A403DC03170455049704DD042731
:100CB000057505C80520067D06E0064907B8072D1D
:100CC00008A9082D09B9094D0AEA0A900B400CFA47
:100CD0000CC00D910E6F0F5A1053115B1272139AC4
:100CE00014D41520178018F519801B231DDE1EB49F
:100CF00020A622B524E4263429A72B402E0031EA71
:100D0000330037453ABC3D68414C456B49C84D6896
:100D1000524F57805C006210111213151617181AE3
:100D20001C1D1F21232527292C2E3134373A3E4103
:100D300045494E52575C62686E757B838B939CA5C8
:100D4000AFB9C4D0DCE9F7F0F89C8E8783878E9C1E
:100D5000F8F00000FEFF0303030303070EFCF80096
:100D600000FEFF0303030303070EFCF80000FFFF70
:100D700000000000000000FFFF0000FEFF838383EF
:100D80008383C7EE7C380000F8FC0E0703030307DB
:100D90000EFCF800003F7FE0C08080C0E07F3FFF96
:100DA000FF01010101010101FFFF0000FFFF0C0C29
:100DB0000C0C1C3E77E3C100007FFFC0C0C0C0C068
:100DC000E0703F1F00001F3F70E0C0C0C0E0703FF8
:100DD0001F00007FFFC1C1C1C1C1E3773E1C0000FD
:100DE0001F3F70E0C0C0C0E0703F1F000000000067
:100DF00001FFFF01000000D5F08D14A1C881CFD9FB
:100E0000F1AF20005C0DDA0F1C0E9310080B0002EE
:100E10000202000009040000010202000005240093
:100E20001001052401010104240206052406000125
:100E30000705810310004009040100020A000000B8
:100E4000070502024000000705830240000004037A
:100E5000090412010002EF02014041233680000123
:100E60000102030141726475696E6F204C4C4300AE
:100E700041726475696E6F204C656F6E6172646F4C
:100E80000000261611241FBECFEFDAE0DEBFCDBF73
:100E900011E0A0E0B1E0EEE2FAE302C005900D92AD
:100EA000A834B107D9F728E0A8E4B1E001C01D9249
:100EB000A930B207E1F717E0C2E4D7E004C02197F8
:100EC000FE010E94321AC134D107C9F70E94B2163E
:100ED0000C94151D0C94000080914B010895909185
:100EE000EE07982329F49091ED07982381E009F407
:100EF00080E008956F927F928F929F92AF92BF92FF
:100F0000CF92DF92EF92FF920F931F93CF93DF93D5
:100F1000803891050CF098C0FB01E00FF11D1E1602
:100F20001F060CF091C0603471050CF08DC0DB0120
:100F300077FF04C0AA27BB27A61BB70BA770BB2748
:100F4000FB0177FD3796C3E0F595E795CA95E1F784
:100F500077FF07C0319768E070E0EB01CA1BDB0B3D
:100F6000DE01A02EA694A694A694B12C077019F0C9
:100F7000DFEFAD1ABD0A30E0BF01EA01AF015695BF
:100F8000542F442757954795480F591F47575E4F91
:100F9000A60EB71E00E810E0081B190B88E090E0D1
:100FA0004C018A1A9B0AA616B70609F44DC0683090
:100FB000710509F449C06F3FEFEF7E070CF43AC0AA
:100FC00090E080E07A01F0E8EF0EF11C6F3F7607C9
:100FD000C1F1FC01EC0FFD1FE4916A01C80ED91E9E
:100FE000F0E03F010A2E01C0660C0A94EAF7F60110
:100FF0007080672860821097B1F06730710599F0B2
:10100000FE01E80FF91FE4916701C80ED91EF0E058
:101010003F01082C02C0759467940A94E2F7F60128
:101020007080672860820196821793071CF4081766
:10103000190761F66F5F7F4FC20FD31F40585F4F94
:10104000B2CF1097E9F6EFCFDF91CF911F910F91BB
:10105000FF90EF90DF90CF90BF90AF909F908F90D8
:101060007F906F900895E9E8F1E0A0E0B8E000809B
:101070000EBC8111012C1197A0FDFDCF0192B9F793
:101080000DB40895CF92DF92EF92FF92CF93DF934A
:10109000EC016A017B01E091D905F091DA0509952F
:1010A0008823F1F1809188018230D0F181E0809332
:1010B0008701809186018093850180918100887FDE
:1010C000816080938100DE01AA0FBB1FA7019601FA
:1010D0000E94DA1928EE33E040E050E00E94ED195A
:1010E00069017A019E0150E040E060E072E18AE728
:1010F00090E00E94BB1921503109410951093093F8
:10110000890020938800C0928101D0928201E092F0
:101110008301F092840180916F00826080936F0060
:10112000DF91CF91FF90EF90DF90CF900895FC0179
:1011300080918001882311F13FB7F89482E0809379
:10114000E9002091F200822F90E01816190614F49D
:1011500081E090E0882339F0289844E640937F01AD
:101160004091F1004083222339F02091F2002111B7
:1011700003C02BE62093E8003FBF08958FEF9FEF59
:1011800008952FB7F89483E08093E9009091E800E8
:10119000892F807295FF04C09091F20080E4891B32
:1011A0002FBF08958091770181110DC082E0809357
:1011B000730184E08093740110927601109275019E
:1011C00081E08093770183E791E00895CF93DF93E7
:1011D0001F92CDB7DEB76983DC01ED91FC910280EF
:1011E000F381E02D41E050E0BE016F5F7F4F099534
:1011F0000F90DF91CF91089583E08093E900809173
:10120000F200882319F08AE38093E80008950E9491
:10121000C10890E00895CF93DF931F92CDB7DEB75A
:10122000FC018485958597FD08C02FEF3FEF35873A
:1012300024870F90DF91CF910895CE0101960E94EF
:101240009708019719F4898190E0F3CF8FEF9FEF12
:10125000F0CF0F931F93CF93DF931F92CDB7DEB7DD
:101260008C01FC018485958597FF0BC0CE0101960A
:101270000E949708019771F4898190E0F8019587A1
:101280008487F801848595850F90DF91CF911F9118
:101290000F9108958FEF9FEFF1CFFC018485958525
:1012A00097FD0BC09FB7F89482E08093E90080918E
:1012B000F2009FBF90E0019608959FB7F89482E0F6
:1012C0008093E9008091F2009FBF90E008954091E3
:1012D0006D0150916E0120916B0130916C014217AC
:1012E0005307B4F49091E8009570E1F39091E80011
:1012F00092FD19C08093F10080916D0190916E0173
:1013000001968F739927892B19F48EEF8093E8004B
:1013100080916D0190916E01019690936E01809382
:101320006D0181E0089580E00895DF92EF92FF92D1
:101330000F931F93CF93DF93D82E8A01EB017B018C
:10134000E40EF51ECE15DF0559F0D7FE12C0FE01E2
:1013500084910E94670921968111F4CF0FEF1FEF4E
:10136000C801DF91CF911F910F91FF90EF90DF9017
:1013700008958881EECF0F931F93CF93DF931F9231
:10138000CDB7DEB782E0898342E450E06CE07EE0D6
:1013900080E80E9495090E94D208DC0112960D9106
:1013A0001C910115110589F0D801ED91FC91028085
:1013B000F381E02DBE016F5F7F4FC801099597FD56
:1013C00004C0F80100851185ECCF89810F90DF9171
:1013D000CF911F910F910895615030F02091F1004D
:1013E000FC0120830196F8CF289884E680937F0142
:1013F0000895AF92BF92CF92DF92EF92FF920F9338
:101400001F93CF93DF936C017B018B01040F151F9A
:10141000EB015E01AE18BF08C017D10759F0699102
:10142000D601ED91FC910190F081E02DC601099566
:10143000892B79F7C501DF91CF911F910F91FF9013
:10144000EF90DF90CF90BF90AF9008953FB7F894A2
:101450008091610190916201A0916301B09164015A
:1014600026B5A89B05C02F3F19F00196A11DB11DFF
:101470003FBFBA2FA92F982F8827BC01CD01620F3B
:10148000711D811D911D42E0660F771F881F991FF6
:101490004A95D1F708958F929F92AF92BF92CF92C3
:1014A000DF92EF92FF926B017C010E94260A4B01B2
:1014B0005C01C114D104E104F104B9F00E94260AD0
:1014C000681979098A099B09683E7340810591056D
:1014D00080F321E0C21AD108E108F10888EE880EF5
:1014E00083E0981EA11CB11CE4CFFF90EF90DF9029
:1014F000CF90BF90AF909F908F9008958F929F92C2
:10150000AF92BF92CF92DF92EF92FF920F931F9311
:10151000CF93DF936C017B018A0180910F018823B7
:1015200009F45CC080918001882309F457C0809140
:10153000720180FF05C08091E00082608093E0002E
:10154000E801B12C8AEFA82E93E0892E2AE3922E8F
:10155000209711F4BB20D9F10E94C10881110AC063
:10156000AA94AA20D9F161E070E080E090E00E94A6
:101570004B0AEECF8C171D0611F00CF08C2F9FB785
:10158000F8948092E9002091E80025FD02C09FBFF9
:10159000DFCF282F30E0C21BD30BF701815020F0A2
:1015A00041914093F100FACFE20EF31EBB2021F0EF
:1015B0009092E800B12CEBCF8091E80085FDE7CF59
:1015C0009092E800BB24B394209709F3F3CF5D9881
:1015D00084E680937101101611063CF081E090E0E2
:1015E000F6019383828310E000E0C801DF91CF9180
:1015F0001F910F91FF90EF90DF90CF90BF90AF9031
:101600009F908F900895CF92DF92EF92FF921F9359
:10161000CF93DF93E82FF0E0EC5EFE4F1081E62FD2
:10162000F0E0603398F5E95EF24FE491CE2FD0E020
:10163000F12CE12C60E074E284EF90E0A7019E01C0
:101640000E94BB19215031094109510991E021152E
:10165000310581E0480751056CF060E970ED83E0E9
:1016600090E0A7019E010E94BB1921503109410958
:10167000510993E0113089F0133039F1DF91CF91A6
:101680001F91FF90EF90DF90CF900895EE0FFF1F16
:10169000E95EF34FC591D491CBCF80918701811141
:1016A000EDCF80918100887F892B809381003093DA
:1016B0008900209388001092850010928400809108
:1016C0006F00826080936F00D9CF80919100887FF6
:1016D000892B809391003093990020939800109269
:1016E000950010929400D0935F01C0935E0181E059
:1016F00080935D0180917100826080937100BECF04
:10170000E82FF0E0EC5EFE4F8081813019F08330ED
:10171000A9F008958091870181110FC080916F0019
:101720008D7F80936F0080915001E0914E01F09188
:101730004F019081809589238083089510925D01E7
:10174000809185018111F9CF80915B01E091590170
:10175000F0915A01EECF90918801923009F471C056
:10176000292F30E0F901EC5EFE4F4081245B3E4FB3
:10177000F9018083913031F420914C01281302C08B
:10178000909351019F5F9093880190E0FC01E85A8B
:10179000F34F2491875C934FFC01849130E0220F3A
:1017A000331FF901E55DF34F65917491F901E35E33
:1017B000F34FA591B4919C91982B9C93413019F0D3
:1017C0004330D9F0089590916400977F909364001E
:1017D0001092800010928100909181009860909307
:1017E00081009091810091609093810070934F01EE
:1017F00060934E0180935001089590916500977F0A
:101800009093650010929000109291009091910039
:1018100098609093910090919100916090939100C5
:1018200070935A016093590180935B018091880104
:10183000882321F06CE380E00E94030B80E00C948D
:10184000800B08952D9A0895BC0190E080E00C94DF
:101850004B0A8FB18095807F669B88601C9B84605B
:10186000089510924B013E983F9808953E9A3F9AF2
:1018700081E080934B01089520E191E061FD94E0C7
:1018800060FD990F62FD9295687F269FD00111241B
:10189000A80FA757BE4F8C9140FF03C0892B8C9394
:1018A000089590958923FBCF2F923F924F925F929C
:1018B0006F927F928F929F92AF92BF92CF92DF9260
:1018C000EF92FF920F931F93CF93DF93CDB7DEB7C5
:1018D00028970FB6F894DEBF0FBECDBF9E838D83D1
:1018E0006A3061F5DC0155968C91B8E08B9F9001D0
:1018F0001124ED81FE8181899289820F931F928B41
:10190000818B108A178681E090E028960FB6F894B4
:10191000DEBF0FBECDBFDF91CF911F910F91FF9022
:10192000EF90DF90CF90BF90AF909F908F907F907F
:101930006F905F904F903F902F9008956D3019F306
:101940002D813E8138872F83D9011F960D911C91DF
:101950005097003811050CF07CC05196AD90BC90AA
:10196000B0E4AB16B1040CF074C0F901258825E091
:10197000C801229E800D911D1124181619060CF025
:1019800068C0622C712CC30133E0880F991F3A950F
:10199000E1F78A0D9B1D181619060CF05AC0F48940
:1019A000FB83AF81B8855396BC91BC83629FB00125
:1019B0001124FB01E35EF84F2F011982F20184919B
:1019C000F981F53009F480E0450128E02A83A82F49
:1019D000B0E0BE83AD833C8080FF3B80311004C00B
:1019E000BB81EC81BE17F9F078018E2D801B82152A
:1019F000D0F4D12CC12CC21490F4F0E8EF16F1040D
:101A000050F4B601680D791D6034710520F4432D42
:101A1000C7010E943C0C2FEFC21AD20AECCF3FEF55
:101A2000E31AF30AE2CF8D819E81959587959A817D
:101A300091509A83860C971C9111C9CFA981AF5FF1
:101A4000A983BFEF4B1A5B0A060D171DA63009F0DC
:101A5000B5CFEF81F8852589422F50E087859089A1
:101A6000F6E02F9F800D911D1124AF81B88550960F
:101A70009C938E931F9756962C915697222309F488
:101A800042CF6AEF64039001659F300D1124205806
:101A90003F4F281739070CF036CFED91FC91119785
:101AA0000190F081E02D6AE0CD0109952CCF0895D9
:101AB000089590E080E008950F93809103018823BA
:101AC00021F0109248011092030106E12BE24CEA4A
:101AD00050E065E170E08AE290E00E947A07809130
:101AE000EB079091EC076CE370E00E941E1A892BC3
:101AF00029F4809148018F5F8093480180914801CB
:101B0000843028F48CE00E946F07882329F081E05C
:101B100080936A01809303010F9108950F931F939F
:101B2000CF93DF93FC01EF5FFD4F408150E030E049
:101B300020E08C011E5F24173507BCF4D801EC911E
:101B4000E20FF32FF11DFF27EE0FFF1FE80FF91F24
:101B5000D081DB01CC91DC1305C0F1811196EC91B1
:101B6000FE1749F02F5F3F4FE6CF80E0DF91CF9126
:101B70001F910F91089581E0F9CF8F929F92AF92BC
:101B8000BF92CF92DF92EF92FF928090FD07912C4F
:101B9000B12CA12CC090FF07D12C8FEFC81AD80A06
:101BA0000D2C000CEE08FF08C814D904EA04FB044D
:101BB0008CF48C189D08AE08BF0841F00E944D19A6
:101BC000A50194010E94BB194B015C01C80CD91CF2
:101BD000EA1CFB1CC092DB058090FE07912CB12C07
:101BE000A12CC0900008D12C8FEFC81AD80A0D2C58
:101BF000000CEE08FF08C814D904EA04FB048CF4B6
:101C00008C189D08AE08BF0841F00E944D19A5012F
:101C100094010E94BB194B015C01C80CD91CEA1C41
:101C2000FB1CC092DC05FF90EF90DF90CF90BF903F
:101C3000AF909F908F9008950F93CF93DF938091F3
:101C40000301882331F1809103088093E10780919B
:101C500004088093E20783E08093E3078091FB0709
:101C60008093DD058091FC078093DE051092DF07ED
:101C70001092E0070E94BD0D10924A0188E097E0A3
:101C800090930201809301018AE0809300011092F9
:101C9000030180E80E946F078823A1F09091E1077B
:101CA00080910508981306C09091E207809106087C
:101CB000981741F0809107088093E1078091080808
:101CC0008093E20780E10E946F078823A1F0909142
:101CD000E10780910708981306C09091E207809170
:101CE0000808981741F0809105088093E1078091DA
:101CF00006088093E20780E20E946F078823A1F024
:101D00009091E10780910308981306C09091E20733
:101D100080910408981741F0809101088093E107B1
:101D2000809102088093E20780E40E946F07882375
:101D3000A1F09091E10780910108981306C090915D
:101D4000E20780910208981741F080910308809380
:101D5000E107809104088093E20784E00E946F0706
:101D6000882339F080914B01882309F487C00E94B1
:101D7000310C6091000170E08091EB079091EC07CD
:101D80000E941E1A892B09F04BC02091E007909108
:101D9000DD058091DE052F3F69F0E091DF07E20F5E
:101DA000F0E0EE0FFF1FE352FA4F928383832F5F21
:101DB0002093E0072091E107920F9093DD05209199
:101DC000E207820F8093DE052091E307222309F4C6
:101DD00058C021502093E3072091DB05291320C030
:101DE0009091DC0598131CC08091E3078F5F80936E
:101DF000E30780914A018F5F80934A010E94BD0DE5
:101E00006BED75E08FED95E00E948E0D8111F6CFA0
:101E10004AE050E060E070E080E092E00E9442081A
:101E20006DED75E08FED95E00E948E0D811137C04C
:101E30008091DD059091FF07981788F59091FD0737
:101E4000891768F58091DE0590910008981738F59C
:101E50009091FE07891718F5EBE8F1E09DE79150A6
:101E600009F03FC0EBE0F5E09DE7915009F43FC079
:101E70008191DF01119780628C93F7CF0E94360C1D
:101E800078CF2091E007222309F4A6CF3091DF0715
:101E90003F5F3093DF0721502093E0079DCF81E023
:101EA0008093030183E080936A0180910101909106
:101EB000020101979093020180930101892B69F43B
:101EC00080910001863018F081508093000188E0F5
:101ED00097E09093020180930101DF91CF910F91E0
:101EE00008958191DF01119784608C93B8CFC2E08F
:101EF000D0E041E0BE0182E090E00E943C0C2196DF
:101F0000CE33D105B1F7C2E0D0E041E0BE018DE7AC
:101F100090E00E943C0C2196CE33D105B1F7609140
:101F2000DE0534E0639FB00111248091DD0504E0FB
:101F300024E044EF55E034E0839FC00111240E9467
:101F40007A07D0E0C0E08091E0078C171D06D9F039
:101F5000D4F0E091DF07EC0FF0E0EE0FFF1FE3524B
:101F6000FA4F638134E0639FB0011124828104E061
:101F700024E044EF55E034E0839FC00111240E9427
:101F80007A072196E0CF6091DC0584E0689FB0017C
:101F900011248091DB0504E024E040EF55E034E0BB
:101FA000839FC00111240E947A077FCF0C94A5194A
:101FB0000E94381A0F931F93CF93DF9300D000D065
:101FC000CDB7DEB709E228E340EA54E070E060E014
:101FD00084E390E00E947A078091EB079091EC07F0
:101FE0006CE370E00E941E1A892B29F4809148014D
:101FF0008F5F8093480180914801837000E424E35F
:1020000040E053E011F040E651E070E060E090E025
:1020100080E00E947A0706E028E248E351E06CE2A3
:1020200070E08CE390E00E947A078091650191E076
:102030009093F90726E430E03093F4072093F307F8
:1020400026E330E03093F6072093F5071F928F9335
:1020500083E491E09F938F938E010F5F1F4F1F9337
:102060000F930E943D1AF80101900020E9F7319783
:10207000AF01401B510BB80184EE97E00E94F909B3
:1020800010914B010F900F900F900F900F900F90A9
:1020900011110AC007E02BE04DE251E070E060E072
:1020A00084E790E00E947A070E94290C84718431B1
:1020B000E1F480916501882379F044E150E060E02B
:1020C00070E089EA91E00E9442081092650160E0A8
:1020D0008FE690E00E94AD190F900F900F900F9037
:1020E000DF91CF911F910F91089584E00E946F07B7
:1020F000882341F0112319F00E94310CEDCF0E948A
:10210000360CEACF88E00E946F07882329F344E168
:1021100050E060E070E089EA91E00E94420882E0CD
:1021200080936A01D9CF0F931F93CF93DF9300D091
:1021300000D0CDB7DEB7809103018823B1F1609163
:102140004A0180916501861708F09EC06093650181
:102150008FE690E00E94AD1981E08093490142E34F
:1021600050E060E070E084EF91E00E94420860E59A
:1021700070E080E090E00E944B0A42E350E060E0B3
:1021800070E080E293E00E94420860E570E080E049
:1021900090E00E944B0A44E650E060E070E08CE47E
:1021A00094E00E944208109203018091EB07909105
:1021B000EC076EE170E00E941E1A892B29F48091D1
:1021C00048018F5F8093480100E124E745E356E032
:1021D00068E070E086E090E00E947A0780914A0112
:1021E00092E09093F90720E330E03093F4072093D6
:1021F000F30720E230E03093F6072093F5071F92B3
:102200008F9383E491E09F938F938E010F5F1F4F15
:102210001F930F930E943D1AF80101900020E9F7E7
:102220003197AF01401B510BB80184EE97E00E943B
:10223000F9090F900F900F900F900F900F908091D1
:102240004901882371F08091480180FD0AC006E0B1
:102250002DE348EF55E068E370E081E290E00E94F2
:102260007A078CE00E946F07882329F081E0809331
:10227000030180936A010F900F900F900F90DF91F0
:10228000CF911F910F9108951092490140E550E0C0
:1022900060E070E08CE494E00E94420864E670E044
:1022A00080E090E00E944B0A40E550E060E070E082
:1022B00088EE93E00E94420864E670E080E090E0DF
:1022C0000E944B0A44EF51E060E070E084EF91E03F
:1022D00068CF1F920F920FB60F9211248F939F9386
:1022E0008091E1009091E100937F9093E10083FF62
:1022F0000FC01092E90091E09093EB001092EC0077
:1023000092E39093ED001092800198E09093F0009A
:1023100082FF22C093E09093E9009091F20099230C
:1023200019F09AE39093E80090917101992341F09C
:1023300090917101915090937101911101C05D9A3A
:1023400090917F01992341F090917F01915090935A
:102350007F01911101C0289A84FF18C08091E2008A
:102360008E7E81608093E2008091E1008F7E809379
:10237000E100809172018E7E8061809372019F9155
:102380008F910F900FBE0F901F90189580FFF7CF81
:102390008091E2008E7E80618093E2008091E10076
:1023A0008E7E8093E100809172018E7E8160E5CF08
:1023B0001F920F920FB60F921124CF92DF92EF92DD
:1023C000FF920F931F932F933F934F935F936F93BE
:1023D0007F938F939F93AF93BF93EF93FF93CF938D
:1023E000DF93CDB7DEB76C97DEBFCDBF1092E900AB
:1023F0008091E80083FF25C068E0CE0145960E94E9
:10240000EC0982EF8093E8008D8987FF39C09091B5
:10241000E80090FFFCCF982F907609F034C19E8998
:102420004F89588D2F89F88C911131C0803861F512
:10243000809170018093F1001092F1008EEF8093F3
:10244000E8006C960FB6F894DEBF0FBECDBFDF91EB
:10245000CF91FF91EF91BF91AF919F918F917F911C
:102460006F915F914F913F912F911F910F91FF902D
:10247000EF90DF90CF900F900FBE0F901F901895A8
:102480009EEF9093E800C7CF1092F100D5CF913026
:1024900059F48111D3CF4130510581F680917001FB
:1024A0008D7F80937001CACF933049F48111C6CFDC
:1024B0004130510519F6809170018260F2CF95305C
:1024C00041F48091E80080FFFCCF20682093E30076
:1024D000B5CF963009F0A9C00B8D1C8D22E010926B
:1024E000E90010926E0110926D01F2122EC010924E
:1024F0006C0110926B010E94BB091F8299E09983C5
:10250000FA8291E09E8390EA98879AEF99872091CA
:102510006D0130916E01275F3F4F3C832B838D838C
:102520001092E90010926E0110926D0110936C01EF
:1025300000936B0149E050E0BE016F5F7F4F80E088
:102540000E9495090E94BB0979CF10936C010093FA
:102550006B010E94D208DC0112960D911C910115AD
:10256000110509F451C1D801ED91FC910480F58168
:10257000E02DBE016B5E7F4FC8010995009709F001
:102580003EC1F80100851185EACFF3E0FF120EC0CD
:102590008F89882309F440C0823061F440E860E10B
:1025A00080E79EE00E94AE15811148CF81E28093C2
:1025B000EB0047CF813029F440E86BE084E69EE0F1
:1025C000F1CF833099F70E94D208DC011296ED908A
:1025D000FC908E010F5F1F4F6801E114F10479F048
:1025E000D701ED91FC910680F781E02DB801C7017C
:1025F0000995080F111DF701E084F184EECFD80191
:102600001C92F60101900020E9F73197BF016C1987
:102610007D0940E0C601C6CF6EE47EE0FB01449137
:1026200050E080E80E94950909CF973009F4BECFA9
:10263000983021F481E08093F10000CF993009F0C7
:10264000FDCE837009F0B2CFE7E1F1E081E031E047
:1026500096E32191222371F08093E9003093EB00FF
:10266000DF0111972C912093EC009093ED008F5F88
:10267000873079F78EE78093EA001092EA008F891D
:1026800080938001DBCE8B8D9C8D1092E90010929F
:102690006E0110926D0190936C0180936B01898D96
:1026A000811192C08E899D89913A49F4813209F055
:1026B0007DCF47E050E068E071E080E0B3CF913239
:1026C00009F074CF833269F48F89988DB0E0A0E06F
:1026D0008093040190930501A0930601B093070134
:1026E000ADCE803269F48091E80082FFFCCF67E0D4
:1026F00088E091E00E94EC098BEF8093E8009ECE89
:10270000823209F09BCE8F8980930F01EEEFFFE7B5
:10271000859194918B3F9C4D51F1E0E0F8E08091E0
:10272000080190910901A0910A01B0910B01803B31
:102730009440A105B105F1F480910F0180FD1AC00C
:10274000EE3F8AE0F80789F587E797E79183808372
:102750008091600080936F0188E19BE00FB6F89450
:10276000A895809360000FBE9093600067CEEEEF57
:10277000FAE0D5CF808191818737974709F05ECE07
:10278000A8958091600088618093600080916F01BE
:1027900080936000EE3F2AE0F20789F08091FE0A04
:1027A0009091FF0A9183808349CE80819181873700
:1027B000980751F29093FF0A8093FE0AC5CF1092BA
:1027C000FF0A1092FE0A3ACE0E94D208DC0112964D
:1027D0000D911C910115110509F4E8CED801ED9178
:1027E000FC910190F081E02DBE016B5E7F4FC8012E
:1027F0000995811123CEF80100851185EBCF1816BC
:1028000019060CF41BCED2CEF1E0FF12BECE62E56B
:102810007EE004CF1F920F920FB60F9211242F93D8
:102820003F938F939F93AF93BF9380916601909155
:102830006701A0916801B09169013091600123E0C6
:10284000230F2D3758F50196A11DB11D209360016E
:102850008093660190936701A0936801B09369012A
:102860008091610190916201A0916301B091640136
:102870000196A11DB11D8093610190936201A09307
:102880006301B0936401BF91AF919F918F913F918C
:102890002F910F900FBE0F901F90189526E8230FD1
:1028A0000296A11DB11DD2CF1F920F920FB60F92AB
:1028B00011242F933F934F935F936F937F938F9345
:1028C0009F93AF93BF93CF93DF93EF93FF93809149
:1028D0005D01882389F08091850181110DC080916F
:1028E0005C01811109C090915B01E0915901F09167
:1028F0005A0180818927808380915801882309F4B7
:102900009CC08091540190915501A0915601B091C5
:102910005701892B8A2B8B2B09F48FC0809154018E
:1029200090915501A0915601B09157010197A109CD
:10293000B1098093540190935501A0935601B0932F
:102940005701892B8A2B8B2B09F077C0D1E0E091BE
:102950005201F0915301AF014F5F5F4F509353010C
:10296000409352012491822F807FC22FCF708038F4
:1029700021F48C2F0E94800BEACF803919F5E09169
:10298000D905F091DA0509958D2780935C01E091D6
:102990005201F0915301CF0101969093530180931E
:1029A0005201649180918801C81788F6C13021F4E2
:1029B000809151018111CBCF67FDC9CF8C2F0E942F
:1029C000030BC5CF87FD4CC03296F0935301E093C3
:1029D0005201FA014491A0915E01B0915F01322F42
:1029E000242F0E940F1A6C507E4F8F4F9F4F28EE5E
:1029F00033E040E050E00E94ED1920935401309301
:102A00005501409356015093570180915401909184
:102A10005501A0915601B0915701892B8A2B8B2B20
:102A200061F481E090E0A0E0B0E0809354019093E5
:102A30005501A0935601B0935701FF91EF91DF919B
:102A4000CF91BF91AF919F918F917F916F915F9146
:102A50004F913F912F910F900FBE0F901F9018959F
:102A6000803E29F4109253011092520170CF803FA2
:102A700009F06DCF10925801E0CF1F920F920FB660
:102A80000F9211248F939F93AF93BF93EF93FF9374
:102A900080918701882309F454C08091810190912D
:102AA0008201A0918301B0918401892B8A2B8B2B09
:102AB000A1F190915001E0914E01F0914F01808180
:102AC000892780838091810190918201A091830167
:102AD000B0918401181619061A061B069CF4809101
:102AE000810190918201A0918301B09184010197AD
:102AF000A109B1098093810190938201A093830180
:102B0000B0938401FF91EF91BF91AF919F918F910D
:102B10000F900FBE0F901F90189510928501109284
:102B2000870180916F008D7F80936F0080915001AD
:102B3000E0914E01F0914F0190818095892380832F
:102B4000E1CF80915C018111DDCF90915001E09146
:102B50004E01F0914F0180818927F1CFEF92FF92D2
:102B60000F931F93CF93DF93F82E192FE62E042F88
:102B700081E0860F880F0E94670983E00E94670941
:102B8000CF2DD12FEC0EFD2EF11CCE15DF05B9F0A7
:102B900007FF13C0FE0184910E946709182F80E08F
:102BA0000E946709812321968111EFCFDF91CF9198
:102BB0001F910F91FF90EF9008958881EDCF81E0F4
:102BC000F5CF0F931F93CF93DF938C0181E090E0BB
:102BD0000E94D60F80FF32C08AE090E00E94D60F9C
:102BE0009FEF980F9E3F50F522E330E0D8015096BA
:102BF0003C932E931F9728E330E052963C932E93FC
:102C00005197CBE0D0E0D801ED91FC910190F0819B
:102C1000E02D682FC8010995CE010E94D60F21969C
:102C2000C131D10581F780E00E94330888EE93E03E
:102C3000DF91CF911F910F910C94240CDF91CF91D4
:102C40001F910F91089504970C94E11510928C0533
:102C500010928B0588EE93E0A0E0B0E080938D05A4
:102C600090938E05A0938F05B093900581E291E03B
:102C700090938A05809389058FEF9FEF9093960537
:102C800080939505109207089FEF90930808109283
:102C9000050881E0809306088093030810920408D9
:102CA00090930108109202081092FF0710920008FA
:102CB0009FE19093FD079FE09093FE0792E1909330
:102CC000FB0798E09093FC071092E7071092E60745
:102CD0001092ED071092EE0790E19093EF0710929B
:102CE000EC071092EB071092F10723E331E03093E9
:102CF000E5072093E40721E431E03093E9072093CE
:102D0000E8071092F4071092F3071092F60710925A
:102D1000F5078093F7071092F8078093F907109250
:102D2000FA078CE697E09093DA058093D905109224
:102D3000DD051092DE05EFEDF5E08FED97E01082F6
:102D4000118232968E179F07D1F71092DF071092EB
:102D5000E0071092E1071092E2071092DB05109253
:102D6000DC050895789484B5826084BD84B5816063
:102D700084BD85B5826085BD85B5816085BD809146
:102D80006E00816080936E001092810080918100BE
:102D900082608093810080918100816080938100B6
:102DA000809180008160809380008091910082609A
:102DB0008093910080919100816080939100809137
:102DC00090008160809390008091C1008460809326
:102DD000C1008091C10082608093C1008091C100D8
:102DE00081608093C1008091C30081608093C300A3
:102DF0008091C00082608093C0008091C200816099
:102E00008093C20080917A00846080937A008091E0
:102E10007A00826080937A0080917A00816080934A
:102E20007A0080917A00806880937A001092800105
:102E300010927001109272018091D700816080938E
:102E4000D70080EA8093D80089B5806189BD89B5B3
:102E5000826089BD09B400FEFDCF61E070E080E0D2
:102E600090E00E944B0A8091D8008F7C8061809313
:102E7000D8008091E000807F8093E0008091E100A5
:102E80008E7E8093E1008DE08093E200559A209A37
:102E900081EC80937C0085B1806F85B984B1877E99
:102EA00084B984B1876E84B95E9A5F988AB1806D67
:102EB0008AB9769A6E9881B3806F81BB899880B306
:102EC0008D7080BB80E58CBD81E08DBD85E090E09C
:102ED0000E94240C5F9A85E090E00E94240C5E988A
:102EE0005C98E7EFFDE084918EBD00000DB407FE15
:102EF000FDCF31960EE0E430F007A9F75C9A81E847
:102F0000809364008091650081608093650080E01B
:102F10000E9433080E94290C87FF15C05C9885EA3F
:102F20008EBD00000DB407FEFDCF5C9A2E982F9841
:102F30002D988091640080628093640081E083BF5B
:102F4000889513BEFCCF0E94290C82FF48C02D98A3
:102F50000E94290C84788438E1F40E94220C88ECC9
:102F600090E00E94240C2F9882E090E00E94A51926
:102F70008F3F29F06FEF82E090E00E94AD1984EF5F
:102F800091E00E94240C2F9A0E94290C84788438A6
:102F9000D9F30E94290C84718431E1F40E94220C3F
:102FA00088EC90E00E94240C2E9882E090E00E9431
:102FB000A519882329F060E082E090E00E94AD1915
:102FC00084EF91E00E94240C2E9A0E94290C8471B7
:102FD0008431D9F388EC90E00E94240CB4CF0E9495
:102FE000220C82E090E00E94D60F882309F496C05C
:102FF0000E94360C81E090E00E94D60F182F1470CA
:1030000081FF0CC011112E98C1EFDFEF0E94290C37
:1030100086FF87C02E9A2F9A0E94220C82E390E0AE
:103020000E94240C0E94290C8111F8CF85E00E9497
:10303000AB0B8DE00E94AB0B80E18093EF0780919A
:1030400064008E7F8093640080917A008064809316
:103050007A0080917A0086FDFCCFC0917800D091F3
:1030600079000E94260AAB01BC01CE01B0E0A0E0CD
:10307000DC01992788278C019D01040F151F261F4D
:10308000371FC901B80120916400216020936400BA
:10309000611571058105910511F00E949C198FE65B
:1030A00090E00E94D60F809365018F3F69F41092E3
:1030B00065018FE690E00E94A519882329F060E061
:1030C0008FE690E00E94AD1981E080930301109299
:1030D0006A01EE24E39409E811E0C0E0D0E0DD24C9
:1030E000D3948FB7F8944091660150916701609135
:1030F0006801709169018FBF8091F007242F281B10
:10310000822FF090F107FF20D1F12093F207109267
:10311000F107209731F30E940000E3CF0E94310CA9
:1031200069CF112329F0C430D10511F42E9A2F98BC
:1031300081E00E94330800E128E547E45DE0BE013C
:1031400084E190E00E947A0780E00E9433088FE0DB
:1031500090E00E94240C2196C931D10509F056CF88
:10316000112311F02F9A2D9880E991E00E94240CF0
:103170000E94220C84EE97E00E94E1154FCF9091BF
:10318000EF07291738F48F5F891718F6E3BE889583
:1031900013BEBFCFD092F1074093F0078091EB07A9
:1031A0009091EC0701969093EC078093EB07809148
:1031B000ED078093EE070E94290C8093ED078F2D79
:1031C000F80181118FEF0024819381938193819382
:1031D0000394D1F71092F6071092F5071092F407B6
:1031E0001092F307E0916A01F0E0EE0FFF1FEC5F31
:1031F000F14F85919491FC01099580E00E9433087C
:1032000088CF8F929F92AF92BF92CF92DF92EF9230
:10321000FF92CF93DF93EC01688179818A819B8152
:10322000611571058105910521F464E279ED8BE565
:1032300097E02DE133EF41E050E00E94BB194901D6
:103240005A019B01AC01A7EAB1E40E94DA196B01B3
:103250007C01ACEEB4EFA50194010E94E819C60E02
:10326000D71EE81EF91EF7FE06C081E0C81AD10875
:10327000E10880E8F80AC882D982EA82FB82C701A5
:10328000B6019F77DF91CF91FF90EF90DF90CF90C5
:10329000BF90AF909F908F9008958F929F92AF9222
:1032A000BF92CF92DF92EF92FF92609110017091E6
:1032B0001101809112019091130161157105810531
:1032C000910521F464E279ED8BE597E02DE133EF90
:1032D00041E050E00E94BB1949015A019B01AC0139
:1032E000A7EAB1E40E94DA196B017C01ACEEB4EFFD
:1032F000A50194010E94E819C60ED71EE81EF91E0A
:10330000F7FE06C081E0C81AD108E10880E8F80A93
:10331000C0921001D0921101E0921201F0921301BB
:10332000C701B6019F77FF90EF90DF90CF90BF90DD
:10333000AF909F908F90089560931001709311014A
:1033400080931201909313010895F999FECF92BDD5
:1033500081BDF89A992780B50895262FF999FECF57
:103360001FBA92BD81BD20BD0FB6F894FA9AF99AA2
:103370000FBE01960895052E97FB1EF400940E943F
:10338000D21957FD07D00E94ED1907FC03D04EF467
:103390000C94D21950954095309521953F4F4F4F41
:1033A0005F4F089590958095709561957F4F8F4FF1
:1033B0009F4F08950E940F1AA59F900DB49F900DE6
:1033C000A49F800D911D11240895B7FF0C94DA1964
:1033D0000E94DA19821B930B0895A1E21A2EAA1BF0
:1033E000BB1BFD010DC0AA1FBB1FEE1FFF1FA217B5
:1033F000B307E407F50720F0A21BB30BE40BF50BB2
:10340000661F771F881F991F1A9469F7609570953A
:10341000809590959B01AC01BD01CF010895A29FBD
:10342000B001B39FC001A39F700D811D1124911D98
:10343000B29F700D811D1124911D0895AA1BBB1B05
:1034400051E107C0AA1FBB1FA617B70710F0A61BA4
:10345000B70B881F991F5A95A9F780959095BC01C5
:10346000CD010895EE0FFF1F0590F491E02D099412
:1034700081E090E0F8940C94151DAEE0B0E0E3E438
:10348000FAE10C94EC1C0D891E8986E08C831A836A
:1034900009838FEF9FE79E838D83AE01475E5F4F69
:1034A0006F89788DCE0101960E94601A2F81388530
:1034B000020F131FF80110822E96E4E00C94081DF1
:1034C000ABE0B0E0E6E6FAE10C94DE1C7C013B01E7
:1034D0008A01FC0117821682838181FFC8C1CE0157
:1034E00001965C01F7019381F30193FD859193FFB0
:1034F00081913F01882309F453C1853239F493FD4A
:10350000859193FF81913F01853229F4B70190E0C5
:103510000E94501CE7CF912C212C312CFFE1F31598
:1035200038F08B3211F190F4803209F1833229F1B5
:1035300037FC3CC020ED280F2A3050F536FE20C065
:103540008AE0989E200D1124922E06C08D3291F0B3
:10355000803371F7689430F8F30193FD859193FF00
:1035600081913F018111DACF21C0689431F86894CC
:1035700032F8F2CF689433F8EFCF689434F8ECCF98
:10358000EAE02E9E200D1124222E689435F8E4CF17
:103590008E3229F436FC04C1689436F8DDCF8C36BF
:1035A00019F4689437F8D8CF8836B1F2982F9F7DF8
:1035B00095549330E0F08336A1F18337C1F1833520
:1035C00009F063C02801F2E04F0E511CF801C080E1
:1035D000D180692D70E036FC02C06FEF7FEFC6012D
:1035E0000E943A1C4C01689437F882010AC00C5FB3
:1035F0001F4FFFE3F98388248394912C6501E8949D
:1036000037F833FE2DC0522C8114910471F55520EA
:1036100009F468CFB70180E290E00E94501C5A94F0
:10362000F6CFF801808189830E5F1F4FE4CF280118
:10363000F2E04F0E511CF801C080D180692D70E07E
:1036400036FC02C06FEF7FEFC6010E94451C4C01A3
:103650008201D5CFB70180E290E00E94501C2A94ED
:103660002814190409F0B0F7CECFF60137FC859184
:1036700037FE81916F01B70190E00E94501C5110FC
:103680005A94F1E08F1A9108BFCF843619F0893629
:1036900009F077C0F80137FE6BC0608171818281CB
:1036A00093810C5F1F4FF32DFF763F2E97FF09C0CC
:1036B00090958095709561957F4F8F4F9F4F68943F
:1036C00037F82AE030E0A5010E94801CC82ECA18F5
:1036D0008C2C432C36FE0CC0E89440F8C91440F4FE
:1036E00034FE05C032FC03C0F32DFE7E4F2E892C24
:1036F00044FE95C0FE01EC0DF11D8081803309F080
:1037000087C0242D297E422E842D8870582E43FC9C
:1037100095C040FE8FC09C2C821418F42C0C922C67
:10372000981844FE91C0B70180E390E00E94501CBD
:1037300042FE09C088E790E041FE02C088E590E0C3
:10374000B7010E94501CC91408F48AC0CA94D12C35
:103750009FEFC91AD90ACA0CDB1CF60182916F01CE
:10376000B70190E00E94501CAC14BD04B1F74FCFDC
:1037700060817181072E000C880B990B0E5F1F4F23
:1037800092CFD32CE894D4F82AE030E0853739F191
:10379000232D297FD22E8F3601F148F48835A9F0E8
:1037A000F701868197812B96E2E10C94FA1C803711
:1037B00049F08837A9F7D4FE02C06894D2F820E116
:1037C00030E00DC06894D4F8F6CF34FE03C0822FE9
:1037D0008660D82E20E132E002C028E030E0F80117
:1037E000D7FE0FC060817181828193810C5F1F4F72
:1037F000A5010E94801CC82ECA183D2CE89437F8F9
:1038000067CF6081718190E080E00E5F1F4FF0CF45
:1038100042FC02C0839478CF8394839475CF842D27
:10382000867809F471CFF6CFB70180E290E00E946C
:10383000501C83948214C0F3512C73CF522C58180F
:10384000821408F46ECFF8CF842D867809F47BCFEC
:103850008BE241FE80E247FC8DE2B70190E071CF40
:10386000B70180E390E00E94501C9A946CCF8FEFD8
:103870009FEF99CFFC010590615070400110D8F77F
:10388000809590958E0F9F1F0895FC0161507040A8
:1038900001900110D8F7809590958E0F9F1F089585
:1038A0000F931F93CF93DF93182F092FEB018B8179
:1038B00081FD09C01FEF0FEF812F902FDF91CF9176
:1038C0001F910F91089582FF14C02E813F818C813A
:1038D0009D81281739073CF4E881F981CF010196D1
:1038E0009983888310838E819F8101969F838E8325
:1038F000E3CFE885F985812F0995892BA1F3DACFEC
:10390000FA01AA27283051F1203181F1E8946F9310
:103910006E7F6E5F7F4F8F4F9F4FAF4FB1E03ED0B6
:10392000B4E03CD0670F781F891F9A1FA11D680F54
:10393000791F8A1F911DA11D6A0F711D811D911D87
:10394000A11D20D009F468943F912AE0269F1124FC
:103950003019305D3193DEF6CF010895462F477060
:10396000405D4193B3E00FD0C9F7F6CF462F4F70BB
:10397000405D4A3318F0495D31FD4052419302D019
:10398000A9F7EACFB4E0A6959795879577956795BF
:10399000BA95C9F700976105710508959B01AC01BF
:1039A0000A2E06945795479537952795BA95C9F7E6
:1039B000620F731F841F951FA01D08952F923F92C1
:1039C0004F925F926F927F928F929F92AF92BF922F
:1039D000CF92DF92EF92FF920F931F93CF93DF93DB
:1039E000CDB7DEB7CA1BDB0B0FB6F894DEBF0FBE38
:1039F000CDBF09942A88398848885F846E847D8485
:103A00008C849B84AA84B984C884DF80EE80FD8086
:103A10000C811B81AA81B981CE0FD11D0FB6F894FC
:0E3A2000DEBF0FBECDBFED010895F894FFCFBD
:103A2E000A080701FFFFFFFF00E100000000000091
:103A3E0001000000030100C18081000000000000B1
:103A4E0000E6087E0A0709FC084D090B0929090042
:103A5E00000000540CF909590D580DE115FCFF003A
:083A6E0000231625303375001A
:00000001FF
