:100000000C9400070C9428070C9428070C942807DC
:100010000C9428070C9428070C9428070C942807A4
:100020000C9428070C9428070C94F3100C9462117C
:100030000C9428070C9428070C9428070C94280784
:100040000C9428070C94C7140C9428070C942807C8
:100050000C9428070C9428070C9428070C949413EC
:100060000C9428070C9428070C9428070C94280754
:100070000C9428070C9428070C9428070C94280744
:100080000C94DE130C9428070C9428070C94280772
:100090000C9428070C9428070C9428070C94280724
:1000A0000C9428070C9428070C9428071C1C224148
:1000B0007F0022140814223F04043F003E001C224B
:1000C0002A3A003E08083E000026292910001C227A
:1000D00022001C22221C003E0A0A34003E2A220072
:1000E0000000000080C0C0E0F0F0F0F0E0E0C0C030
:1000F0008080000000000000000080C0F0F8FCFCE0
:10010000FCFEFEFEFEFE3C000000000000000000C1
:100110000000000000000000071F1F7FFFFFFEFC23
:10012000F9FBF7E7CFDF1F1F9EC8E0F838C4CFEF19
:10013000FFFFFFFFFFFFFFFFFFFFF8F0C000000021
:100140000000000000000000000000000000000FA0
:100150001FFFDF9F3FDFDFDFFFE0EEEEFFFFFFFC73
:10016000630FDFEFE7F7F7F7F7E7EFEFFFDFBF7FAB
:10017000FFCF008000000000000000000040408031
:100180000000005FBFFFDFDF3EF0FFFFFFFFFFFF6C
:10019000FFFFFFFFFCFF1FC7FB7D3FBFBFFEDEDF92
:1001A000CDE3E9CC07E9E7E5868600000000000022
:1001B00000000000017E7EFCFDFF3B1337610FFF56
:1001C000FFFFFFFF7F7F7FFFFFFFF003FDFEFF8745
:1001D00087030101010383CF506FEFEFDFDFE0C042
:1001E00000000000000000183CFCFCDFCBE7E8E862
:1001F000F0F8E8EFEDECEEEECE9F3E7EFEFCFDFF6C
:10020000F8FF7F373797CCE0341B090D0706060748
:1002100003030100000000000000007FFFFFFF7FDC
:100220007C3C9FDFDFDF9F3F7F7CFCFCFFFFFF60AC
:10023000673F9F472198E6F1F1FD010000000000B3
:1002400000000000000000000000000000000000AE
:1002500000000000384E3F010000060C08C80909E4
:10026000E9E5F4F6FAF9FDFEFF01FFFFFFFF0000EC
:10027000000000000000000000000000000000007E
:100280000000000080C0C0E0F0F0F0F0E0E0C0C08E
:100290008080000000000000000080C0F0F8FCFC3E
:1002A000FCFEFEFEFEFE3C00000000000000000020
:1002B0000000000000000000071F1F7FFFFFFEFC82
:1002C000F9FBF7E7CFDF1F1F9EC8E0F838C4CFEF78
:1002D000FFFFFFFFFFFFFFFFFFFFF8F0C000000080
:1002E0000000000000000000000000000000000FFF
:1002F0001FFFDF9F3FDFDFDFFFE0EEEEFFFFFFFCD2
:10030000630FDFEFE7F7F7F7F7E7EFEFFFDFBF7F09
:10031000FF0F0000000000000000000000000000CF
:100320000000001FBFFFDFDF3EF0FFFFFFFFFFFF0A
:10033000FFFFFFFFFCFF1FC7FBFDFFFFFFFEFEFFF0
:10034000FDFBEFDC3F78A020808020000000000053
:1003500020204010205C5C3E7FFFFF7FFF610FFF8D
:10036000FFFFFFFF7F7F7FFFFFFFF00FDFDFDFBFBC
:10037000BF3F1F1F2F2FA7D75169E2E8DFDFE0C083
:1003800000000000000000183CFCFCDFCBE6E8E8C1
:10039000F0F8E8EFEDECEEEECE9F3E7EFEFCFDFFCA
:1003A000F8FF7F373797CC60341B090D0706060727
:1003B00003030100000000000000007FFFFFFF7F3B
:1003C0007C3C9FDFDFDF9F3F7F7CFCFCFFFFFF600B
:1003D00067BFDFE7E104F2F9F9FC0000000000006C
:1003E000000000000000000000000000000000000D
:1003F00000000000000101010101010101FE0000F7
:10040000FFFFFEFFFFFFFFFFFF00FFFFFFFF0000FA
:1004100000000000000000000000000000000000DC
:100420000000C0FCFCF000000000F0FC1E0000F02A
:10043000F060000080E0606060E00000808080800C
:10044000800000000000000000000000000000002C
:1004500000000000000000000000FFFFFF070E1C6E
:100460009C8EBFFFFE003FFFFFF000070F1FFCF850
:10047000E0001C3E7FF1E18103030000000000006A
:10048000000000000000000000000000000000006C
:10049000003C1F0F03F8FEFFE7C1810303000C0FB0
:1004A0000700000C1C0E0F0780903030989F0F0340
:1004B0000000000000000000F0F0000080C04000DC
:1004C00000000000000000000000000000808181AA
:1004D000C3E3FF7F3E180080F03FCFFC0080FC7F2D
:1004E000070380FCFFC1E76E7CF0C0000000F8FF4E
:1004F0001FF8EC860301F0F83C3C1C0C04000000E3
:10050000C060703E1F07070703010000003C3E1F4C
:100510000F000F1F1E070100003C3F1F01010000DC
:1005200000070700381F07000000031F3E70077F09
:100530007F73713020000000000000000000000008
:1005400000000000000000000000000000000000AB
:10055000000000000000000000000000000000009B
:100560000000000000000000000000000000000685
:100570000F0F060F0F0F0F3F02043F003E2A22000D
:100580000E3008300E00003F04043F003E001C22E5
:100590002A3A003E08083E000026292910001C22A5
:1005A00022001C22221C003E0A0A34003E2A22009D
:1005B000002F002FF0F0FCFC0F0FCFCFCFCFCFCF0D
:1005C000000000F0F0FCFC0F0F0F0F0F0FFCFCF011
:1005D000F000FCFCFFFF3C3CF0F03C3CFFFFFCFC6F
:1005E00000FCFCFFFFCFCFCFCFCFCF0F0F0000001D
:1005F00000F0F0FCFC1F0F0F0F0F1FFCFCF0F000D1
:10060000FFFFFCFC000000000000FCFCFFFF00FC02
:10061000FCFFFFCFCFCFCFCFCF0F0F00FCFCFFFFF2
:100620000F0F0F0FFFFFFCFC0F0F3F3FF0F0F3F336
:10063000F3F3FFFF3F3F00FFFFFFFF0F0F0F0F0F11
:100640000FFFFFFFFF00FFFFFFFF0000030300009D
:10065000FFFFFFFF003F3FFFFFF3F3F3F3F3F3F080
:10066000F0000000000F0F3F3FF8F0F0F0F0F83F0F
:100670003F0F0F0003030F0F3F3FFCFC3F3F0F0FE7
:100680000303003F3FFFFFF3F3F3F3F3F3F0F00056
:10069000FFFFFFFF0F0F0F0FFFF8F8F8000000003B
:1006A000003E5B4F5B3E3E6B4F6B3E1C3E7C3E1CF8
:1006B000183C7E3C181C577D571C1C5E7F5E1C003E
:1006C000183C1800FFE7C3E7FF0018241800FFE7F5
:1006D000DBE7FF30483A060E2629792926407F05B8
:1006E0000507407F05253F5A3CE73C5A7F3E1C1CCE
:1006F00008081C1C3E7F14227F22145F5F005F5F8E
:1007000006097F017F006689956A60606060609479
:10071000A2FFA29408047E040810207E201008087E
:100720002A1C08081C2A08081E101010100C1E0C89
:100730001E0C30383E3830060E3E0E06000000001B
:100740000000005F00000007000700147F147F1402
:10075000242A7F2A12231308646236495620500047
:1007600008070300001C2241000041221C002A1C33
:100770007F1C2A08083E080800807030000808081E
:100780000808000060600020100804023E5149453E
:100790003E00427F400072494949462141494D335C
:1007A0001814127F1027454545393C4A49493141C3
:1007B000211109073649494936464949291E000091
:1007C00014000000403400000008142241141414E6
:1007D0001414004122140802015909063E415D59D2
:1007E0004E7C1211127C7F494949363E41414122DB
:1007F0007F4141413E7F494949417F090909013E05
:10080000414151737F0808087F00417F410020402B
:10081000413F017F081422417F404040407F021C3D
:10082000027F7F0408107F3E4141413E7F09090954
:10083000063E4151215E7F09192946264949493220
:1008400003017F01033F4040403F1F2040201F3FE6
:100850004038403F6314081463030478040361596B
:10086000494D43007F4141410204081020004141AD
:10087000417F040201020440404040400003070859
:100880000020545478407F28444438384444442855
:10089000384444287F385454541800087E090218FC
:1008A000A4A49C787F0804047800447D4000204084
:1008B000403D007F1028440000417F40007C0478C8
:1008C00004787C080404783844444438FC18242410
:1008D0001818242418FC7C08040408485454542490
:1008E00004043F44243C4040207C1C2040201C3C0D
:1008F0004030403C44281028444C9090907C446404
:10090000544C440008364100000077000000413696
:10091000080002010204023C2623263C1EA1A1611C
:10092000123A4040207A385454555921555579414E
:100930002154547841215554784020545579400C25
:100940001E52721239555555593954545459395506
:100950005454580000457C410002457D4200014549
:100960007C40F0292429F0F0282528F07C545545B6
:10097000002054547C547C0A097F49324949493249
:100980003248484832324A4848303A4141217A3A5E
:1009900042402078009DA0A07D39444444393D4028
:1009A00040403D3C24FF2424487E4943662B2FFCD5
:1009B0002F2BFF0929F620C0887E09032054547983
:1009C000410000447D413048484A32384040227A54
:1009D000007A0A0A727D0D19317D2629292F2826D1
:1009E0002929292630484D402038080808080808D9
:1009F0000808382F10C8ACBA2F102834FA00007B32
:100A0000000008142A142222142A14089500220037
:100A100095AA005500AAAA55AA55AA000000FF00F1
:100A2000101010FF00141414FF001010FF00FF102E
:100A300010F010F0141414FC001414F700FF000060
:100A4000FF00FF1414F404FC141417101F10101FDF
:100A5000101F1414141F00101010F0000000001FCD
:100A6000101010101F10101010F010000000FF10D8
:100A70001010101010101010FF10000000FF1400D4
:100A800000FF00FF00001F10170000FC04F4141406
:100A90001710171414F404F40000FF00F7141414D2
:100AA00014141414F700F7141414171410101F1052
:100AB0001F141414F4141010F010F000001F101F75
:100AC0000000001F14000000FC140000F010F010E3
:100AD00010FF10FF141414FF141010101F0000005A
:100AE00000F010FFFFFFFFFFF0F0F0F0F0FFFFFF5E
:100AF0000000000000FFFF0F0F0F0F0F38444438B5
:100B0000447C2A2A3E147E02020606027E027E02EF
:100B100063554941633844443C04407E201E20060E
:100B2000027E020299A5E7A5991C2A492A1C4C724B
:100B300001724C304A4D4D303048784830BC625AD2
:100B4000463D3E494949007E0101017E2A2A2A2A62
:100B50002A44445F444440514A444040444A51403E
:100B60000000FF0103E080FF000008086B6B0836FF
:100B700012362436060F090F060000181800000070
:100B80001010003040FF0101001F01011E00191D5F
:100B90001712003C3C3C3C0000000000000000003C
:100BA000240027002A002D0030000000000025004E
:100BB00028002B002E003100040802011040804064
:100BC0001020408040800802040180402010020173
:100BD0001080102040402004040404040304050293
:100BE00002020204030202020206060606060604C8
:100BF00004020202040406011501260137014A011C
:100C00005D01720188019F01B801D201EE010B0262
:100C10002A024B026E029302BA02E40210033F035F
:100C20007003A403DC03170455049704DD042705AF
:100C30007505C80520067D06E0064907B8072D089A
:100C4000A9082D09B9094D0AEA0A900B400CFA0CC3
:100C5000C00D910E6F0F5A1053115B1272139A143C
:100C6000D41520178018F519801B231DDE1EB42013
:100C7000A622B524E4263429A72B402E0031EA33DE
:100C80000037453ABC3D68414C456B49C84D6852F8
:100C90004F57805C006210111213151617181A1C9A
:100CA0001D1F21232527292C2E3134373A3E41455B
:100CB000494E52575C62686E757B838B939CA5AFDF
:100CC000B9C4D0DCE9F7F0F89C8E8783878E9CF856
:100CD000F00000FEFF0303030303070EFCF800000F
:100CE000FEFF0303030303070EFCF80000FFFF00F1
:100CF000000000000000FFFF0000FEFF83838383ED
:100D000083C7EE7C380000F8FC0E07030303070ED0
:100D1000FCF800003F7FE0C08080C0E07F3FFFFF25
:100D200001010101010101FFFF0000FFFF0C0C0C9C
:100D30000C1C3E77E3C100007FFFC0C0C0C0C0E014
:100D4000703F1F00001F3F70E0C0C0C0E0703F1F39
:100D500000007FFFC1C1C1C1C1E3773E1C00001F7D
:100D60003F70E0C0C0C0E0703F1F00000000000105
:100D7000FFFF01000000D5F08D14A1C881CFD9F18B
:100D8000AF2000640FA60D1D10080B000202020028
:100D90000009040000010202000005240010010502
:100DA000240101010424020605240600010705812F
:100DB0000310004009040100020A000000070502B8
:100DC00002400000070583024000000403090412EA
:100DD000010002EF020140412336800001010203BD
:100DE0000141726475696E6F204C4C43004172641E
:100DF00075696E6F204C656F6E6172646F00B0151F
:100E000011241FBECFEFDAE0DEBFCDBF11E0A0E0BE
:100E1000B1E0E8E3F9E302C005900D92A834B10710
:100E2000D9F728E0A8E4B1E001C01D92A930B207CB
:100E3000E1F716E0C0E0D7E004C02197FE010E9470
:100E4000B719CF3FD107C9F70E943C160C949A1CE2
:100E50000C94000080914B010895E9E8F1E0A0E0D6
:100E6000B8E000800EBC8111012C1197A0FDFDCFD0
:100E70000192B9F70DB40895CF92DF92EF92FF92ED
:100E8000CF93DF93EC016A017B01E091D905F091EA
:100E9000DA0509958823F1F1809188018230D0F13B
:100EA00081E0809387018091860180938501809104
:100EB0008100887F816080938100DE01AA0FBB1FC3
:100EC000A70196010E945F1928EE33E040E050E050
:100ED0000E94721969017A019E0150E040E060E0D1
:100EE00072E18AE790E00E944019215031094109DE
:100EF00051093093890020938800C0928101D092DB
:100F00008201E0928301F092840180916F008260FF
:100F100080936F00DF91CF91FF90EF90DF90CF90A3
:100F200008959091EE07982329F49091ED07982366
:100F300081E009F480E008956F927F928F929F92F2
:100F4000AF92BF92CF92DF92EF92FF920F931F93D7
:100F5000CF93DF93803891050CF096C0FB01E00F32
:100F6000F11DF7FD91C0603471050CF08DC0DB01FF
:100F700077FF04C0AA27BB27A61BB70BA770BB2708
:100F8000FB0177FD3796C3E0F595E795CA95E1F744
:100F900077FF07C0319768E070E0EB01CA1BDB0BFD
:100FA000DE01A02EA694A694A694B12C077019F089
:100FB000DFEFAD1ABD0A30E0BF01EA01AF0156957F
:100FC000542F442757954795480F591F47575E4F51
:100FD000A60EB71E00E810E0081B190B88E090E091
:100FE0004C018A1A9B0AA616B70609F44DC0683050
:100FF000710509F449C06F3FEFEF7E070CF43AC06A
:1010000090E080E07A01F0E8EF0EF11C6F3F760788
:10101000C1F1FC01EC0FFD1FE4916A01C80ED91E5D
:10102000F0E03F010A2E01C0660C0A94EAF7F601CF
:101030007080672860821097B1F06730710599F071
:10104000FE01E80FF91FE4916701C80ED91EF0E018
:101050003F01082C02C0759467940A94E2F7F601E8
:101060007080672860820196821793071CF4081726
:10107000190761F66F5F7F4FC20FD31F40585F4F54
:10108000B2CF1097E9F6EFCFDF91CF911F910F917B
:10109000FF90EF90DF90CF90BF90AF909F908F9098
:1010A0007F906F900895FC0180918001882311F159
:1010B0003FB7F89482E08093E9002091F200822FFC
:1010C00090E01816190614F481E090E0882339F0B6
:1010D000289844E640937F014091F1004083222309
:1010E00039F02091F200211103C02BE62093E80093
:1010F0003FBF08958FEF9FEF08952FB7F89483E0D7
:101100008093E9009091E800892F807295FF04C0D8
:101110009091F20080E4891B2FBF089580917701A0
:1011200081110DC082E08093730184E0809374018B
:10113000109276011092750181E08093770183E728
:1011400091E00895CF93DF931F92CDB7DEB7698307
:10115000DC01ED91FC910280F381E02D41E050E053
:10116000BE016F5F7F4F09950F90DF91CF9108957A
:1011700083E08093E9008091F200882319F08AE3EC
:101180008093E80008950E947D0890E00895CF9331
:10119000DF931F92CDB7DEB7FC018485958597FD5F
:1011A00008C02FEF3FEF358724870F90DF91CF9155
:1011B0000895CE0101960E945308019719F4898180
:1011C00090E0F3CF8FEF9FEFF0CF0F931F93CF936C
:1011D000DF931F92CDB7DEB78C01FC018485958526
:1011E00097FF0BC0CE0101960E945308019771F43E
:1011F000898190E0F80195878487F8018485958539
:101200000F90DF91CF911F910F9108958FEF9FEF76
:10121000F1CFFC018485958597FD0BC09FB7F894AD
:1012200082E08093E9008091F2009FBF90E00196F8
:1012300008959FB7F89482E08093E9008091F200CE
:101240009FBF90E0089540916D0150916E012091F3
:101250006B0130916C0142175307B4F49091E80090
:101260009570E1F39091E80092FD19C08093F10030
:1012700080916D0190916E0101968F739927892B52
:1012800019F48EEF8093E80080916D0190916E01CA
:10129000019690936E0180936D0181E0089580E046
:1012A0000895DF92EF92FF920F931F93CF93DF93F6
:1012B000D82E8A01EB017B01E40EF51ECE15DF0569
:1012C00059F0D7FE12C0FE0184910E942309219695
:1012D0008111F4CF0FEF1FEFC801DF91CF911F9164
:1012E0000F91FF90EF90DF9008958881EECF0F93DC
:1012F0001F93CF93DF931F92CDB7DEB782E0898330
:1013000042E450E069E87DE080E80E9451090E94D3
:101310008E08DC0112960D911C910115110589F0C2
:10132000D801ED91FC910280F381E02DBE016F5F49
:101330007F4FC801099597FD04C0F801008511850C
:10134000ECCF89810F90DF91CF911F910F9108957C
:10135000615030F02091F100FC0120830196F8CF1C
:10136000289884E680937F010895AF92BF92CF9230
:10137000DF92EF92FF920F931F93CF93DF936C0155
:101380007B018B01040F151FEB015E01AE18BF0836
:10139000C017D10759F06991D601ED91FC910190E8
:1013A000F081E02DC6010995892B79F7C501DF9100
:1013B000CF911F910F91FF90EF90DF90CF90BF9052
:1013C000AF9008953FB7F8948091610190916201C8
:1013D000A0916301B091640126B5A89B05C02F3F81
:1013E00019F00196A11DB11D3FBFBA2FA92F982F4B
:1013F0008827BC01CD01620F711D811D911D42E046
:10140000660F771F881F991F4A95D1F708958F920D
:101410009F92AF92BF92CF92DF92EF92FF926B01B9
:101420007C010E94E2094B015C01C114D104E1047A
:10143000F104B9F00E94E209681979098A099B0947
:10144000683E73408105910580F321E0C21AD108FE
:10145000E108F10888EE880E83E0981EA11CB11CFB
:10146000E4CFFF90EF90DF90CF90BF90AF909F9030
:101470008F9008958F929F92AF92BF92CF92DF92FA
:10148000EF92FF920F931F93CF93DF936C017B0139
:101490008A0180910F01882309F45CC0809180014A
:1014A000882309F457C08091720180FF05C08091A4
:1014B000E00082608093E000E801B12C8AEFA82E62
:1014C00093E0892E2AE3922E209711F4BB20D9F1C4
:1014D0000E947D0881110AC0AA94AA20D9F161E076
:1014E00070E080E090E00E94070AEECF8C171D06A6
:1014F00011F00CF08C2F9FB7F8948092E9002091A6
:10150000E80025FD02C09FBFDFCF282F30E0C21BBF
:10151000D30BF701815020F041914093F100FACFB5
:10152000E20EF31EBB2021F09092E800B12CEBCF2D
:101530008091E80085FDE7CF9092E800BB24B3944A
:10154000209709F3F3CF5D9884E68093710110161C
:1015500011063CF081E090E0F6019383828310E075
:1015600000E0C801DF91CF911F910F91FF90EF90A4
:10157000DF90CF90BF90AF909F908F900895CF92C3
:10158000DF92EF92FF921F93CF93DF93E82FF0E06B
:10159000EC5EFE4F1081E62FF0E0603398F5EA56DE
:1015A000F34FE491CE2FD0E0F12CE12C60E074E217
:1015B00084EF90E0A7019E010E944019215031095B
:1015C0004109510991E02115310581E04807510594
:1015D0006CF060E970ED83E090E0A7019E010E944D
:1015E0004019215031094109510993E0113089F026
:1015F000133039F1DF91CF911F91FF90EF90DF9081
:10160000CF900895EE0FFF1FEA56F44FC591D49185
:10161000CBCF809187018111EDCF80918100887FB0
:10162000892B809381003093890020938800109249
:1016300085001092840080916F00826080936F001B
:10164000D9CF80919100887F892B8093910030932E
:101650009900209398001092950010929400D093D6
:101660005F01C0935E0181E080935D018091710014
:10167000826080937100BECFE82FF0E0EC5EFE4FF9
:101680008081813019F08330A9F00895809187011D
:1016900081110FC080916F008D7F80936F008091CA
:1016A0005001E0914E01F0914F0190818095892386
:1016B0008083089510925D01809185018111F9CF99
:1016C00080915B01E0915901F0915A01EECF909128
:1016D0008801923009F471C0292F30E0F901EC5EE5
:1016E000FE4F4081245B3E4FF9018083913031F4FD
:1016F00020914C01281302C0909351019F5F909359
:10170000880190E0FC01E952F44F24918854944FF1
:10171000FC01849130E0220F331FF901E655F44FAC
:1017200065917491F901E456F44FA591B4919C919F
:10173000982B9C93413019F04330D9F00895909143
:101740006400977F90936400109280001092810053
:1017500090918100986090938100909181009160B8
:101760009093810070934F0160934E0180935001DC
:10177000089590916500977F909365001092900076
:1017800010929100909191009860909391009091A7
:10179000910091609093910070935A016093590168
:1017A00080935B0180918801882321F06CE380E0C5
:1017B0000E94BF0A80E00C943C0B08952D9A089576
:1017C000BC0190E080E00C94070A8FB18095807F87
:1017D000669B88601C9B8460089510924B013E9824
:1017E0003F9808953E9A3F9A81E080934B01089577
:1017F00020E191E061FD94E060FD990F62FD92951A
:10180000687F269FD0011124A80FA757BE4F8C9147
:1018100040FF03C0892B8C93089590958923FBCFBB
:101820002F923F924F925F926F927F928F929F92F0
:10183000AF92BF92CF92DF92EF92FF920F931F93DE
:10184000CF93DF93CDB7DEB728970FB6F894DEBFFE
:101850000FBECDBF9E838D836A3061F5DC01559646
:101860008C91B8E08B9F90011124ED81FE818189DC
:101870009289820F931F928B818B108A178681E049
:1018800090E028960FB6F894DEBF0FBECDBFDF9173
:10189000CF911F910F91FF90EF90DF90CF90BF906D
:1018A000AF909F908F907F906F905F904F903F9000
:1018B0002F9008956D3019F32D813E8138872F8345
:1018C000D9011F960D911C915097003811050CF00D
:1018D0007CC05196AD90BC90B0E4AB16B1040CF056
:1018E00074C0F901258825E0C801229E800D911D54
:1018F0001124181619060CF068C0622C712CC30153
:1019000033E0880F991F3A95E1F78A0D9B1D181651
:1019100019060CF05AC0F489FB83AF81B885539641
:10192000BC91BC83629FB0011124FB01E456F94FC6
:101930002F011982F2018491F981F53009F480E0D8
:10194000450128E02A83A82FB0E0BE83AD833C8008
:1019500080FF3B80311004C0BB81EC81BE17F9F0E1
:1019600078018E2D801B8215D0F4D12CC12CC2148D
:1019700090F4F0E8EF16F10450F4B601680D791D0B
:101980006034710520F4432DC7010E94F80B2FEF3E
:10199000C21AD20AECCF3FEFE31AF30AE2CF8D81ED
:1019A0009E81959587959A8191509A83860C971C74
:1019B0009111C9CFA981AF5FA983BFEF4B1A5B0A11
:1019C000060D171DA63009F0B5CFEF81F8852589E2
:1019D000422F50E087859089F6E02F9F800D911D62
:1019E0001124AF81B88550969C938E931F9756967D
:1019F0002C915697222309F442CF6AEF6403900199
:101A0000659F300D112420583F4F281739070CF0DF
:101A100036CFED91FC9111970190F081E02D6AE0B5
:101A2000CD0109952CCF0895089590E080E00895A8
:101A30000F931F93CF93DF93FC01EF5FFD4F408126
:101A400050E030E020E08C011E5F24173507BCF425
:101A5000D801EC91E20FF32FF11DFF27EE0FFF1FCE
:101A6000E80FF91FD081DB01CC91DC1305C0F181B7
:101A70001196EC91FE1749F02F5F3F4FE6CF80E0C3
:101A8000DF91CF911F910F91089581E0F9CF8F924F
:101A90009F92AF92BF92CF92DF92EF92FF9280908F
:101AA000FD07912CB12CA12CC090FF07D12C8FEFFA
:101AB000C81AD80A0D2C000CEE08FF08C814D90467
:101AC000EA04FB048CF48C189D08AE08BF0841F0B2
:101AD0000E94D218A50194010E9440194B015C019B
:101AE000C80CD91CEA1CFB1CC092DB058090FE07C9
:101AF000912CB12CA12CC0900008D12C8FEFC81ACA
:101B0000D80A0D2C000CEE08FF08C814D904EA040A
:101B1000FB048CF48C189D08AE08BF0841F00E94AD
:101B2000D218A50194010E9440194B015C01C80C18
:101B3000D91CEA1CFB1CC092DC05FF90EF90DF90E3
:101B4000CF90BF90AF909F908F9008950F93CF93B9
:101B5000DF9380910301882331F180910308809302
:101B6000E107809104088093E20783E08093E30714
:101B70008091FB078093DD058091FC078093DE0553
:101B80001092DF071092E0070E94470D10924A0161
:101B900088E097E090930201809301018AE08093AE
:101BA00000011092030180E80E9491078823A1F0B0
:101BB0009091E10780910508981306C09091E20783
:101BC00080910608981741F0809107088093E107FB
:101BD000809108088093E20780E10E9491078823A2
:101BE000A1F09091E10780910708981306C09091A9
:101BF000E20780910808981741F0809105088093CA
:101C0000E107809106088093E20780E20E94910735
:101C10008823A1F09091E10780910308981306C0F2
:101C20009091E20780910408981741F08091010893
:101C30008093E107809102088093E20780E40E948C
:101C400091078823A1F09091E107809101089813F2
:101C500006C09091E20780910208981741F08091A8
:101C600003088093E107809104088093E20784E0F1
:101C70000E949107882339F080914B01882309F451
:101C800087C00E94ED0B6091000170E08091EB072E
:101C90009091EC070E94A319892B09F04BC0209169
:101CA000E0079091DD058091DE052F3F69F0E0911E
:101CB000DF07E20FF0E0EE0FFF1FE352FA4F9283CF
:101CC00083832F5F2093E0072091E107920F909389
:101CD000DD052091E207820F8093DE052091E30766
:101CE000222309F458C021502093E3072091DB05FB
:101CF000291320C09091DC0598131CC08091E30744
:101D00008F5F8093E30780914A018F5F80934A0140
:101D10000E94470D6BED75E08FED95E00E94180D68
:101D20008111F6CF4AE050E060E070E080E092E0A0
:101D30000E943C076DED75E08FED95E00E94180D57
:101D4000811137C08091DD059091FF07981788F5C4
:101D50009091FD07891768F58091DE059091000844
:101D6000981738F59091FE07891718F5EBE8F1E020
:101D70009DE7915009F03FC0EBE0F5E09DE7915001
:101D800009F43FC08191DF01119780628C93F7CFF6
:101D90000E94F20B78CF2091E007222309F4A6CF0E
:101DA0003091DF073F5F3093DF0721502093E0073A
:101DB0009DCF81E08093030182E080936A0180914E
:101DC000010190910201019790930201809301011A
:101DD000892B69F480910001863018F0815080933E
:101DE000000188E097E09093020180930101DF9168
:101DF000CF910F9108958191DF01119784608C93A9
:101E0000B8CFC2E0D0E041E0BE0182E090E00E94A5
:101E1000F80B2196CE33D105B1F7C2E0D0E041E016
:101E2000BE018DE790E00E94F80B2196CE33D105DC
:101E3000B1F76091DE0534E0639FB0011124809119
:101E4000DD0504E024E043E755E034E0839FC00172
:101E500011240E949C07D0E0C0E08091E0078C171D
:101E60001D06D9F0D4F0E091DF07EC0FF0E0EE0FA3
:101E7000FF1FE352FA4F638134E0639FB0011124E6
:101E8000828104E024E043E755E034E0839FC00111
:101E900011240E949C072196E0CF6091DC0584E02C
:101EA000689FB00111248091DB0504E024E04FE637
:101EB00055E034E0839FC00111240E949C077FCF2E
:101EC0000C942A190E94BD190F931F93CF93DF938F
:101ED00000D000D0CDB7DEB709E228E34FE154E0EF
:101EE00070E060E084E390E00E949C078091EB0743
:101EF0009091EC076CE370E00E94A319892B29F400
:101F0000809148018F5F80934801809148018370E0
:101F100000E424E34FE752E011F04FED50E070E0B1
:101F200060E090E080E00E949C0706E028E247EB3A
:101F300050E06CE270E08CE390E00E949C0780919E
:101F4000650191E09093F90726E430E03093F407BF
:101F50002093F30726E330E03093F6072093F5074C
:101F60001F928F9383E491E09F938F938E010F5F75
:101F70001F4F1F930F930E94C219F8010190002078
:101F8000E9F73197AF01401B510BB80184EE97E0A0
:101F90000E94B50910914B010F900F900F900F9078
:101FA0000F900F9011110AC007E02BE04CEA50E0AF
:101FB00070E060E084E790E00E949C070E94E50BDF
:101FC00084718431E1F480916501882379F044E1E2
:101FD00050E060E070E089EA91E00E943C071092D6
:101FE000650160E08FE690E00E9432190F900F903B
:101FF0000F900F90DF91CF911F910F91089584E082
:102000000E949107882341F0112319F00E94ED0BE3
:10201000EDCF0E94F20BEACF88E00E94910788235F
:1020200029F344E150E060E070E089EA91E00E9429
:102030003C0781E080936A01D9CF0F931F93CF9320
:10204000DF9300D000D0CDB7DEB7809103018823A5
:10205000B1F160914A0180916501861708F09EC038
:10206000609365018FE690E00E94321981E08093D1
:10207000490142E350E060E070E084EF91E00E94AB
:102080003C0760E570E080E090E00E94070A42E3D0
:1020900050E060E070E080E293E00E943C0760E581
:1020A00070E080E090E00E94070A44E650E060E0C3
:1020B00070E08CE494E00E943C0710920301809150
:1020C000EB079091EC076EE170E00E94A319892B59
:1020D00029F4809148018F5F8093480100E124E753
:1020E00044EB55E068E070E086E090E00E949C07D9
:1020F00080914A0192E09093F90720E330E0309319
:10210000F4072093F30720E230E03093F6072093A2
:10211000F5071F928F9383E491E09F938F938E0135
:102120000F5F1F4F1F930F930E94C219F801019078
:102130000020E9F73197AF01401B510BB80184EE45
:1021400097E00E94B5090F900F900F900F900F909D
:102150000F9080914901882371F08091480180FDA2
:102160000AC006E02DE347E755E068E370E081E24E
:1021700090E00E949C078CE00E949107882329F040
:1021800081E08093030110926A010F900F900F90ED
:102190000F90DF91CF911F910F91089510924901F7
:1021A00040E550E060E070E08CE494E00E943C0781
:1021B00064E670E080E090E00E94070A40E550E0AD
:1021C00060E070E088EE93E00E943C0764E670E017
:1021D00080E090E00E94070A44EF51E060E070E088
:1021E00084EF91E068CF1F920F920FB60F921124E7
:1021F0008F939F938091E1009091E100937F909362
:10220000E10083FF0FC01092E90091E09093EB0092
:102210001092EC0092E39093ED001092800198E010
:102220009093F00082FF22C093E09093E900909198
:10223000F200992319F09AE39093E80090917101CC
:10224000992341F0909171019150909371019111F6
:1022500001C05D9A90917F01992341F090917F0197
:10226000915090937F01911101C0289A84FF18C06A
:102270008091E2008E7E81608093E2008091E10097
:102280008F7E8093E100809172018E7E80618093C9
:1022900072019F918F910F900FBE0F901F90189514
:1022A00080FFF7CF8091E2008E7E80618093E20014
:1022B0008091E1008E7E8093E100809172018E7E9C
:1022C0008160E5CF1F920F920FB60F921124CF922B
:1022D000DF92EF92FF920F931F932F933F934F93B1
:1022E0005F936F937F938F939F93AF93BF93EF937E
:1022F000FF93CF93DF93CDB7DEB76C97DEBFCDBF33
:102300001092E9008091E80083FF25C068E0CE01CB
:1023100045960E94A80982EF8093E8008D8987FF87
:1023200039C09091E80090FFFCCF982F907609F08B
:1023300034C19E894F89588D2F89F88C911131C0F5
:10234000803861F5809170018093F1001092F10066
:102350008EEF8093E8006C960FB6F894DEBF0FBE48
:10236000CDBFDF91CF91FF91EF91BF91AF919F9141
:102370008F917F916F915F914F913F912F911F911D
:102380000F91FF90EF90DF90CF900F900FBE0F90C6
:102390001F9018959EEF9093E800C7CF1092F10020
:1023A000D5CF913059F48111D3CF4130510581F609
:1023B000809170018D7F80937001CACF933049F472
:1023C0008111C6CF4130510519F6809170018260AC
:1023D000F2CF953041F48091E80080FFFCCF206877
:1023E0002093E300B5CF963009F0A9C00B8D1C8D6A
:1023F00022E01092E90010926E0110926D01F2122B
:102400002EC010926C0110926B010E9477091F82FE
:1024100099E09983FA8291E09E8390EA98879AEFF7
:10242000998720916D0130916E01275F3F4F3C836A
:102430002B838D831092E90010926E0110926D0132
:1024400010936C0100936B0149E050E0BE016F5F97
:102450007F4F80E00E9451090E94770979CF109345
:102460006C0100936B010E948E08DC0112960D91A5
:102470001C910115110509F451C1D801ED91FC9190
:102480000480F581E02DBE016B5E7F4FC801099588
:10249000009709F03EC1F80100851185EACFF3E00D
:1024A000FF120EC08F89882309F440C0823061F486
:1024B00040E860E18DEE9DE00E943815811148CF23
:1024C00081E28093EB0047CF813029F440E86BE054
:1024D00081EE9DE0F1CF833099F70E948E08DC01F8
:1024E0001296ED90FC908E010F5F1F4F6801E11472
:1024F000F10479F0D701ED91FC910680F781E02D90
:10250000B801C7010995080F111DF701E084F18496
:10251000EECFD8011C92F60101900020E9F7319727
:10252000BF016C197D0940E0C601C6CF6BEC7DE0B0
:10253000FB01449150E080E80E94510909CF973097
:1025400009F4BECF983021F481E08093F10000CFF0
:10255000993009F0FDCE837009F0B2CFE7E1F1E0E8
:1025600081E031E096E32191222371F08093E9002C
:102570003093EB00DF0111972C912093EC009093A6
:10258000ED008F5F873079F78EE78093EA00109235
:10259000EA008F8980938001DBCE8B8D9C8D109219
:1025A000E90010926E0110926D0190936C0180937E
:1025B0006B01898D811192C08E899D89913A49F470
:1025C000813209F07DCF47E050E068E071E080E0C3
:1025D000B3CF913209F074CF833269F48F89988D2B
:1025E000B0E0A0E08093040190930501A093060160
:1025F000B0930701ADCE803269F48091E80082FF8C
:10260000FCCF67E088E091E00E94A8098BEF8093FF
:10261000E8009ECE823209F09BCE8F8980930F0115
:10262000EEEFFFE7859194918B3F9C4D51F1E0E0F7
:10263000F8E08091080190910901A0910A01B09100
:102640000B01803B9440A105B105F1F480910F018D
:1026500080FD1AC0EE3F8AE0F80789F587E797E723
:10266000918380838091600080936F0188E19BE07B
:102670000FB6F894A895809360000FBE9093600009
:1026800067CEEEEFFAE0D5CF80819181873797470B
:1026900009F05ECEA895809160008861809360000B
:1026A00080916F0180936000EE3F2AE0F20789F08D
:1026B0008091FE0A9091FF0A9183808349CE8081A8
:1026C00091818737980751F29093FF0A8093FE0A11
:1026D000C5CF1092FF0A1092FE0A3ACE0E948E08D1
:1026E000DC0112960D911C910115110509F4E8CE3B
:1026F000D801ED91FC910190F081E02DBE016B5E5F
:102700007F4FC8010995811123CEF80100851185FD
:10271000EBCF181619060CF41BCED2CEF1E0FF1247
:10272000BECE6FEC7DE004CF1F920F920FB60F92DA
:1027300011242F933F938F939F93AF93BF938091D7
:10274000660190916701A0916801B0916901309193
:10275000600123E0230F2D3758F50196A11DB11D0F
:10276000209360018093660190936701A0936801B4
:10277000B09369018091610190916201A091630120
:10278000B09164010196A11DB11D809361019093E8
:102790006201A0936301B0936401BF91AF919F91D7
:1027A0008F913F912F910F900FBE0F901F90189512
:1027B00026E8230F0296A11DB11DD2CF1F920F92C2
:1027C0000FB60F9211242F933F934F935F936F9304
:1027D0007F938F939F93AF93BF93CF93DF93EF93A9
:1027E000FF9380915D01882389F08091850181119B
:1027F0000DC080915C01811109C090915B01E09155
:102800005901F0915A018081892780838091580174
:10281000882309F49CC08091540190915501A091A6
:102820005601B0915701892B8A2B8B2B09F48FC04D
:102830008091540190915501A0915601B09157019A
:102840000197A109B1098093540190935501A09378
:102850005601B0935701892B8A2B8B2B09F077C037
:10286000D1E0E0915201F0915301AF014F5F5F4F12
:1028700050935301409352012491822F807FC22FA5
:10288000CF70803821F48C2F0E943C0BEACF803926
:1028900019F5E091D905F091DA0509958D27809316
:1028A0005C01E0915201F0915301CF0101969093A8
:1028B000530180935201649180918801C81788F672
:1028C000C13021F4809151018111CBCF67FDC9CF77
:1028D0008C2F0E94BF0AC5CF87FD4CC03296F09363
:1028E0005301E0935201FA014491A0915E01B0912D
:1028F0005F01322F242F0E9494196C507E4F8F4F0E
:102900009F4F28EE33E040E050E00E947219209380
:1029100054013093550140935601509357018091D3
:10292000540190915501A0915601B0915701892B06
:102930008A2B8B2B61F481E090E0A0E0B0E08093E3
:10294000540190935501A0935601B0935701FF9104
:10295000EF91DF91CF91BF91AF919F918F917F9137
:102960006F915F914F913F912F910F900FBE0F90FC
:102970001F901895803E29F4109253011092520135
:1029800070CF803F09F06DCF10925801E0CF1F92B9
:102990000F920FB60F9211248F939F93AF93BF9313
:1029A000EF93FF9380918701882309F454C08091AD
:1029B000810190918201A0918301B0918401892BC2
:1029C0008A2B8B2BA1F190915001E0914E01F09157
:1029D0004F018081892780838091810190918201BC
:1029E000A0918301B0918401181619061A061B06DE
:1029F0009CF48091810190918201A0918301B0911A
:102A000084010197A109B10980938101909382010A
:102A1000A0938301B0938401FF91EF91BF91AF9197
:102A20009F918F910F900FBE0F901F90189510924D
:102A300085011092870180916F008D7F80936F00D8
:102A400080915001E0914E01F0914F01908180956D
:102A500089238083E1CF80915C018111DDCF90914A
:102A60005001E0914E01F0914F0180818927F1CF13
:102A7000EF92FF920F931F93CF93DF93F82E192FAE
:102A8000E62E042F81E0860F880F0E94230983E041
:102A90000E942309CF2DD12FEC0EFD2EF11CCE1557
:102AA000DF05B9F007FF13C0FE0184910E942309DE
:102AB000182F80E00E942309812321968111EFCFF6
:102AC000DF91CF911F910F91FF90EF900895888132
:102AD000EDCF81E0F5CF0F931F93CF93DF938C0160
:102AE00081E090E00E94600F80FF32C08AE090E0B9
:102AF0000E94600F9FEF980F9E3F50F522E330E059
:102B0000D80150963C932E931F9728E330E05296BD
:102B10003C932E935197CBE0D0E0D801ED91FC91FE
:102B20000190F081E02D682FC8010995CE010E9427
:102B3000600F2196C131D10581F780E00E942D07F9
:102B400088EE93E0DF91CF911F910F910C94E00BF1
:102B5000DF91CF911F910F91089504970C946B15FD
:102B600010928C0510928B0588EE93E0A0E0B0E007
:102B700080938D0590938E05A0938F05B09390055B
:102B800081E291E090938A05809389058FEF9FEF12
:102B90009093960580939505109207089FEF909368
:102BA00008081092050881E08093060880930308C6
:102BB0001092040890930108109202081092FF07E7
:102BC000109200089FE19093FD079FE09093FE070D
:102BD00092E19093FB0798E09093FC071092E7072F
:102BE0001092E6071092ED071092EE0790E1909395
:102BF000EF071092EC071092EB071092F10723E316
:102C000031E03093E5072093E40721E431E030938D
:102C1000E9072093E8071092F4071092F307109247
:102C2000F6071092F5078093F7071092F807809344
:102C3000F9071092FA078AE297E09093DA058093F9
:102C4000D9051092DD051092DE05EFEDF5E08FED70
:102C500097E01082118232968E179F07D1F710925B
:102C6000DF071092E0071092E1071092E20710923E
:102C7000DB051092DC050895789484B5826084BDEC
:102C800084B5816084BD85B5826085BD85B5816070
:102C900085BD80916E00816080936E0010928100EE
:102CA00080918100826080938100809181008160A9
:102CB000809381008091800081608093800080916A
:102CC0009100826080939100809191008160809357
:102CD0009100809190008160809390008091C1006C
:102CE00084608093C1008091C10082608093C100A4
:102CF0008091C10081608093C1008091C300816098
:102D00008093C3008091C00082608093C000809156
:102D1000C20081608093C20080917A0084608093B9
:102D20007A0080917A00826080937A0080917A00A4
:102D3000816080937A0080917A00806880937A0025
:102D40001092800110927001109272018091D70050
:102D500081608093D70080EA8093D80089B5806134
:102D600089BD89B5826089BD09B400FEFDCF61E0EF
:102D700070E080E090E00E94070A8091D8008F7C8C
:102D800080618093D8008091E000807F8093E00094
:102D90008091E1008E7E8093E1008DE08093E200DF
:102DA000559A209A81EC80937C0085B1806F85B91B
:102DB00084B1877E84B984B1876E84B95E9A5F9846
:102DC0008AB1806D8AB9769A6E9881B3806F81BB23
:102DD000899880B38D7080BB80E58CBD81E08DBD0E
:102DE00085E090E00E94E00B5F9A85E090E00E9411
:102DF000E00B5E985C98E6E7FDE084918EBD0000F4
:102E00000DB407FEFDCF31960DE0E338F007A9F7CA
:102E10005C9A81E880936400809165008160809372
:102E2000650080E00E942D070E94E50B87FF15C01A
:102E30005C9885EA8EBD00000DB407FEFDCF5C9A5C
:102E40002E982F982D988091640080628093640062
:102E500081E083BF889513BEFCCF0E94E50B82FF03
:102E600048C02D980E94E50B84788438E1F40E94D4
:102E7000DE0B88EC90E00E94E00B2F9882E090E05F
:102E80000E942A198F3F29F06FEF82E090E00E94A4
:102E9000321984EF91E00E94E00B2F9A0E94E50B1B
:102EA00084788438D9F30E94E50B84718431E1F48D
:102EB0000E94DE0B88EC90E00E94E00B2E9882E0EE
:102EC00090E00E942A19882329F060E082E090E0D7
:102ED0000E94321984EF91E00E94E00B2E9A0E942A
:102EE000E50B84718431D9F388EC90E00E94E00B0B
:102EF000B4CF0E94DE0B82E090E00E94600F882336
:102F000009F491C00E94F20B81E090E00E94600FF2
:102F1000182F147081FF0CC011112E98C0EFDFEF35
:102F20000E94E50B86FF82C02E9A2F9A0E94DE0B2C
:102F300082E390E00E94E00B0E94E50B8111F8CF44
:102F400085E00E94670B8DE00E94670B80E1809313
:102F5000EF07809164008E7F8093640080917A00F7
:102F6000806480937A0080917A0086FDFCCFC091C6
:102F70007800D09179000E94E209AB01BC01CE013A
:102F8000B0E0A0E0DC01992788278C019D01040FA7
:102F9000151F261F371FC901B80120916400216049
:102FA00020936400611571058105910511F00E945F
:102FB00021198FE690E00E94600F809365018F3F9A
:102FC00069F4109265018FE690E00E942A19882327
:102FD00029F060E08FE690E00E943219EE24E3943D
:102FE00009E811E0C0E0D0E0DD24D3948FB7F89475
:102FF000409166015091670160916801709169018B
:103000008FBF8091F007242F281B822FF090F107AB
:10301000FF20D1F12093F2071092F107209731F3AE
:103020000E940000E3CF0E94ED0B6ECF112329F028
:10303000C430D10511F42E9A2F9881E00E942D07FB
:1030400000E128E546EC5CE0BE0184E190E00E94EE
:103050009C0780E00E942D078FE090E00E94E00B2B
:103060002196C931D10509F05BCF112311F02F9AB8
:103070002D9880E991E00E94E00B0E94DE0B84EE27
:1030800097E00E946B1554CF9091EF07291738F401
:103090008F5F891718F6E3BE889513BEBFCFD09215
:1030A000F1074093F0078091EB079091EC070196B0
:1030B0009093EC078093EB078091ED078093EE07E8
:1030C0000E94E50B8093ED078F2DF80181118FEFA2
:1030D000002481938193819381930394D1F710927B
:1030E000F6071092F5071092F4071092F307E0919B
:1030F0006A01F0E0EE0FFF1FED57F24F85919491BA
:10310000FC01099580E00E942D0788CF8F929F9245
:10311000AF92BF92CF92DF92EF92FF92CF93DF9365
:10312000EC01688179818A819B8161157105810536
:10313000910521F464E279ED8BE597E02DE133EF21
:1031400041E050E00E94401949015A019B01AC0145
:10315000A7EAB1E40E945F196B017C01ACEEB4EF09
:10316000A50194010E946D19C60ED71EE81EF91E16
:10317000F7FE06C081E0C81AD108E10880E8F80A25
:10318000C882D982EA82FB82C701B6019F77DF91AC
:10319000CF91FF90EF90DF90CF90BF90AF909F9036
:1031A0008F9008958F929F92AF92BF92CF92DF92AD
:1031B000EF92FF92609110017091110180911201C4
:1031C00090911301611571058105910521F464E267
:1031D00079ED8BE597E02DE133EF41E050E00E947F
:1031E000401949015A019B01AC01A7EAB1E40E94D0
:1031F0005F196B017C01ACEEB4EFA50194010E9454
:103200006D19C60ED71EE81EF91EF7FE06C081E036
:10321000C81AD108E10880E8F80AC0921001D092DB
:103220001101E0921201F0921301C701B6019F77DC
:10323000FF90EF90DF90CF90BF90AF909F908F90D6
:10324000089560931001709311018093120190937F
:1032500013010895F999FECF92BD81BDF89A99277F
:1032600080B50895262FF999FECF1FBA92BD81BD72
:1032700020BD0FB6F894FA9AF99A0FBE01960895F8
:10328000052E97FB1EF400940E94571957FD07D096
:103290000E94721907FC03D04EF40C9457195095F4
:1032A0004095309521953F4F4F4F5F4F0895909532
:1032B0008095709561957F4F8F4F9F4F08950E9425
:1032C0009419A59F900DB49F900DA49F800D911D02
:1032D00011240895B7FF0C945F190E945F19821B97
:1032E000930B0895A1E21A2EAA1BBB1BFD010DC072
:1032F000AA1FBB1FEE1FFF1FA217B307E407F507A6
:1033000020F0A21BB30BE40BF50B661F771F881F81
:10331000991F1A9469F760957095809590959B0117
:10332000AC01BD01CF010895A29FB001B39FC001C0
:10333000A39F700D811D1124911DB29F700D811DE1
:103340001124911D0895AA1BBB1B51E107C0AA1FA0
:10335000BB1FA617B70710F0A61BB70B881F991F36
:103360005A95A9F780959095BC01CD010895EE0F6F
:10337000FF1F0590F491E02D099481E090E0F8940E
:103380000C949A1CAEE0B0E0E8ECF9E10C94711CEE
:103390000D891E8986E08C831A8309838FEF9FE74E
:1033A0009E838D83AE01475E5F4F6F89788DCE011E
:1033B00001960E94E5192F813885020F131FF8012D
:1033C00010822E96E4E00C948D1CABE0B0E0EBEEA6
:1033D000F9E10C94631C7C013B018A01FC0117821A
:1033E0001682838181FFC8C1CE0101965C01F7017D
:1033F0009381F30193FD859193FF81913F01882390
:1034000009F453C1853239F493FD859193FF81917D
:103410003F01853229F4B70190E00E94D51BE7CF28
:10342000912C212C312CFFE1F31538F08B3211F166
:1034300090F4803209F1833229F137FC3CC020ED51
:10344000280F2A3050F536FE20C08AE0989E200DC5
:103450001124922E06C08D3291F0803371F768945A
:1034600030F8F30193FD859193FF81913F01811124
:10347000DACF21C0689431F8689432F8F2CF6894BA
:1034800033F8EFCF689434F8ECCFEAE02E9E200DAD
:103490001124222E689435F8E4CF8E3229F436FCBC
:1034A00004C1689436F8DDCF8C3619F4689437F887
:1034B000D8CF8836B1F2982F9F7D95549330E0F0A5
:1034C0008336A1F18337C1F1833509F063C0280148
:1034D000F2E04F0E511CF801C080D180692D70E0E0
:1034E00036FC02C06FEF7FEFC6010E94BF1B4C018C
:1034F000689437F882010AC00C5F1F4FFFE3F9831D
:1035000088248394912C6501E89437F833FE2DC00C
:10351000522C8114910471F5552009F468CFB7013C
:1035200080E290E00E94D51B5A94F6CFF80180818A
:1035300089830E5F1F4FE4CF2801F2E04F0E511C2C
:10354000F801C080D180692D70E036FC02C06FEFB9
:103550007FEFC6010E94CA1B4C018201D5CFB70183
:1035600080E290E00E94D51B2A942814190409F0E7
:10357000B0F7CECFF60137FC859137FE81916F0110
:10358000B70190E00E94D51B51105A94F1E08F1AB8
:103590009108BFCF843619F0893609F077C0F80159
:1035A00037FE6BC060817181828193810C5F1F4FF8
:1035B000F32DFF763F2E97FF09C09095809570956B
:1035C00061957F4F8F4F9F4F689437F82AE030E026
:1035D000A5010E94051CC82ECA188C2C432C36FE4F
:1035E0000CC0E89440F8C91440F434FE05C032FC25
:1035F00003C0F32DFE7E4F2E892C44FE95C0FE01A4
:10360000EC0DF11D8081803309F087C0242D297EC7
:10361000422E842D8870582E43FC95C040FE8FC0EA
:103620009C2C821418F42C0C922C981844FE91C0F7
:10363000B70180E390E00E94D51B42FE09C088E7F5
:1036400090E041FE02C088E590E0B7010E94D51BE2
:10365000C91408F48AC0CA94D12C9FEFC91AD90A98
:10366000CA0CDB1CF60182916F01B70190E00E9449
:10367000D51BAC14BD04B1F74FCF60817181072E0B
:10368000000C880B990B0E5F1F4F92CFD32CE89440
:10369000D4F82AE030E0853739F1232D297FD22E66
:1036A0008F3601F148F48835A9F0F70186819781BA
:1036B0002B96E2E10C947F1C803749F08837A9F7FC
:1036C000D4FE02C06894D2F820E130E00DC06894C6
:1036D000D4F8F6CF34FE03C0822F8660D82E20E1C6
:1036E00032E002C028E030E0F801D7FE0FC0608170
:1036F0007181828193810C5F1F4FA5010E94051C7F
:10370000C82ECA183D2CE89437F867CF60817181C4
:1037100090E080E00E5F1F4FF0CF42FC02C0839428
:1037200078CF8394839475CF842D867809F471CFF4
:10373000F6CFB70180E290E00E94D51B83948214FB
:10374000C0F3512C73CF522C5818821408F46ECF4A
:10375000F8CF842D867809F47BCF8BE241FE80E29E
:1037600047FC8DE2B70190E071CFB70180E390E0B4
:103770000E94D51B9A946CCF8FEF9FEF99CFFC01DD
:103780000590615070400110D8F7809590958E0F8C
:103790009F1F0895FC016150704001900110D8F7FF
:1037A000809590958E0F9F1F08950F931F93CF9331
:1037B000DF93182F092FEB018B8181FD09C01FEFCB
:1037C0000FEF812F902FDF91CF911F910F910895CF
:1037D00082FF14C02E813F818C819D81281739077B
:1037E0003CF4E881F981CF010196998388831083A5
:1037F0008E819F8101969F838E83E3CFE885F98533
:10380000812F0995892BA1F3DACFFA01AA27283055
:1038100051F1203181F1E8946F936E7F6E5F7F4F9D
:103820008F4F9F4FAF4FB1E03ED0B4E03CD0670F19
:10383000781F891F9A1FA11D680F791F8A1F911D6C
:10384000A11D6A0F711D811D911DA11D20D009F4BC
:1038500068943F912AE0269F11243019305D3193FE
:10386000DEF6CF010895462F4770405D4193B3E0E7
:103870000FD0C9F7F6CF462F4F70405D4A3318F08E
:10388000495D31FD4052419302D0A9F7EACFB4E03F
:10389000A6959795879577956795BA95C9F70097F7
:1038A0006105710508959B01AC010A2E0694579598
:1038B000479537952795BA95C9F7620F731F841FEF
:1038C000951FA01D08952F923F924F925F926F9285
:1038D0007F928F929F92AF92BF92CF92DF92EF92A0
:1038E000FF920F931F93CF93DF93CDB7DEB7CA1B21
:1038F000DB0B0FB6F894DEBF0FBECDBF09942A884C
:10390000398848885F846E847D848C849B84AA84F3
:10391000B984C884DF80EE80FD800C811B81AA8180
:10392000B981CE0FD11D0FB6F894DEBF0FBECDBF4B
:08393000ED010895F894FFCFAA
:103938000A080701FFFFFFFF00E100000000000088
:1039480001000000030100C18081000000000000A8
:1039580000A2083A0AC308B8080909C708E5080018
:10396800000000100CB509150D140D6B15FCFF00B7
:0839780000AD15253033750088
:00000001FF
