:100000000C940B040C9433040C9433040C943304BC
:100010000C9433040C9433040C9433040C94330484
:100020000C9433040C9433040C94D50C0C94440DB0
:100030000C9433040C9433040C9433040C94330464
:100040000C9433040C94A9100C9433040C943304D2
:100050000C9433040C9433040C9433040C94760FF6
:100060000C9433040C9433040C9433040C94330434
:100070000C9433040C9433040C9433040C94330424
:100080000C94C00F0C9433040C9433040C9433047C
:100090000C9433040C9433040C9433040C94330404
:1000A0000C9433040C9433040C943304060F0F06A1
:1000B0000F0F0F0F00000000003E5B4F5B3E3E6BDA
:1000C0004F6B3E1C3E7C3E1C183C7E3C181C577DF2
:1000D000571C1C5E7F5E1C00183C1800FFE7C3E73E
:1000E000FF0018241800FFE7DBE7FF30483A060E50
:1000F0002629792926407F050507407F05253F5A97
:100100003CE73C5A7F3E1C1C08081C1C3E7F142206
:100110007F22145F5F005F5F06097F017F006689B1
:10012000956A606060606094A2FFA29408047E04F7
:100130000810207E201008082A1C08081C2A08081D
:100140001E101010100C1E0C1E0C30383E383006DD
:100150000E3E0E06000000000000005F00000007D9
:10016000000700147F147F14242A7F2A1223130807
:10017000646236495620500008070300001C2241E3
:10018000000041221C002A1C7F1C2A08083E080887
:100190000080703000080808080800006060002037
:1001A000100804023E5149453E00427F400072491A
:1001B0004949462141494D331814127F10274545BE
:1001C00045393C4A494931412111090736494949D4
:1001D00036464949291E0000140000004034000042
:1001E00000081422411414141414004122140802AB
:1001F000015909063E415D594E7C1211127C7F491E
:100200004949363E414141227F4141413E7F494972
:1002100049417F090909013E414151737F0808089E
:100220007F00417F41002040413F017F081422416F
:100230007F404040407F021C027F7F0408107F3EC9
:100240004141413E7F090909063E4151215E7F0936
:10025000192946264949493203017F01033F40409D
:10026000403F1F2040201F3F4038403F6314081488
:100270006303047804036159494D43007F414141C0
:100280000204081020004141417F040201020440A1
:1002900040404040000307080020545478407F2825
:1002A0004444383844444428384444287F3854541B
:1002B000541800087E090218A4A49C787F0804043E
:1002C0007800447D40002040403D007F10284400DD
:1002D00000417F40007C047804787C08040478386E
:1002E00044444438FC1824241818242418FC7C089E
:1002F000040408485454542404043F44243C40401B
:10030000207C1C2040201C3C4030403C44281028CD
:10031000444C9090907C4464544C44000836410016
:100320000000770000004136080002010204023C90
:100330002623263C1EA1A161123A4040207A38545F
:1003400054555921555579412154547841215554DA
:10035000784020545579400C1E527212395555552B
:1003600059395454545939555454580000457C4116
:100370000002457D420001457C40F0292429F0F02F
:10038000282528F07C545545002054547C547C0A80
:10039000097F4932494949323248484832324A484D
:1003A00048303A4141217A3A42402078009DA0A04D
:1003B0007D39444444393D4040403D3C24FF2424A1
:1003C000487E4943662B2FFC2F2BFF0929F620C0BE
:1003D000887E090320545479410000447D4130480F
:1003E000484A32384040227A007A0A0A727D0D1952
:1003F000317D2629292F28262929292630484D40B4
:1004000020380808080808080808382F10C8ACBAAF
:100410002F102834FA00007B000008142A1422222E
:10042000142A14089500220095AA005500AAAA557E
:10043000AA55AA000000FF00101010FF00141414A9
:10044000FF001010FF00FF1010F010F0141414FC47
:10045000001414F700FF0000FF00FF1414F404FC64
:10046000141417101F10101F101F1414141F001045
:100470001010F0000000001F101010101F101010BE
:1004800010F010000000FF101010101010101010CD
:10049000FF10000000FF140000FF00FF00001F100D
:1004A000170000FC04F414141710171414F404F4C7
:1004B0000000FF00F714141414141414F700F714B8
:1004C0001414171410101F101F141414F414101007
:1004D000F010F000001F101F0000001F14000000AB
:1004E000FC140000F010F01010FF10FF141414FFA3
:1004F000141010101F00000000F010FFFFFFFFFF9E
:10050000F0F0F0F0F0FFFFFF0000000000FFFF0F31
:100510000F0F0F0F38444438447C2A2A3E147E02C1
:10052000020606027E027E02635549416338444456
:100530003C04407E201E2006027E020299A5E7A50B
:10054000991C2A492A1C4C7201724C304A4D4D307C
:100550003048784830BC625A463D3E494949007EA1
:100560000101017E2A2A2A2A2A44445F4444405138
:100570004A444040444A51400000FF0103E080FFEC
:10058000000008086B6B083612362436060F090F78
:1005900006000018180000001010003040FF010194
:1005A000001F01011E00191D1712003C3C3C3C00BD
:1005B0000000000000000000240027002A002D0099
:1005C000300000000000250028002B002E00310024
:1005D0000408020110408040102040804080080242
:1005E00004018040201002011080102040402004AF
:1005F00004040404030405020202020403020202CA
:1006000002060606060606040402020204040601A7
:100610001501260137014A015D01720188019F0120
:10062000B801D201EE010B022A024B026E029302C4
:10063000BA02E40210033F037003A403DC031704AF
:1006400055049704DD0427057505C80520067D06B9
:10065000E0064907B8072D08A9082D09B9094D0A70
:10066000EA0A900B400CFA0CC00D910E6F0F5A1055
:1006700053115B1272139A14D41520178018F519B0
:10068000801B231DDE1EB420A622B524E4263429B7
:10069000A72B402E0031EA330037453ABC3D684174
:1006A0004C456B49C84D68524F57805C0062101131
:1006B0001213151617181A1C1D1F21232527292C64
:1006C0002E3134373A3E4145494E52575C62686E8E
:1006D000757B838B939CA5AFB9C4D0DCE9F7F0F8A8
:1006E0009C8E8783878E9CF8F00000FEFF03030337
:1006F0000303070EFCF80000FEFF030303030307D8
:100700000EFCF80000FFFF00000000000000FFFFEB
:100710000000FEFF8383838383C7EE7C380000F8EC
:10072000FC0E07030303070EFCF800003F7FE0C048
:100730008080C0E07F3FFFFF01010101010101FF57
:10074000FF0000FFFF0C0C0C0C1C3E77E3C1000007
:100750007FFFC0C0C0C0C0E0703F1F00001F3F70DF
:10076000E0C0C0C0E0703F1F00007FFFC1C1C1C139
:10077000C1E3773E1C00001F3F70E0C0C0C0E070C6
:100780003F1F000000000001FFFF01000000D5F046
:100790008D14A1C881CFD9F1AF2000840AD30A08F3
:1007A0000B00020202000009040000010202000026
:1007B000052400100105240101010424020605247A
:1007C0000600010705810310004009040100020A28
:1007D00000000007050202400000070583024000F8
:1007E000000403090412010002EF02014041233614
:1007F0008000010102030141726475696E6F204C33
:100800004C430041726475696E6F204C656F6E6178
:1008100072646F00921111241FBECFEFDAE0DEBFC9
:10082000CDBF11E0A0E0B1E0E0EDF0E302C0059043
:100830000D92A836B107D9F728E0A8E6B1E001C0CB
:100840001D92AA32B207E1F714E0CBE0D4E004C075
:100850002197FE010E948315CA30D107C9F70E9473
:1008600018120C9466180C9400008091870108956A
:10087000EBEAF1E0A0E0B8E000800EBC8111012CB1
:100880001197A0FDFDCF0192B9F70DB40895CF9255
:10089000DF92EF92FF92CF93DF93EC016A017B012D
:1008A000E091FB05F091FC0509958823F1F1809119
:1008B000AA018230D0F181E08093A9018091A80142
:1008C0008093A70180918100887F8160809381005F
:1008D000DE01AA0FBB1FA70196010E942B1528EE6F
:1008E00033E040E050E00E943E1569017A019E012C
:1008F00050E040E060E072E18AE790E00E940C1571
:100900002150310941095109309389002093880011
:10091000C092A301D092A401E092A501F092A60199
:1009200080916F00826080936F00DF91CF91FF9084
:10093000EF90DF90CF90089590911108982329F4BB
:1009400090911008982381E009F480E008956F9257
:100950007F928F929F92AF92BF92CF92DF92EF924F
:10096000FF920F931F93CF93DF93803891050CF084
:1009700096C0FB01E00FF11DF7FD91C060347105D9
:100980000CF08DC0DB0177FF04C0AA27BB27A61B94
:10099000B70BA770BB27FB0177FD3796C3E0F59532
:1009A000E795CA95E1F777FF07C0319768E070E0F7
:1009B000EB01CA1BDB0BDE01A02EA694A694A69425
:1009C000B12C077019F0DFEFAD1ABD0A30E0BF019E
:1009D000EA01AF015695542F442757954795480F84
:1009E000591F45555E4FA60EB71E00E810E0081BC4
:1009F000190B88E090E04C018A1A9B0AA616B706EC
:100A000009F44DC06830710509F449C06F3FEFEF3C
:100A10007E070CF43AC090E080E07A01F0E8EF0E37
:100A2000F11C6F3F7607C1F1FC01EC0FFD1FE49153
:100A30006A01C80ED91EF0E03F010A2E01C0660C03
:100A40000A94EAF7F6017080672860821097B1F087
:100A50006730710599F0FE01E80FF91FE491670115
:100A6000C80ED91EF0E03F01082C02C075946794AF
:100A70000A94E2F7F6017080672860820196821777
:100A800093071CF40817190761F66F5F7F4FC20FB9
:100A9000D31F40585F4FB2CF1097E9F6EFCFDF91E9
:100AA000CF911F910F91FF90EF90DF90CF90BF906B
:100AB000AF909F908F907F906F900895FC018091F0
:100AC000A201882311F13FB7F89482E08093E900F6
:100AD0002091F200822F90E01816190614F481E09C
:100AE00090E0882339F0289844E64093A101409192
:100AF000F1004083222339F02091F200211103C03C
:100B00002BE62093E8003FBF08958FEF9FEF0895F5
:100B10002FB7F89483E08093E9009091E800892F43
:100B2000807295FF04C09091F20080E4891B2FBF72
:100B300008958091990181110DC082E08093950103
:100B400084E080939601109298011092970181E0C1
:100B50008093990185E991E00895CF93DF931F92E7
:100B6000CDB7DEB76983DC01ED91FC910280F381A2
:100B7000E02D41E050E0BE016F5F7F4F09950F907F
:100B8000DF91CF91089583E08093E9008091F20096
:100B9000882319F08AE38093E80008950E9488056D
:100BA00090E00895CF93DF931F92CDB7DEB7FC019D
:100BB0008485958597FD08C02FEF3FEF3587248703
:100BC0000F90DF91CF910895CE0101960E945E05AE
:100BD000019719F4898190E0F3CF8FEF9FEFF0CF69
:100BE0000F931F93CF93DF931F92CDB7DEB78C0186
:100BF000FC018485958597FF0BC0CE0101960E946C
:100C00005E05019771F4898190E0F80195878487EA
:100C1000F801848595850F90DF91CF911F910F91F9
:100C200008958FEF9FEFF1CFFC018485958597FDA7
:100C30000BC09FB7F89482E08093E9008091F200A6
:100C40009FBF90E0019608959FB7F89482E080934B
:100C5000E9008091F2009FBF90E0089540918F01DC
:100C60005091900120918D0130918E0142175307D0
:100C7000B4F49091E8009570E1F39091E80092FD52
:100C800019C08093F10080918F019091900101969D
:100C90008F739927892B19F48EEF8093E800809148
:100CA0008F019091900101969093900180938F0114
:100CB00081E0089580E00895DF92EF92FF920F9314
:100CC0001F93CF93DF93D82E8A01EB017B01E40EB3
:100CD000F51ECE15DF0559F0D7FE12C0FE01849136
:100CE0000E942E0621968111F4CF0FEF1FEFC8014D
:100CF000DF91CF911F910F91FF90EF90DF900895BA
:100D00008881EECF0F931F93CF93DF931F92CDB7C0
:100D1000DEB782E0898342E450E06FE977E080E863
:100D20000E945C060E949905DC0112960D911C91AF
:100D30000115110589F0D801ED91FC910280F38134
:100D4000E02DBE016F5F7F4FC801099597FD04C07C
:100D5000F80100851185ECCF89810F90DF91CF914B
:100D60001F910F910895615030F02091F100FC0126
:100D700020830196F8CF289884E68093A1010895F6
:100D8000AF92BF92CF92DF92EF92FF920F931F9399
:100D9000CF93DF936C017B018B01040F151FEB01D7
:100DA0005E01AE18BF08C017D10759F06991D6018E
:100DB000ED91FC910190F081E02DC6010995892B00
:100DC00079F7C501DF91CF911F910F91FF90EF90BF
:100DD000DF90CF90BF90AF9008953FB7F894809187
:100DE000830190918401A0918501B091860126B57F
:100DF000A89B05C02F3F19F00196A11DB11D3FBF53
:100E0000BA2FA92F982F8827BC01CD01620F711D21
:100E1000811D911D42E0660F771F881F991F4A951B
:100E2000D1F708958F929F92AF92BF92CF92DF92A7
:100E3000EF92FF926B017C010E94ED064B015C0179
:100E4000C114D104E104F104B9F00E94ED0668195F
:100E500079098A099B09683E73408105910580F3F1
:100E600021E0C21AD108E108F10888EE880E83E07B
:100E7000981EA11CB11CE4CFFF90EF90DF90CF90A3
:100E8000BF90AF909F908F9008958F929F92AF9256
:100E9000BF92CF92DF92EF92FF920F931F93CF9367
:100EA000DF936C017B018A0180910E01882309F494
:100EB0005CC08091A201882309F457C080919401FD
:100EC00080FF05C08091E00082608093E000E8012F
:100ED000B12C8AEFA82E93E0892E2AE3922E209738
:100EE00011F4BB20D9F10E94880581110AC0AA948F
:100EF000AA20D9F161E070E080E090E00E94120742
:100F0000EECF8C171D0611F00CF08C2F9FB7F894C4
:100F10008092E9002091E80025FD02C09FBFDFCF4D
:100F2000282F30E0C21BD30BF701815020F04191F4
:100F30004093F100FACFE20EF31EBB2021F0909215
:100F4000E800B12CEBCF8091E80085FDE7CF9092CF
:100F5000E800BB24B394209709F3F3CF5D9884E6AF
:100F600080939301101611063CF081E090E0F601A9
:100F70009383828310E000E0C801DF91CF911F913D
:100F80000F91FF90EF90DF90CF90BF90AF909F9028
:100F90008F900895CF92DF92EF92FF921F93CF939D
:100FA000DF93E82FF0E0ED5EFE4F1081E62FF0E0DA
:100FB000603398F5E255F94FE491CE2FD0E0F12C53
:100FC000E12C60E074E284EF90E0A7019E010E94B2
:100FD0000C15215031094109510991E021153105C4
:100FE00081E0480751056CF060E970ED83E090E026
:100FF000A7019E010E940C15215031094109510998
:1010000093E0113089F0133039F1DF91CF911F91C6
:10101000FF90EF90DF90CF900895EE0FFF1FE25505
:10102000FA4FC591D491CBCF8091A9018111EDCF19
:1010300080918100887F892B809381003093890083
:1010400020938800109285001092840080916F0098
:10105000826080936F00D9CF80919100887F892B27
:1010600080939100309399002093980010929500FE
:1010700010929400D0938101C093800181E080930D
:101080007F0180917100826080937100BECFE82F54
:10109000F0E0ED5EFE4F8081813019F08330A9F0E1
:1010A00008958091A90181110FC080916F008D7FFB
:1010B00080936F0080917201E0917001F091710155
:1010C0009081809589238083089510927F0180917B
:1010D000A7018111F9CF80917D01E0917B01F09111
:1010E0007C01EECF9091AA01923009F471C0292FB2
:1010F00030E0F901ED5EFE4F408122593E4FF9018B
:101100008083913031F420916E01281302C09093B6
:1011100073019F5F9093AA0190E0FC01E151FA4FA7
:10112000249180539A4FFC01849130E0220F331FA9
:10113000F901EE53FA4F65917491F901EC54FA4FAD
:10114000A591B4919C91982B9C93413019F0433018
:10115000D9F0089590916400977F90936400109265
:10116000800010928100909181009860909381009E
:1011700090918100916090938100709371016093D0
:10118000700180937201089590916500977F90930C
:1011900065001092900010929100909191009860DB
:1011A0009093910090919100916090939100709331
:1011B0007C0160937B0180937D018091AA0188234B
:1011C00021F06CE380E00E94CA0780E00C9447089D
:1011D00008952D9A0895BC0190E080E00C941207C8
:1011E0008FB18095807F669B88601C9B846008958A
:1011F00020E191E061FD94E060FD990F62FD929520
:10120000687F269FD0011124A80FA555BE4F8C9151
:1012100040FF03C0892B8C93089590958923FBCFC1
:101220002F923F924F925F926F927F928F929F92F6
:10123000AF92BF92CF92DF92EF92FF920F931F93E4
:10124000CF93DF93CDB7DEB728970FB6F894DEBF04
:101250000FBECDBF9E838D836A3061F5DC0155964C
:101260008C91B8E08B9F90011124ED81FE818189E2
:101270009289820F931F928B818B108A178681E04F
:1012800090E028960FB6F894DEBF0FBECDBFDF9179
:10129000CF911F910F91FF90EF90DF90CF90BF9073
:1012A000AF909F908F907F906F905F904F903F9006
:1012B0002F9008956D3019F32D813E8138872F834B
:1012C000D9011F960D911C915097003811050CF013
:1012D0007CC05196AD90BC90B0E4AB16B1040CF05C
:1012E00074C0F901258825E0C801229E800D911D5A
:1012F0001124181619060CF068C0622C712CC30159
:1013000033E0880F991F3A95E1F78A0D9B1D181657
:1013100019060CF05AC0F489FB83AF81B885539647
:10132000BC91BC83629FB0011124FB01EC54FF4FC0
:101330002F011982F2018491F981F53009F480E0DE
:10134000450128E02A83A82FB0E0BE83AD833C800E
:1013500080FF3B80311004C0BB81EC81BE17F9F0E7
:1013600078018E2D801B8215D0F4D12CC12CC21493
:1013700090F4F0E8EF16F10450F4B601680D791D11
:101380006034710520F4432DC7010E94F8082FEF47
:10139000C21AD20AECCF3FEFE31AF30AE2CF8D81F3
:1013A0009E81959587959A8191509A83860C971C7A
:1013B0009111C9CFA981AF5FA983BFEF4B1A5B0A17
:1013C000060D171DA63009F0B5CFEF81F8852589E8
:1013D000422F50E087859089F6E02F9F800D911D68
:1013E0001124AF81B88550969C938E931F97569683
:1013F0002C915697222309F442CF6AEF640390019F
:10140000659F300D112420583F4F281739070CF0E5
:1014100036CFED91FC9111970190F081E02D6AE0BB
:10142000CD0109952CCF0895089590E080E00895AE
:101430008F929F92AF92BF92CF92DF92EF92FF92E4
:1014400080901E08912CB12CA12CC0902008D12C8A
:101450008FEFC81AD80A0D2C000CEE08FF08C8142C
:10146000D904EA04FB048CF48C189D08AE08BF086C
:1014700041F00E949E14A50194010E940C154B019D
:101480005C01C80CD91CEA1CFB1CC092FD058090B5
:101490001F08912CB12CA12CC0902108D12C8FEFCA
:1014A000C81AD80A0D2C000CEE08FF08C814D9047D
:1014B000EA04FB048CF48C189D08AE08BF0841F0C8
:1014C0000E949E14A50194010E940C154B015C0121
:1014D000C80CD91CEA1CFB1CC092FE05FF90EF90C3
:1014E000DF90CF90BF90AF909F908F900895FC01B8
:1014F00001900020E9F73197AF01481B590BBC015F
:1015000087E098E00C94C00682E080931C088AE093
:1015100090E090931708809316088BE090E09093EA
:1015200019088093180882E491E00E94770A80915C
:101530000E0890910F086EE170E00E946F15892BE4
:1015400031F48091680191E089278093680180914E
:101550006801882399F081E080931C0880E190E085
:1015600090931708809316088CE290E090931908E6
:10157000809318088CE491E00E94770A8CE00E9426
:101580009C04882359F044E150E060E070E089EA6F
:1015900091E00E94470481E080938C0108950C94AF
:1015A000F6140E9489150F93CF93DF938091020167
:1015B000882321F1809124089091250890930408B4
:1015C0008093030883E08093050882E18093FF0500
:1015D00088E080930006109201081092020881E0D2
:1015E000809306080E94180A10926D0180EB809388
:1015F00001018FE0809300011092020180E80E94B7
:101600009C04882341F080912808909129089093A8
:1016100004088093030880E10E949C04882341F021
:1016200080912608909127089093040880930308DE
:1016300080E20E949C04882341F0809122089091CE
:101640002308909304088093030880E40E949C047C
:10165000882341F0809124089091250890930408F4
:10166000809303086091000170E080910E089091D2
:101670000F080E946F15892B09F063C08091020842
:101680008F3F89F0E0910108E80FF0E0EE0FFF1FB7
:10169000E150FA4F2091FF053091000633832283F9
:1016A0008F5F809302089091FF0580910308980F47
:1016B0009093FF058091000620910408820F80938B
:1016C000000620910508222309F45CC021502093D4
:1016D00005082091FD05291334C09091FE0598134B
:1016E00030C0809105088F5F8093050880916D015F
:1016F0008F5F80936D010E94180A42E350E060E022
:1017000070E084EF91E00E94470460E570E080E0C3
:1017100090E00E94120742E350E060E070E080E257
:1017200093E00E94470460E570E080E090E00E9452
:10173000120744E650E060E070E08CE494E00E9420
:1017400047044091020850E0609101082091FF0594
:101750003091000690E080E070E0841795070CF06F
:10176000D9C0FB01E80FF91FFF27EE0FFF1FE15063
:10177000FA4FA281A21304C0E381E31709F4DAC08F
:101780000196EBCF20910208222309F4A2CF3091D9
:1017900001083F5F3093010821502093020899CF40
:1017A0008191DF01119784608C93F0C0C2E0D0E09A
:1017B00041E0BE0182E090E00E94F8082196CE331D
:1017C000D105B1F7C2E0D0E041E0BE018DE790E085
:1017D0000E94F8082196CE33D105B1F781E08093BD
:1017E0001C0881E390E090931708809316081092EC
:1017F0001908109218088DE591E00E94770A87E396
:1018000090E0909317088093160810921908109290
:10181000180880916D011F928F9383E691E09F934A
:101820008F9389E691E09F938F930E948E1589E6AE
:1018300091E00E94770A6091000634E0639FB00156
:1018400011248091FF0504E024E040EB50E034E0F7
:10185000839FC00111240E94A7040F900F900F9046
:101860000F900F900F90D0E0C0E0809102088C178D
:101870001D06D9F0D4F0E0910108EC0FF0E0EE0F76
:10188000FF1FE150FA4F638134E0639FB0011124E0
:10189000828104E024E040EB50E034E0839FC0010B
:1018A00011240E94A7042196E0CF6091FE0584E0F8
:1018B000689FB00111248091FD0504E024E04CEA0A
:1018C00050E034E0839FC00111240E94A70480915E
:1018D0000101815080930101811118C080910001A4
:1018E000882389F08150809300014AE050E060E055
:1018F00070E080E092E00E9447046AE070E080E0DF
:1019000090E00E94120780EB80930101DF91CF915C
:101910000F91089580912008821760F480911E082D
:10192000281740F480912108831720F480911F0824
:10193000381748F181E08093020110928C0140E554
:1019400050E060E070E08CE494E00E94470464E6BC
:1019500070E080E090E00E94120740E550E060E017
:1019600070E088EE93E00E94470464E670E080E057
:1019700090E00E94120744EF51E060E070E084EFD5
:1019800091E00E944704EDEAF1E09DE7915009F0F3
:1019900007CFEDE2F5E09DE7915009F407CF819183
:1019A000DF01119780628C93F7CF1F920F920FB6D1
:1019B0000F9211248F939F938091E1009091E10009
:1019C000937F9093E10083FF0FC01092E90091E0B4
:1019D0009093EB001092EC0092E39093ED00109244
:1019E000A20198E09093F00082FF22C093E09093D0
:1019F000E9009091F200992319F09AE39093E8009E
:101A000090919301992341F090919301915090937B
:101A10009301911101C05D9A9091A101992341F028
:101A20009091A10191509093A101911101C0289A28
:101A300084FF18C08091E2008E7E81608093E20076
:101A40008091E1008F7E8093E100809194018E7EF1
:101A50008061809394019F918F910F900FBE0F90A2
:101A60001F90189580FFF7CF8091E2008E7E8061F5
:101A70008093E2008091E1008E7E8093E10080916E
:101A800094018E7E8160E5CF1F920F920FB60F9268
:101A90001124CF92DF92EF92FF920F931F932F9317
:101AA0003F934F935F936F937F938F939F93AF93E6
:101AB000BF93EF93FF93CF93DF93CDB7DEB76C97D0
:101AC000DEBFCDBF1092E9008091E80083FF25C002
:101AD00068E0CE0145960E94B30682EF8093E8004D
:101AE0008D8987FF39C09091E80090FFFCCF982F37
:101AF000907609F034C19E894F89588D2F89F88CD2
:101B0000911131C0803861F5809192018093F1008C
:101B10001092F1008EEF8093E8006C960FB6F89467
:101B2000DEBF0FBECDBFDF91CF91FF91EF91BF918F
:101B3000AF919F918F917F916F915F914F913F9165
:101B40002F911F910F91FF90EF90DF90CF900F900A
:101B50000FBE0F901F9018959EEF9093E800C7CF8F
:101B60001092F100D5CF913059F48111D3CF41308B
:101B7000510581F6809192018D7F80939201CACFA9
:101B8000933049F48111C6CF4130510519F6809147
:101B900092018260F2CF953041F48091E80080FF9D
:101BA000FCCF20682093E300B5CF963009F0A9C0A0
:101BB0000B8D1C8D22E01092E90010929001109282
:101BC0008F01F2122EC010928E0110928D010E9490
:101BD00082061F8299E09983FA8291E09E8390EABF
:101BE00098879AEF998720918F0130919001275F14
:101BF0003F4F3C832B838D831092E900109290011C
:101C000010928F0110938E0100938D0149E050E0F6
:101C1000BE016F5F7F4F80E00E945C060E948206DB
:101C200079CF10938E0100938D010E949905DC01FC
:101C300012960D911C910115110509F451C1D8019D
:101C4000ED91FC910480F581E02DBE016B5E7F4F2C
:101C5000C8010995009709F03EC1F801008511857A
:101C6000EACFF3E0FF120EC08F89882309F440C049
:101C7000823061F440E860E183E098E00E941A114C
:101C8000811148CF81E28093EB0047CF813029F466
:101C900040E86BE087EF97E0F1CF833099F70E943F
:101CA0009905DC011296ED90FC908E010F5F1F4F9D
:101CB0006801E114F10479F0D701ED91FC910680FF
:101CC000F781E02DB801C7010995080F111DF70133
:101CD000E084F184EECFD8011C92F601019000203F
:101CE000E9F73197BF016C197D0940E0C601C6CF05
:101CF00061EE77E0FB01449150E080E80E945C06D1
:101D000009CF973009F4BECF983021F481E0809359
:101D1000F10000CF993009F0FDCE837009F0B2CF09
:101D2000E6E1F1E081E031E096E32191222371F0D8
:101D30008093E9003093EB00DF0111972C91209301
:101D4000EC009093ED008F5F873079F78EE78093FA
:101D5000EA001092EA008F898093A201DBCE8B8D7E
:101D60009C8D1092E9001092900110928F01909337
:101D70008E0180938D01898D811192C08E899D89FC
:101D8000913A49F4813209F07DCF47E050E067E0B5
:101D900071E080E0B3CF913209F074CF833269F4FF
:101DA0008F89988DB0E0A0E08093030190930401A7
:101DB000A0930501B0930601ADCE803269F4809105
:101DC000E80082FFFCCF67E087E091E00E94B30665
:101DD0008BEF8093E8009ECE823209F09BCE8F89F4
:101DE00080930E01EEEFFFE7859194918B3F9C4D20
:101DF00051F1E0E0F8E08091070190910801A09195
:101E00000901B0910A01803B9440A105B105F1F4AC
:101E100080910E0180FD1AC0EE3F8AE0F80789F537
:101E200087E797E791838083809160008093910199
:101E300088E19BE00FB6F894A895809360000FBEF0
:101E40009093600067CEEEEFFAE0D5CF808191816C
:101E50008737974709F05ECEA8958091600088612A
:101E6000809360008091910180936000EE3F2AE0B2
:101E7000F20789F08091FE0A9091FF0A9183808396
:101E800049CE808191818737980751F29093FF0A5C
:101E90008093FE0AC5CF1092FF0A1092FE0A3ACE36
:101EA0000E949905DC0112960D911C9101151105F6
:101EB00009F4E8CED801ED91FC910190F081E02D7C
:101EC000BE016B5E7F4FC8010995811123CEF801D9
:101ED00000851185EBCF181619060CF41BCED2CE57
:101EE000F1E0FF12BECE65EE77E004CF1F920F92B5
:101EF0000FB60F9211242F933F938F939F93AF931D
:101F0000BF938091880190918901A0918A01B0913D
:101F10008B013091820123E0230F2D3758F5019674
:101F2000A11DB11D209382018093880190938901A6
:101F3000A0938A01B0938B018091830190918401D9
:101F4000A0918501B09186010196A11DB11D8093DC
:101F5000830190938401A0938501B0938601BF9182
:101F6000AF919F918F913F912F910F900FBE0F9046
:101F70001F90189526E8230F0296A11DB11DD2CF00
:101F80001F920F920FB60F9211242F933F934F93EE
:101F90005F936F937F938F939F93AF93BF93CF93F1
:101FA000DF93EF93FF9380917F01882389F08091E5
:101FB000A70181110DC080917E01811109C090910E
:101FC0007D01E0917B01F0917C01808189278083F4
:101FD00080917A01882309F49CC0809176019091C8
:101FE0007701A0917801B0917901892B8A2B8B2BF5
:101FF00009F48FC08091760190917701A0917801CA
:10200000B09179010197A109B1098093760190936C
:102010007701A0937801B0937901892B8A2B8B2BC0
:1020200009F077C0D1E0E0917401F0917501AF0142
:102030004F5F5F4F50937501409374012491822F3D
:10204000807FC22FCF70803821F48C2F0E944708E8
:10205000EACF803919F5E091FB05F091FC0509956F
:102060008D2780937E01E0917401F0917501CF017D
:102070000196909375018093740164918091AA01F7
:10208000C81788F6C13021F4809173018111CBCF3C
:1020900067FDC9CF8C2F0E94CA07C5CF87FD4CC0F2
:1020A0003296F0937501E0937401FA014491A09186
:1020B0008001B0918101322F242F0E9460156C5055
:1020C0007E4F8F4F9F4F28EE33E040E050E00E945C
:1020D0003E15209376013093770140937801509319
:1020E00079018091760190917701A0917801B0916A
:1020F0007901892B8A2B8B2B61F481E090E0A0E0A1
:10210000B0E08093760190937701A0937801B0932B
:102110007901FF91EF91DF91CF91BF91AF919F91A5
:102120008F917F916F915F914F913F912F910F9080
:102130000FBE0F901F901895803E29F410927501E4
:102140001092740170CF803F09F06DCF10927A0128
:10215000E0CF1F920F920FB60F9211248F939F938F
:10216000AF93BF93EF93FF938091A901882309F464
:1021700054C08091A3019091A401A091A501B091B8
:10218000A601892B8A2B8B2BA1F190917201E091F2
:102190007001F09171018081892780838091A30172
:1021A0009091A401A091A501B091A601181619065D
:1021B0001A061B069CF48091A3019091A401A091A2
:1021C000A501B091A6010197A109B1098093A301CE
:1021D0009093A401A093A501B093A601FF91EF9164
:1021E000BF91AF919F918F910F900FBE0F901F9055
:1021F00018951092A7011092A90180916F008D7F10
:1022000080936F0080917201E0917001F0917101F3
:102210009081809589238083E1CF80917E01811117
:10222000DDCF90917201E0917001F0917101808198
:102230008927F1CFEF92FF920F931F93CF93DF93F4
:10224000F82E192FE62E042F81E0860F880F0E94AA
:102250002E0683E00E942E06CF2DD12FEC0EFD2EF0
:10226000F11CCE15DF05B9F007FF13C0FE01849104
:102270000E942E06182F80E00E942E0681232196B0
:102280008111EFCFDF91CF911F910F91FF90EF90D0
:1022900008958881EDCF81E0F5CF0F931F93CF9301
:1022A000DF938C0181E090E00E94CF0A80FF32C072
:1022B0008AE090E00E94CF0A9FEF980F9E3F50F572
:1022C00022E330E0D80150963C932E931F9728E3E9
:1022D00030E052963C932E935197CBE0D0E0D8015A
:1022E000ED91FC910190F081E02D682FC8010995D6
:1022F000CE010E94CF0A2196C131D10581F780E03D
:102300000E94380488EE93E0DF91CF911F910F91E6
:102310000C94EB08DF91CF911F910F9108950497D2
:102320000C944D111092AE051092AD0588EE93E01D
:10233000A0E0B0E08093AF059093B005A093B10505
:10234000B093B20580E291E09093AC058093AB0529
:102350008FEF9FEF9093B8058093B70510922808F0
:102360009FEF909329081092260881E08093270818
:102370008093240810922508909322081092230835
:1023800010922008109221089FE190931E089FE070
:1023900090931F0810920A081092090810921008D2
:1023A0001092110890E19093120810920F08109269
:1023B0000E081092140822E331E0309308082093AD
:1023C000070820E431E030930C0820930B081092AA
:1023D0001708109216081092190810921808809386
:1023E0001A0810921B0880931C0810921D0885E3A0
:1023F00094E09093FC058093FB051092FF051092EA
:102400000006E1E0F6E081E098E010821182329669
:102410008E179F07D1F710920108109202081092B0
:102420000308109204081092FD051092FE0508950D
:10243000789484B5826084BD84B5816084BD85B59F
:10244000826085BD85B5816085BD80916E008160AB
:1024500080936E0010928100809181008260809351
:102460008100809181008160809381008091800053
:1024700081608093800080919100826080939100C0
:1024800080919100816080939100809190008160A3
:10249000809390008091C10084608093C1008091FE
:1024A000C10082608093C1008091C10081608093EF
:1024B000C1008091C30081608093C3008091C000FF
:1024C00082608093C0008091C20081608093C200CE
:1024D00080917A00846080937A0080917A00826093
:1024E00080937A0080917A00816080937A00809155
:1024F0007A00806880937A001092A2011092920173
:10250000109294018091D70081608093D70080EA77
:102510008093D80089B5806189BD89B5826089BD05
:1025200009B400FEFDCF61E070E080E090E00E9421
:1025300012078091D8008F7C80618093D8008091B1
:10254000E000807F8093E0008091E1008E7E8093A8
:10255000E1008DE08093E200559A209A81EC80930F
:102560007C0085B1806F85B984B1877E84B984B1E0
:10257000876E84B95E9A5F988AB1806D8AB9769ABF
:102580006E9881B3806F81BB899880B38D7080BB5A
:1025900080E58CBD81E08DBD85E090E00E94EB0878
:1025A0005F9A85E090E00E94EB085E985C98EEE808
:1025B000F7E084918EBD00000DB407FEFDCF31968B
:1025C00007E0EB39F007A9F75C9A81E88093640093
:1025D0008091650081608093650080E00E943804EE
:1025E0000E94F00887FF15C05C9885EA8EBD000048
:1025F0000DB407FEFDCF5C9A2E982F982D988091F0
:10260000640080628093640081E083BF889513BE7C
:10261000FCCF0E94F00882FF48C02D980E94F0086D
:1026200084788438E1F40E94E90888EC90E00E9404
:10263000EB082F9882E090E00E94F6148F3F29F07B
:102640006FEF82E090E00E94FE1484EF91E00E9420
:10265000EB082F9A0E94F00884788438D9F30E94FE
:10266000F00884718431E1F40E94E90888EC90E07C
:102670000E94EB082E9882E090E00E94F6148823D6
:1026800029F060E082E090E00E94FE1484EF91E087
:102690000E94EB082E9A0E94F00884718431D9F3CD
:1026A00088EC90E00E94EB08B4CF0E94E90882E039
:1026B00090E00E94CF0A882309F47FC03E9A3F9A97
:1026C00081E08093870181E090E00E94CF0A182F7B
:1026D000147081FF0CC011112E98C0EFDFEF0E9423
:1026E000F00886FF6FC02E9A2F9A0E94E90882E3B5
:1026F00090E00E94EB080E94F0088111F8CF85E07D
:102700000E9472088DE00E94720880E18093120896
:10271000809164008E7F8093640080917A00806451
:1027200080937A0080917A0086FDFCCFC09178007A
:10273000D09179000E94ED06AB01BC01CE01B0E062
:10274000A0E0DC01992788278C019D01040F151F4B
:10275000261F371FC901B801209164002160209312
:102760006400611571058105910511F00E94ED1459
:10277000EE24E3940BEA11E0C0E0D0E0DD24D39432
:102780008FB7F894409188015091890160918A0136
:1027900070918B018FBF80911308242F281B822FEB
:1027A000F0901408FF20E1F120931508109214080E
:1027B000209731F30E940000E3CF109287013E98EA
:1027C0003F9881CF112329F0C430D10511F42E9AFE
:1027D0002F9881E00E94380400E128E54EED56E094
:1027E000BE0184E190E00E94A70480E00E943804CA
:1027F0008FE090E00E94EB082196C931D10509F0E5
:102800006ECF112311F02F9A2D9880E991E00E944C
:10281000EB080E94E90887E098E00E944D1167CF1D
:1028200090911208291738F48F5F891708F6E3BED4
:10283000889513BEBDCFD0921408409313088091A1
:102840000E0890910F08019690930F0880930E0840
:1028500080911008809311080E94F008809310085E
:102860008F2DF80181118FEF002481938193819343
:1028700081930394D1F710921908109218081092BE
:10288000170810921608E0918C01F0E0EE0FFF1F80
:10289000E556F84F85919491FC01099580E00E94DE
:1028A000380486CF8F929F92AF92BF92CF92DF92E1
:1028B000EF92FF92CF93DF93EC01688179818A8157
:1028C0009B81611571058105910521F464E279ED23
:1028D0008BE597E02DE133EF41E050E00E940C15CD
:1028E00049015A019B01AC01A7EAB1E40E942B15F2
:1028F0006B017C01ACEEB4EFA50194010E94391587
:10290000C60ED71EE81EF91EF7FE06C081E0C81AE3
:10291000D108E10880E8F80AC882D982EA82FB82FD
:10292000C701B6019F77DF91CF91FF90EF90DF90C5
:10293000CF90BF90AF909F908F9008958F929F926D
:10294000AF92BF92CF92DF92EF92FF9260910F0110
:102950007091100180911101909112016115710522
:102960008105910521F464E279ED8BE597E02DE195
:1029700033EF41E050E00E940C1549015A019B01E0
:10298000AC01A7EAB1E40E942B156B017C01ACEE0F
:10299000B4EFA50194010E943915C60ED71EE81E9A
:1029A000F91EF7FE06C081E0C81AD108E10880E8E8
:1029B000F80AC0920F01D0921001E0921101F0923A
:1029C0001201C701B6019F77FF90EF90DF90CF9083
:1029D000BF90AF909F908F90089560930F01709378
:1029E000100180931101909312010895F999FECF7F
:1029F00092BD81BDF89A992780B50895262FF9993F
:102A0000FECF1FBA92BD81BD20BD0FB6F894FA9AD1
:102A1000F99A0FBE01960895052E97FB1EF40094B7
:102A20000E94231557FD07D00E943E1507FC03D0D6
:102A30004EF40C94231550954095309521953F4FB9
:102A40004F4F5F4F089590958095709561957F4F9A
:102A50008F4F9F4F08950E946015A59F900DB49FC2
:102A6000900DA49F800D911D11240895B7FF0C9423
:102A70002B150E942B15821B930B0895A1E21A2E91
:102A8000AA1BBB1BFD010DC0AA1FBB1FEE1FFF1F12
:102A9000A217B307E407F50720F0A21BB30BE40B62
:102AA000F50B661F771F881F991F1A9469F76095A9
:102AB0007095809590959B01AC01BD01CF01089563
:102AC000A29FB001B39FC001A39F700D811D11246F
:102AD000911DB29F700D811D1124911D0895AA1B97
:102AE000BB1B51E107C0AA1FBB1FA617B70710F0F9
:102AF000A61BB70B881F991F5A95A9F7809590952B
:102B0000BC01CD010895EE0FFF1F0590F491E02D5B
:102B1000099481E090E0F8940C946618AEE0B0E07F
:102B2000E4E9F5E10C943D180D891E8986E08C835B
:102B30001A8309838FEF9FE79E838D83AE01475EE3
:102B40005F4F6F89788DCE0101960E94B1152F815C
:102B50003885020F131FF80110822E96E4E00C94C2
:102B60005918ABE0B0E0E7EBF5E10C942F187C01CD
:102B70003B018A01FC0117821682838181FFC8C153
:102B8000CE0101965C01F7019381F30193FD8591DC
:102B900093FF81913F01882309F453C1853239F4B1
:102BA00093FD859193FF81913F01853229F4B7010F
:102BB00090E00E94A117E7CF912C212C312CFFE14E
:102BC000F31538F08B3211F190F4803209F1833231
:102BD00029F137FC3CC020ED280F2A3050F536FE95
:102BE00020C08AE0989E200D1124922E06C08D32BE
:102BF00091F0803371F7689430F8F30193FD85917B
:102C000093FF81913F018111DACF21C0689431F89F
:102C1000689432F8F2CF689433F8EFCF689434F8C0
:102C2000ECCFEAE02E9E200D1124222E689435F878
:102C3000E4CF8E3229F436FC04C1689436F8DDCF37
:102C40008C3619F4689437F8D8CF8836B1F2982FBB
:102C50009F7D95549330E0F08336A1F18337C1F125
:102C6000833509F063C02801F2E04F0E511CF801D2
:102C7000C080D180692D70E036FC02C06FEF7FEF1D
:102C8000C6010E948B174C01689437F882010AC074
:102C90000C5F1F4FFFE3F98388248394912C650117
:102CA000E89437F833FE2DC0522C8114910471F54D
:102CB000552009F468CFB70180E290E00E94A11787
:102CC0005A94F6CFF801808189830E5F1F4FE4CFBD
:102CD0002801F2E04F0E511CF801C080D180692D0F
:102CE00070E036FC02C06FEF7FEFC6010E949617BE
:102CF0004C018201D5CFB70180E290E00E94A1177C
:102D00002A942814190409F0B0F7CECFF60137FC45
:102D1000859137FE81916F01B70190E00E94A11764
:102D200051105A94F1E08F1A9108BFCF843619F0F0
:102D3000893609F077C0F80137FE6BC06081718178
:102D4000828193810C5F1F4FF32DFF763F2E97FFFB
:102D500009C090958095709561957F4F8F4F9F4FDB
:102D6000689437F82AE030E0A5010E94D117C82EF8
:102D7000CA188C2C432C36FE0CC0E89440F8C914B9
:102D800040F434FE05C032FC03C0F32DFE7E4F2E0E
:102D9000892C44FE95C0FE01EC0DF11D808180332D
:102DA00009F087C0242D297E422E842D8870582E4C
:102DB00043FC95C040FE8FC09C2C821418F42C0C50
:102DC000922C981844FE91C0B70180E390E00E94D5
:102DD000A11742FE09C088E790E041FE02C088E5E5
:102DE00090E0B7010E94A117C91408F48AC0CA94E0
:102DF000D12C9FEFC91AD90ACA0CDB1CF6018291AB
:102E00006F01B70190E00E94A117AC14BD04B1F7A7
:102E10004FCF60817181072E000C880B990B0E5FDC
:102E20001F4F92CFD32CE894D4F82AE030E08537B6
:102E300039F1232D297FD22E8F3601F148F48835C0
:102E4000A9F0F701868197812B96E2E10C944B184B
:102E5000803749F08837A9F7D4FE02C06894D2F8C9
:102E600020E130E00DC06894D4F8F6CF34FE03C002
:102E7000822F8660D82E20E132E002C028E030E0C8
:102E8000F801D7FE0FC060817181828193810C5F50
:102E90001F4FA5010E94D117C82ECA183D2CE894D7
:102EA00037F867CF6081718190E080E00E5F1F4F3F
:102EB000F0CF42FC02C0839478CF8394839475CF83
:102EC000842D867809F471CFF6CFB70180E290E0C7
:102ED0000E94A11783948214C0F3512C73CF522CFB
:102EE0005818821408F46ECFF8CF842D867809F430
:102EF0007BCF8BE241FE80E247FC8DE2B70190E0A0
:102F000071CFB70180E390E00E94A1179A946CCF33
:102F10008FEF9FEF99CFFC01059061507040011039
:102F2000D8F7809590958E0F9F1F0895FC016150F2
:102F3000704001900110D8F7809590958E0F9F1FDB
:102F400008950F931F93CF93DF93182F092FEB0151
:102F50008B8181FD09C01FEF0FEF812F902FDF9133
:102F6000CF911F910F91089582FF14C02E813F8150
:102F70008C819D81281739073CF4E881F981CF01C4
:102F800001969983888310838E819F8101969F8308
:102F90008E83E3CFE885F985812F0995892BA1F3ED
:102FA000DACFFA01AA27283051F1203181F1E894D3
:102FB0006F936E7F6E5F7F4F8F4F9F4FAF4FB1E02C
:102FC0003ED0B4E03CD0670F781F891F9A1FA11D27
:102FD000680F791F8A1F911DA11D6A0F711D811D28
:102FE000911DA11D20D009F468943F912AE0269FED
:102FF00011243019305D3193DEF6CF010895462F4C
:103000004770405D4193B3E00FD0C9F7F6CF462F2C
:103010004F70405D4A3318F0495D31FD4052419395
:1030200002D0A9F7EACFB4E0A69597958795779552
:103030006795BA95C9F700976105710508959B01D9
:10304000AC010A2E06945795479537952795BA9562
:10305000C9F7620F731F841F951FA01D08952F923B
:103060003F924F925F926F927F928F929F92AF9218
:10307000BF92CF92DF92EF92FF920F931F93CF9365
:10308000DF93CDB7DEB7CA1BDB0B0FB6F894DEBFFC
:103090000FBECDBF09942A88398848885F846E8422
:1030A0007D848C849B84AA84B984C884DF80EE806C
:1030B000FD800C811B81AA81B981CE0FD11D0FB675
:1030C000F894DEBF0FBECDBFED010895F894FFCF99
:1030D0000FB001FFFFFFFF00E10000000000000152
:1030E000000000030100C18081000000000000001A
:1030F000AD054507CE05C3051406D205F005000051
:1031000000001009C006150A140A4D11FCFF00004A
:103110008F114D697373536E616B650070726573C7
:1031200073204120746F207374617274002020201A
:0831300020200025303375005A
:00000001FF
