:100000000C94F4060C941C070C941C070C941C070D
:100010000C941C070C941C070C941C070C941C07D4
:100020000C941C070C941C070C94CB100C943A11E4
:100030000C941C070C941C070C941C070C941C07B4
:100040000C941C070C949F140C941C070C941C0714
:100050000C941C070C941C070C941C070C946C1338
:100060000C941C070C941C070C941C070C941C0784
:100070000C941C070C941C070C941C070C941C0774
:100080000C94B6130C941C070C941C070C941C07BE
:100090000C941C070C941C070C941C070C941C0754
:1000A0000C941C070C941C070C941C07787884860D
:1000B00003FF000088502050880000000103030067
:1000C000000000000000000000000080C0C0E0F060
:1000D000F0F0F0E0E0C0C080800000000000000010
:1000E0000080C0F0F8FCFCFCFEFEFEFEFE3C0000C2
:1000F00000000000000000000000000000000007F9
:100100001F1F7FFFFFFEFCF9FBF7E7CFDF1F1F9EDE
:10011000C8E0F838C4CFEFFFFFFFFFFFFFFFFFFF8E
:10012000FFF8F0C000000000000000000000000028
:100130000000000000000F1FFFDF9F3FDFDFDFFF39
:10014000E0EEEEFFFFFFFC630FDFEFE7F7F7F7F7F7
:10015000E7EFEFFFDFBF7FFFCF0080000000000070
:10016000000000004040800000005FBFFFDFDF3E76
:10017000F0FFFFFFFFFFFFFFFFFFFFFCFF1FC7FBBD
:100180007D3FBFBFFEDEDFCDE3E9CC07E9E7E586D3
:100190008600000000000000000000017E7EFCFDE3
:1001A000FF3B1337610FFFFFFFFFFF7F7F7FFFFFE5
:1001B000FFF003FDFEFF8787030101010383CF509A
:1001C0006FEFEFDFDFE0C000000000000000183C30
:1001D000FCFCDFCBE7E8E8F0F8E8EFEDECEEEECE84
:1001E0009F3E7EFEFCFDFFF8FF7F373797CCE03463
:1001F0001B090D07060607030301000000000000AD
:1002000000007FFFFFFF7F7C3C9FDFDFDF9F3F7FA2
:100210007CFCFCFFFFFF60673F9F472198E6F1F100
:10022000FD010000000000000000000000000000D0
:100230000000000000000000000000384E3F0100F8
:1002400000060C08C80909E9E5F4F6FAF9FDFEFF15
:1002500001FFFFFFFF0000000000000000000000A1
:10026000000000000000000000000080C0C0E0F0BE
:10027000F0F0F0E0E0C0C08080000000000000006E
:100280000080C0F0F8FCFCFCFEFEFEFEFE3C000020
:100290000000000000000000000000000000000757
:1002A0001F1F7FFFFFFEFCF9FBF7E7CFDF1F1F9E3D
:1002B000C8E0F838C4CFEFFFFFFFFFFFFFFFFFFFED
:1002C000FFF8F0C000000000000000000000000087
:1002D0000000000000000F1FFFDF9F3FDFDFDFFF98
:1002E000E0EEEEFFFFFFFC630FDFEFE7F7F7F7F756
:1002F000E7EFEFFFDFBF7FFF0F000000000000000F
:10030000000000000000000000001FBFFFDFDF3E14
:10031000F0FFFFFFFFFFFFFFFFFFFFFCFF1FC7FB1B
:10032000FDFFFFFFFEFEFFFDFBEFDC3F78A020801E
:100330008020000000000020204010205C5C3E7FF8
:10034000FFFF7FFF610FFFFFFFFFFF7F7F7FFFFF4B
:10035000FFF00FDFDFDFBFBF3F1F1F2F2FA7D751DA
:1003600069E2E8DFDFE0C000000000000000183CA8
:10037000FCFCDFCBE6E8E8F0F8E8EFEDECEEEECEE3
:100380009F3E7EFEFCFDFFF8FF7F373797CC603441
:100390001B090D070606070303010000000000000B
:1003A00000007FFFFFFF7F7C3C9FDFDFDF9F3F7F01
:1003B0007CFCFCFFFFFF6067BFDFE7E104F2F9F9B7
:1003C000FC00000000000000000000000000000031
:1003D0000000000000000000000000000101010119
:1003E00001010101FE0000FFFFFEFFFFFFFFFFFF15
:1003F00000FFFFFFFF000000000000000000000001
:10040000000000000000000000C0FCFCF000000044
:1004100000F0FC1E0000F0F060000080E060606012
:10042000E00000808080808000000000000000006C
:1004300000000000000000000000000000000000BC
:1004400000FFFFFF070E1C9C8EBFFFFE003FFFFF5B
:10045000F000070F1FFCF8E0001C3E7FF1E1810374
:100460000300000000000000000000000000000089
:1004700000000000000000003C1F0F03F8FEFFE733
:10048000C1810303000C0F0700000C1C0E0F078036
:10049000903030989F0F030000000000000000F033
:1004A000F0000080C04000000000000000000000DC
:1004B00000000000808181C3E3FF7F3E180080F0D0
:1004C0003FCFFC0080FC7F070380FCFFC1E76E7C10
:1004D000F0C0000000F8FF1FF8EC860301F0F83CC4
:1004E0003C1C0C04000000C060703E1F070707039F
:1004F000010000003C3E1F0F000F1F1E07010000FF
:100500003C3F1F0101000000070700381F070000E3
:1005100000031F3E70077F7F7371302000000000D2
:1005200000000000000000000000000000000000CB
:1005300000000000000000000000000000000000BB
:1005400000000000000000000000000000000000AB
:10055000000000000000060F0F060F0F0F0F3F02F4
:10056000043F003E2A22000E3008300E00003F04F7
:10057000043F003E001C222A3A003E08083E0000CC
:1005800026292910001C2222001C22221C003E0ABF
:100590000A34003E2A2200002F002FF0F0FCFC0F4E
:1005A0000FCFCFCFCFCFCF000000F0F0FCFC0F0F6C
:1005B0000F0F0F0FFCFCF0F000FCFCFFFF3C3CF0C9
:1005C000F03C3CFFFFFCFC00FCFCFFFFCFCFCFCF9B
:1005D000CFCF0F0F00000000F0F0FCFC1F0F0F0F3B
:1005E0000F1FFCFCF0F000FFFFFCFC00000000000F
:1005F00000FCFCFFFF00FCFCFFFFCFCFCFCFCFCF35
:100600000F0F00FCFCFFFF0F0F0F0FFFFFFCFC0F95
:100610000F3F3FF0F0F3F3F3F3FFFF3F3F00FFFF27
:10062000FFFF0F0F0F0F0F0FFFFFFFFF00FFFFFF79
:10063000FF000003030000FFFFFFFF003F3FFFFF3D
:10064000F3F3F3F3F3F3F0F0000000000F0F3F3F7C
:10065000F8F0F0F0F0F83F3F0F0F0003030F0F3FEB
:100660003FFCFC3F3F0F0F0303003F3FFFFFF3F34F
:10067000F3F3F3F3F0F000FFFFFFFF0F0F0F0FFF97
:10068000F8F8F800000000003E5B4F5B3E3E6B4F09
:100690006B3E1C3E7C3E1C183C7E3C181C577D5714
:1006A0001C1C5E7F5E1C00183C1800FFE7C3E7FFC0
:1006B0000018241800FFE7DBE7FF30483A060E2653
:1006C00029792926407F050507407F05253F5A3CAB
:1006D000E73C5A7F3E1C1C08081C1C3E7F14227FEE
:1006E00022145F5F005F5F06097F017F00668995C6
:1006F0006A606060606094A2FFA29408047E0408AF
:1007000010207E201008082A1C08081C2A08081E31
:10071000101010100C1E0C1E0C30383E3830060E17
:100720003E0E06000000000000005F000000070011
:100730000700147F147F14242A7F2A1223130864CD
:100740006236495620500008070300001C22410071
:100750000041221C002A1C7F1C2A08083E080800B1
:100760008070300008080808080000606000201051
:100770000804023E5149453E00427F40007249490B
:1007800049462141494D331814127F1027454545EC
:10079000393C4A494931412111090736494949360D
:1007A000464949291E0000140000004034000000A2
:1007B00008142241141414141400412214080201D4
:1007C0005909063E415D594E7C1211127C7F494900
:1007D00049363E414141227F4141413E7F4949499D
:1007E000417F090909013E414151737F0808087F93
:1007F00000417F41002040413F017F081422417F9A
:10080000404040407F021C027F7F0408107F3E4131
:1008100041413E7F090909063E4151215E7F091988
:100820002946264949493203017F01033F404040A0
:100830003F1F2040201F3F4038403F63140814638F
:1008400003047804036159494D43007F414141024B
:1008500004081020004141417F040201020440408D
:10086000404040000307080020545478407F28444B
:1008700044383844444428384444287F3854545435
:100880001800087E090218A4A49C787F0804047844
:1008900000447D40002040403D007F10284400007F
:1008A000417F40007C047804787C08040478384454
:1008B000444438FC1824241818242418FC7C080408
:1008C0000408485454542404043F44243C40402029
:1008D0007C1C2040201C3C4030403C4428102844D4
:1008E0004C9090907C4464544C4400083641000085
:1008F00000770000004136080002010204023C2695
:1009000023263C1EA1A161123A4040207A3854545B
:1009100055592155557941215454784121555478E0
:100920004020545579400C1E527212395555555974
:10093000395454545939555454580000457C410099
:1009400002457D420001457C40F0292429F0F02831
:100950002528F07C545545002054547C547C0A09C9
:100960007F4932494949323248484832324A484838
:10097000303A4141217A3A42402078009DA0A07D42
:1009800039444444393D4040403D3C24FF24244800
:100990007E4943662B2FFC2F2BFF0929F620C088A8
:1009A0007E090320545479410000447D4130484879
:1009B0004A32384040227A007A0A0A727D0D193193
:1009C0007D2629292F28262929292630484D4020EF
:1009D000380808080808080808382F10C8ACBA2FCB
:1009E000102834FA00007B000008142A1422221474
:1009F0002A14089500220095AA005500AAAA55AA13
:100A000055AA000000FF00101010FF00141414FF7E
:100A1000001010FF00FF1010F010F0141414FC0070
:100A20001414F700FF0000FF00FF1414F404FC147A
:100A30001417101F10101F101F1414141F00101073
:100A400010F0000000001F101010101F10101010E8
:100A5000F010000000FF101010101010101010FF08
:100A600010000000FF140000FF00FF00001F10171F
:100A70000000FC04F414141710171414F404F40008
:100A800000FF00F714141414141414F700F71414CE
:100A900014171410101F101F141414F4141010F055
:100AA00010F000001F101F0000001F14000000FCC9
:100AB000140000F010F01010FF10FF141414FF14B5
:100AC0001010101F00000000F010FFFFFFFFFFF0EC
:100AD000F0F0F0F0FFFFFF0000000000FFFF0F0F3D
:100AE0000F0F0F38444438447C2A2A3E147E0202F9
:100AF0000606027E027E0263554941633844443C47
:100B000004407E201E2006027E020299A5E7A599D8
:100B10001C2A492A1C4C7201724C304A4D4D30300F
:100B200048784830BC625A463D3E494949007E01FA
:100B300001017E2A2A2A2A2A44445F444440514A19
:100B4000444040444A51400000FF0103E080FF0060
:100B50000008086B6B083612362436060F090F069C
:100B6000000018180000001010003040FF010100C4
:100B70001F01011E00191D1712003C3C3C3C0000E7
:100B800000000000000000240027002A002D003093
:100B90000000000000250028002B002E003100047A
:100BA000080201104080401020408040800802046C
:100BB00001804020100201108010204040200404D9
:100BC00004040403040502020202040302020202F6
:100BD00006060606060604040202020404060115BF
:100BE00001260137014A015D01720188019F01B8A8
:100BF00001D201EE010B022A024B026E029302BAED
:100C000002E40210033F037003A403DC031704553E
:100C1000049704DD0427057505C80520067D06E058
:100C2000064907B8072D08A9082D09B9094D0AEA90
:100C30000A900B400CFA0CC00D910E6F0F5A105316
:100C4000115B1272139A14D41520178018F51980AD
:100C50001B231DDE1EB420A622B524E4263429A7BA
:100C60002B402E0031EA330037453ABC3D68414CF9
:100C7000456B49C84D68524F57805C006210111295
:100C800013151617181A1C1D1F21232527292C2E72
:100C90003134373A3E4145494E52575C62686E7571
:100CA0007B838B939CA5AFB9C4D0DCE9F7F0F89CAB
:100CB0008E8783878E9CF8F00000FEFF03030303FA
:100CC00003070EFCF80000FEFF0303030303070EF7
:100CD000FCF80000FFFF00000000000000FFFF0024
:100CE00000FEFF8383838383C7EE7C380000F8FC1B
:100CF0000E07030303070EFCF800003F7FE0C080EF
:100D000080C0E07F3FFFFF01010101010101FFFF02
:100D10000000FFFF0C0C0C0C1C3E77E3C100007FB1
:100D2000FFC0C0C0C0C0E0703F1F00001F3F70E0A8
:100D3000C0C0C0E0703F1F00007FFFC1C1C1C1C182
:100D4000E3773E1C00001F3F70E0C0C0C0E0703F72
:100D50001F000000000001FFFF01000000D5F08D22
:100D600014A1C881CFD9F1AF2000750F6B0D3B10D6
:100D7000080B000202020000090400000102020048
:100D800000052400100105240101010424020605C8
:100D90002406000107058103100040090401000238
:100DA0000A00000007050202400000070583024018
:100DB00000000403090412010002EF020140412374
:100DC000368000010102030141726475696E6F2073
:100DD0004C4C430041726475696E6F204C656F6EB8
:100DE0006172646F0000881511241FBECFEFDAE036
:100DF000DEBFCDBF11E0A0E0B1E0E8EEF8E302C055
:100E000005900D92A435B107D9F728E0A4E5B1E02B
:100E100001C01D92A531B207E1F716E0C4EFD6E09C
:100E200004C02197FE010E948F19C33FD107C9F763
:100E30000E9414160C94721C0C94000080915701AF
:100E40000895E5E9F1E0A0E0B8E000800EBC811172
:100E5000012C1197A0FDFDCF0192B9F70DB40895B3
:100E60009091FA07982329F49091F907982381E04B
:100E700009F480E008956F927F928F929F92AF92D3
:100E8000BF92CF92DF92EF92FF920F931F93CF9377
:100E9000DF93803891050CF096C0FB01E00FF11D47
:100EA000F7FD91C0603471050CF08DC0DB0177FF58
:100EB00004C0AA27BB27A61BB70BA770BB27FB0143
:100EC00077FD3796C3E0F595E795CA95E1F777FF8B
:100ED00007C0319768E070E0EB01CA1BDB0BDE0155
:100EE000A02EA694A694A694B12C077019F0DFEF5B
:100EF000AD1ABD0A30E0BF01EA01AF015695542F8B
:100F0000442757954795480F591F4B565E4FA60EDD
:100F1000B71E00E810E0081B190B88E090E04C01B8
:100F20008A1A9B0AA616B70609F44DC068307105E7
:100F300009F449C06F3FEFEF7E070CF43AC090E030
:100F400080E07A01F0E8EF0EF11C6F3F7607C1F107
:100F5000FC01EC0FFD1FE4916A01C80ED91EF0E000
:100F60003F010A2E01C0660C0A94EAF7F601708070
:100F7000672860821097B1F06730710599F0FE0123
:100F8000E80FF91FE4916701C80ED91EF0E03F0198
:100F9000082C02C0759467940A94E2F7F6017080F9
:100FA000672860820196821793071CF408171907B7
:100FB00061F66F5F7F4FC20FD31F40585F4FB2CFB4
:100FC0001097E9F6EFCFDF91CF911F910F91FF902E
:100FD000EF90DF90CF90BF90AF909F908F907F90D9
:100FE0006F900895CF92DF92EF92FF92CF93DF93AD
:100FF000EC016A017B01E091E505F091E6050995B8
:101000008823F1F1809194018230D0F181E08093C6
:101010009301809192018093910180918100887F5A
:10102000816080938100DE01AA0FBB1FA70196019A
:101030000E94371928EE33E040E050E00E944A1940
:1010400069017A019E0150E040E060E072E18AE7C8
:1010500090E00E941819215031094109510930933B
:10106000890020938800C0928D01D0928E01E09279
:101070008F01F092900180916F00826080936F00E9
:10108000DF91CF91FF90EF90DF90CF900895FC011A
:1010900080918C01882311F13FB7F89482E080930E
:1010A000E9002091F200822F90E01816190614F43E
:1010B00081E090E0882339F0289844E640938B0142
:1010C0004091F1004083222339F02091F200211158
:1010D00003C02BE62093E8003FBF08958FEF9FEFFA
:1010E00008952FB7F89483E08093E9009091E80089
:1010F000892F807295FF04C09091F20080E4891BD3
:101100002FBF08958091830181110DC082E08093EB
:101110007F0184E08093800110928201109281010E
:1011200081E0809383018FE791E00895CF93DF936F
:101130001F92CDB7DEB76983DC01ED91FC9102808F
:10114000F381E02D41E050E0BE016F5F7F4F0995D4
:101150000F90DF91CF91089583E08093E900809113
:10116000F200882319F08AE38093E80008950E9432
:10117000710890E00895CF93DF931F92CDB7DEB74B
:10118000FC018485958597FD08C02FEF3FEF3587DB
:1011900024870F90DF91CF910895CE0101960E9490
:1011A0004708019719F4898190E0F3CF8FEF9FEF03
:1011B000F0CF0F931F93CF93DF931F92CDB7DEB77E
:1011C0008C01FC018485958597FF0BC0CE010196AB
:1011D0000E944708019771F4898190E0F801958792
:1011E0008487F801848595850F90DF91CF911F91B9
:1011F0000F9108958FEF9FEFF1CFFC0184859585C6
:1012000097FD0BC09FB7F89482E08093E90080912E
:10121000F2009FBF90E0019608959FB7F89482E096
:101220008093E9008091F2009FBF90E00895409183
:10123000790150917A01209177013091780142171C
:101240005307B4F49091E8009570E1F39091E800B1
:1012500092FD19C08093F1008091790190917A01FB
:1012600001968F739927892B19F48EEF8093E800EC
:101270008091790190917A01019690937A018093FF
:10128000790181E0089580E00895DF92EF92FF9266
:101290000F931F93CF93DF93D82E8A01EB017B012D
:1012A000E40EF51ECE15DF0559F0D7FE12C0FE0183
:1012B00084910E94170921968111F4CF0FEF1FEF3F
:1012C000C801DF91CF911F910F91FF90EF90DF90B8
:1012D00008958881EECF0F931F93CF93DF931F92D2
:1012E000CDB7DEB782E0898342E450E060E77DE07D
:1012F00080E80E9445090E948208DC0112960D9147
:101300001C910115110589F0D801ED91FC91028025
:10131000F381E02DBE016F5F7F4FC801099597FDF6
:1013200004C0F80100851185ECCF89810F90DF9111
:10133000CF911F910F910895615030F02091F100ED
:10134000FC0120830196F8CF289884E680938B01D6
:101350000895AF92BF92CF92DF92EF92FF920F93D8
:101360001F93CF93DF936C017B018B01040F151F3B
:10137000EB015E01AE18BF08C017D10759F06991A3
:10138000D601ED91FC910190F081E02DC601099507
:10139000892B79F7C501DF91CF911F910F91FF90B4
:1013A000EF90DF90CF90BF90AF9008953FB7F89443
:1013B00080916D0190916E01A0916F01B0917001CB
:1013C00026B5A89B05C02F3F19F00196A11DB11DA0
:1013D0003FBFBA2FA92F982F8827BC01CD01620FDC
:1013E000711D811D911D42E0660F771F881F991F97
:1013F0004A95D1F708958F929F92AF92BF92CF9264
:10140000DF92EF92FF926B017C010E94D6094B01A3
:101410005C01C114D104E104F104B9F00E94D609C1
:10142000681979098A099B09683E7340810591050D
:1014300080F321E0C21AD108E108F10888EE880E95
:1014400083E0981EA11CB11CE4CFFF90EF90DF90C9
:10145000CF90BF90AF909F908F9008958F929F9262
:10146000AF92BF92CF92DF92EF92FF920F931F93B2
:10147000CF93DF936C017B018A0180910F01882358
:1014800009F45CC080918C01882309F457C08091D5
:101490007E0180FF05C08091E00082608093E000C3
:1014A000E801B12C8AEFA82E93E0892E2AE3922E30
:1014B000209711F4BB20D9F10E94710881110AC054
:1014C000AA94AA20D9F161E070E080E090E00E9447
:1014D000FB09EECF8C171D0611F00CF08C2F9FB777
:1014E000F8948092E9002091E80025FD02C09FBF9A
:1014F000DFCF282F30E0C21BD30BF701815020F043
:1015000041914093F100FACFE20EF31EBB2021F08F
:101510009092E800B12CEBCF8091E80085FDE7CFF9
:101520009092E800BB24B394209709F3F3CF5D9821
:1015300084E680937D01101611063CF081E090E076
:10154000F6019383828310E000E0C801DF91CF9120
:101550001F910F91FF90EF90DF90CF90BF90AF90D1
:101560009F908F900895CF92DF92EF92FF921F93FA
:10157000CF93DF93E82FF0E0EC5EFE4F1081E62F73
:10158000F0E0603398F5E358F34FE491CE2FD0E0CC
:10159000F12CE12C60E074E284EF90E0A7019E0161
:1015A0000E941819215031094109510991E0211572
:1015B000310581E0480751056CF060E970ED83E08A
:1015C00090E0A7019E010E9418192150310941099C
:1015D000510993E0113089F0133039F1DF91CF9147
:1015E0001F91FF90EF90DF90CF900895EE0FFF1FB7
:1015F000E358F44FC591D491CBCF809193018111E1
:10160000EDCF80918100887F892B8093810030937A
:1016100089002093880010928500109284008091A8
:101620006F00826080936F00D9CF80919100887F96
:10163000892B809391003093990020939800109209
:10164000950010929400D0936B01C0936A0181E0E1
:101650008093690180917100826080937100BECF98
:10166000E82FF0E0EC5EFE4F8081813019F083308E
:10167000A9F008958091930181110FC080916F00AE
:101680008D7F80936F0080915C01E0915A01F09111
:101690005B01908180958923808308951092690170
:1016A000809191018111F9CF80916701E0916501ED
:1016B000F0916601EECF90919401923009F471C0DF
:1016C000292F30E0F901EC5EFE4F4081285A3E4F51
:1016D000F9018083913031F420915801281302C020
:1016E00090935D019F5F9093940190E0FC01E25420
:1016F000F44F24918156944FFC01849130E0220FE5
:10170000331FF901EF56F44F65917491F901ED57CC
:10171000F44FA591B4919C91982B9C93413019F072
:101720004330D9F0089590916400977F90936400BE
:1017300010928000109281009091810098609093A7
:1017400081009091810091609093810070935B0182
:1017500060935A0180935C01089590916500977F92
:1017600090936500109290001092910090919100DA
:101770009860909391009091910091609093910066
:101780007093660160936501809367018091940175
:10179000882321F06CE380E00E94B30A80E00C947F
:1017A000300B08952D9A0895BC0190E080E00C94D0
:1017B000FB098FB18095807F669B88601C9B84604D
:1017C0000895109257013E983F9808953E9A3F9A87
:1017D00081E080935701089520E191E061FD94E05C
:1017E00060FD990F62FD9295687F269FD0011124BC
:1017F000A80FAB56BE4F8C9140FF03C0892B8C9332
:10180000089590958923FBCF2F923F924F925F923C
:101810006F927F928F929F92AF92BF92CF92DF9200
:10182000EF92FF920F931F93CF93DF93CDB7DEB765
:1018300028970FB6F894DEBF0FBECDBF9E838D8371
:101840006A3061F5DC0155968C91B8E08B9F900170
:101850001124ED81FE8181899289820F931F928BE1
:10186000818B108A178681E090E028960FB6F89455
:10187000DEBF0FBECDBFDF91CF911F910F91FF90C3
:10188000EF90DF90CF90BF90AF909F908F907F9020
:101890006F905F904F903F902F9008956D3019F3A7
:1018A0002D813E8138872F83D9011F960D911C9180
:1018B0005097003811050CF07CC05196AD90BC904B
:1018C000B0E4AB16B1040CF074C0F901258825E032
:1018D000C801229E800D911D1124181619060CF0C6
:1018E00068C0622C712CC30133E0880F991F3A95B0
:1018F000E1F78A0D9B1D181619060CF05AC0F489E1
:10190000FB83AF81B8855396BC91BC83629FB001C5
:101910001124FB01ED57F94F2F011982F201849137
:10192000F981F53009F480E0450128E02A83A82FE9
:10193000B0E0BE83AD833C8080FF3B80311004C0AB
:10194000BB81EC81BE17F9F078018E2D801B8215CA
:10195000D0F4D12CC12CC21490F4F0E8EF16F104AD
:1019600050F4B601680D791D6034710520F4432DE3
:10197000C7010E94EC0B2FEFC21AD20AECCF3FEF47
:10198000E31AF30AE2CF8D819E81959587959A811E
:1019900091509A83860C971C9111C9CFA981AF5F92
:1019A000A983BFEF4B1A5B0A060D171DA63009F07D
:1019B000B5CFEF81F8852589422F50E08785908942
:1019C000F6E02F9F800D911D1124AF81B8855096B0
:1019D0009C938E931F9756962C915697222309F429
:1019E00042CF6AEF64039001659F300D11242058A7
:1019F0003F4F281739070CF036CFED91FC91119726
:101A00000190F081E02D6AE0CD0109952CCF089579
:101A1000089590E080E008958F929F92AF92BF92D8
:101A2000CF92DF92EF92FF9280900908912CB12C17
:101A3000A12CC0900B08D12C8FEFC81AD80A0D2CFE
:101A4000000CEE08FF08C814D904EA04FB048CF467
:101A50008C189D08AE08BF0841F00E94AA18A50185
:101A600094010E9418194B015C01C80CD91CEA1C96
:101A7000FB1CC092E70580900A08912CB12CA12C88
:101A8000C0900C08D12C8FEFC81AD80A0D2C000C6E
:101A9000EE08FF08C814D904EA04FB048CF48C187F
:101AA0009D08AE08BF0841F00E94AA18A501940144
:101AB0000E9418194B015C01C80CD91CEA1CFB1CC4
:101AC000C092E805FF90EF90DF90CF90BF90AF906D
:101AD0009F908F9008950F93CF93DF938091030190
:101AE000882331F180910F088093ED0780911008D1
:101AF0008093EE0783E08093EF078091070880933F
:101B0000E905809108088093EA051092EB0710928E
:101B1000EC070E940C0D1092560180EB94E090931C
:101B20000201809301018FE0809300011092030174
:101B300080E80E9430078823A1F09091ED07809102
:101B40001108981306C09091EE078091120898171B
:101B500041F0809113088093ED07809114088093E1
:101B6000EE0780E10E9430078823A1F09091ED07F5
:101B700080911308981306C09091EE078091140885
:101B8000981741F0809111088093ED078091120819
:101B90008093EE0780E20E9430078823A1F09091A5
:101BA000ED0780910F08981306C09091EE07809181
:101BB0001008981741F080910D088093ED078091EF
:101BC0000E088093EE0780E40E9430078823A1F07E
:101BD0009091ED0780910D08981306C09091EE0743
:101BE00080910E08981741F080910F088093ED07BF
:101BF000809110088093EE0784E00E9430078823CC
:101C000039F080915701882309F48EC00E94E10BBE
:101C10006091000170E08091F7079091F8070E94B1
:101C20007B19892B09F05FC02091EC079091E905A1
:101C30008091EA052F3F69F0E091EB07E20FF0E0B9
:101C4000EE0FFF1FE751FA4F928383832F5F20939C
:101C5000EC072091ED07920F9093E9052091EE0794
:101C6000820F8093EA052091EF07222309F45FC0D9
:101C700021502093EF072091E705291334C090915C
:101C8000E805981330C08091EF078F5F8093EF07CE
:101C9000809156018F5F809356010E940C0D42E3A4
:101CA00050E060E070E084EF91E00E94F20760E5B0
:101CB00070E080E090E00E94FB0942E350E060E0C9
:101CC00070E080E293E00E94F20760E570E080E05F
:101CD00090E00E94FB0944E650E060E070E08CE494
:101CE00094E00E94F2074091EC0750E06091EB070E
:101CF0002091E9053091EA0590E080E070E08417DA
:101D000095070CF0A2C0FB01E80FF91FFF27EE0FAB
:101D1000FF1FE751FA4FA281A21304C0E381E3172A
:101D200009F4A3C00196EBCF0E94E60B71CF20917E
:101D3000EC07222309F49FCF3091EB073F5F3093EC
:101D4000EB0721502093EC0796CF8191DF0111978B
:101D500084608C93B7C0C2E0D0E041E0BE0182E075
:101D600090E00E94EC0B2196CE33D105B1F7C2E092
:101D7000D0E041E0BE018DE790E00E94EC0B21969F
:101D8000CE33D105B1F76091EA0534E0639FB0012D
:101D900011248091E90504E024E04AE555E034E0AF
:101DA000839FC00111240E943B07D0E0C0E08091D6
:101DB000EC078C171D06D9F0D4F0E091EB07EC0F7F
:101DC000F0E0EE0FFF1FE751FA4F638134E0639FAD
:101DD000B0011124828104E024E04AE555E034E0BA
:101DE000839FC00111240E943B072196E0CF6091A0
:101DF000E80584E0689FB00111248091E70504E0C4
:101E000024E046E555E034E0839FC00111240E94A0
:101E10003B0780910101909102010197909302018B
:101E200080930101892B69F480910001863018F0BC
:101E300081508093000180EB94E0909302018093A5
:101E40000101DF91CF910F91089580910B088217C6
:101E500060F480910908281740F480910C088317DA
:101E600020F480910A08381750F181E08093030133
:101E700082E08093760140E550E060E070E08CE421
:101E800094E00E94F20764E670E080E090E00E9437
:101E9000FB0940E550E060E070E088EE93E00E94CE
:101EA000F20764E670E080E090E00E94FB0944EFF6
:101EB00051E060E070E084EF91E00E94F207E7E912
:101EC000F1E09DE7915009F040CFE7E1F5E09DE7B3
:101ED000915009F440CF8191DF01119780628C937A
:101EE000F7CF0C9402190E949519FF920F931F933C
:101EF000CF93DF9300D000D0CDB7DEB709E228E35F
:101F000046E054E070E060E084E390E00E943B072C
:101F10008091F7079091F8076CE370E00E947B19BD
:101F2000892B29F4809154018F5F80935401809113
:101F30005401837000E424E346E652E011F046ECDD
:101F400050E070E060E090E080E00E943B07FF24FA
:101F5000F394F092050808E310E010930008009352
:101F6000FF078CE290E090930208809301084AE01A
:101F700050E063E471E080EF97E00E94A90980914E
:101F80007101F09205082CE430E0309300082093B2
:101F9000FF0710930208009301081F928F938EE4AD
:101FA00091E09F938F938E010F5F1F4F1F930F93AD
:101FB0000E949A19F80101900020E9F73197AF01CA
:101FC000401B510BB80180EF97E00E94A9091091C6
:101FD00057010F900F900F900F900F900F901111CD
:101FE0000AC00AE02DE04CEA50E070E060E080E7D3
:101FF00090E00E943B070E94D90B84718431E9F480
:1020000080917101882379F044E150E060E070E054
:1020100089EA91E00E94F2071092710160E08FE678
:1020200090E00E940A190F900F900F900F90DF918F
:10203000CF911F910F91FF90089584E00E94300787
:10204000882341F0112319F00E94E10BECCF0E948C
:10205000E60BE9CF88E00E943007882321F344E1B2
:1020600050E060E070E089EA91E00E94F20781E0D0
:1020700080937601D8CF0F931F93CF93DF9300D037
:1020800000D0CDB7DEB780910301882391F0609135
:10209000560180917101861708F07AC06093710132
:1020A0008FE690E00E940A1981E08093550110921A
:1020B00003018091F7079091F8076EE170E00E94AC
:1020C0007B19892B29F4809154018F5F80935401EF
:1020D00000E124E74BE955E068E070E086E090E03D
:1020E0000E943B078091560192E09093050820E3FF
:1020F00030E0309300082093FF0720E230E0309377
:102100000208209301081F928F938EE491E09F9321
:102110008F938E010F5F1F4F1F930F930E949A1989
:10212000F80101900020E9F73197AF01401B510BF6
:10213000B80180EF97E00E94A9090F900F900F90CF
:102140000F900F900F9080915501882371F080912E
:10215000540180FD0AC006E02DE34EE555E068E33A
:1021600070E081E290E00E943B078CE00E94300723
:10217000882329F081E080930301109276010F906B
:102180000F900F900F90DF91CF911F910F910895B5
:10219000109255018CCF1F920F920FB60F921124FF
:1021A0008F939F938091E1009091E100937F9093B2
:1021B000E10083FF0FC01092E90091E09093EB00E3
:1021C0001092EC0092E39093ED0010928C0198E055
:1021D0009093F00082FF22C093E09093E9009091E9
:1021E000F200992319F09AE39093E80090917D0111
:1021F000992341F090917D01915090937D0191112F
:1022000001C05D9A90918B01992341F090918B01CF
:10221000915090938B01911101C0289A84FF18C0AE
:102220008091E2008E7E81608093E2008091E100E7
:102230008F7E8093E10080917E018E7E806180930D
:102240007E019F918F910F900FBE0F901F90189558
:1022500080FFF7CF8091E2008E7E80618093E20064
:102260008091E1008E7E8093E10080917E018E7EE0
:102270008160E5CF1F920F920FB60F921124CF927B
:10228000DF92EF92FF920F931F932F933F934F9301
:102290005F936F937F938F939F93AF93BF93EF93CE
:1022A000FF93CF93DF93CDB7DEB76C97DEBFCDBF83
:1022B0001092E9008091E80083FF25C068E0CE011C
:1022C00045960E949C0982EF8093E8008D8987FFE4
:1022D00039C09091E80090FFFCCF982F907609F0DC
:1022E00034C19E894F89588D2F89F88C911131C046
:1022F000803861F580917C018093F1001092F100AB
:102300008EEF8093E8006C960FB6F894DEBF0FBE98
:10231000CDBFDF91CF91FF91EF91BF91AF919F9191
:102320008F917F916F915F914F913F912F911F916D
:102330000F91FF90EF90DF90CF900F900FBE0F9016
:102340001F9018959EEF9093E800C7CF1092F10070
:10235000D5CF913059F48111D3CF4130510581F659
:1023600080917C018D7F80937C01CACF933049F4AA
:102370008111C6CF4130510519F680917C018260F0
:10238000F2CF953041F48091E80080FFFCCF2068C7
:102390002093E300B5CF963009F0A9C00B8D1C8DBA
:1023A00022E01092E90010927A0110927901F21263
:1023B0002EC010927801109277010E946B091F8243
:1023C00099E09983FA8291E09E8390EA98879AEF48
:1023D00099872091790130917A01275F3F4F3C83A3
:1023E0002B838D831092E90010927A01109279016B
:1023F000109378010093770149E050E0BE016F5FD0
:102400007F4F80E00E9445090E946B0979CF1093AD
:102410007801009377010E948208DC0112960D91E9
:102420001C910115110509F451C1D801ED91FC91E0
:102430000480F581E02DBE016B5E7F4FC8010995D8
:10244000009709F03EC1F80100851185EACFF3E05D
:10245000FF120EC08F89882309F440C0823061F4D6
:1024600040E860E184ED9DE00E941015811148CFA5
:1024700081E28093EB0047CF813029F440E86BE0A4
:1024800088EC9DE0F1CF833099F70E948208DC014F
:102490001296ED90FC908E010F5F1F4F6801E114C2
:1024A000F10479F0D701ED91FC910680F781E02DE0
:1024B000B801C7010995080F111DF701E084F184E7
:1024C000EECFD8011C92F60101900020E9F7319778
:1024D000BF016C197D0940E0C601C6CF62EB7DE00B
:1024E000FB01449150E080E80E94450909CF9730F4
:1024F00009F4BECF983021F481E08093F10000CF41
:10250000993009F0FDCE837009F0B2CFE7E1F1E038
:1025100081E031E096E32191222371F08093E9007C
:102520003093EB00DF0111972C912093EC009093F6
:10253000ED008F5F873079F78EE78093EA00109285
:10254000EA008F8980938C01DBCE8B8D9C8D10925D
:10255000E90010927A0110927901909378018093AA
:102560007701898D811192C08E899D89913A49F4B4
:10257000813209F07DCF47E050E068E071E080E013
:10258000B3CF913209F074CF833269F48F89988D7B
:10259000B0E0A0E08093040190930501A0930601B0
:1025A000B0930701ADCE803269F48091E80082FFDC
:1025B000FCCF67E088E091E00E949C098BEF80935C
:1025C000E8009ECE823209F09BCE8F8980930F0166
:1025D000EEEFFFE7859194918B3F9C4D51F1E0E048
:1025E000F8E08091080190910901A0910A01B09151
:1025F0000B01803B9440A105B105F1F480910F01DE
:1026000080FD1AC0EE3F8AE0F80789F587E797E773
:10261000918380838091600080937B0188E19BE0BF
:102620000FB6F894A895809360000FBE9093600059
:1026300067CEEEEFFAE0D5CF80819181873797475B
:1026400009F05ECEA895809160008861809360005B
:1026500080917B0180936000EE3F2AE0F20789F0D1
:102660008091FE0A9091FF0A9183808349CE8081F8
:1026700091818737980751F29093FF0A8093FE0A61
:10268000C5CF1092FF0A1092FE0A3ACE0E9482082D
:10269000DC0112960D911C910115110509F4E8CE8B
:1026A000D801ED91FC910190F081E02DBE016B5EAF
:1026B0007F4FC8010995811123CEF801008511854E
:1026C000EBCF181619060CF41BCED2CEF1E0FF1298
:1026D000BECE66EB7DE004CF1F920F920FB60F9235
:1026E00011242F933F938F939F93AF93BF93809128
:1026F000720190917301A0917401B09175013091B4
:102700006C0123E0230F2D3758F50196A11DB11D53
:1027100020936C018093720190937301A0937401D4
:10272000B093750180916D0190916E01A0916F0140
:10273000B09170010196A11DB11D80936D01909320
:102740006E01A0936F01B0937001BF91AF919F9103
:102750008F913F912F910F900FBE0F901F90189562
:1027600026E8230F0296A11DB11DD2CF1F920F9212
:102770000FB60F9211242F933F934F935F936F9354
:102780007F938F939F93AF93BF93CF93DF93EF93F9
:10279000FF9380916901882389F0809191018111D3
:1027A0000DC080916801811109C090916701E0918D
:1027B0006501F091660180818927808380916401A1
:1027C000882309F49CC08091600190916101A091DF
:1027D0006201B0916301892B8A2B8B2B09F48FC086
:1027E0008091600190916101A0916201B0916301BB
:1027F0000197A109B1098093600190936101A093B1
:102800006201B0936301892B8A2B8B2B09F077C06F
:10281000D1E0E0915E01F0915F01AF014F5F5F4F4A
:1028200050935F0140935E012491822F807FC22FDD
:10283000CF70803821F48C2F0E94300BEACF803982
:1028400019F5E091E505F091E60509958D2780934E
:102850006801E0915E01F0915F01CF0101969093D4
:102860005F0180935E01649180919401C81788F69E
:10287000C13021F480915D018111CBCF67FDC9CFBB
:102880008C2F0E94B30AC5CF87FD4CC03296F093BF
:102890005F01E0935E01FA014491A0916A01B09159
:1028A0006B01322F242F0E946C196C507E4F8F4F7A
:1028B0009F4F28EE33E040E050E00E944A192093F9
:1028C00060013093610140936201509363018091F4
:1028D000600190916101A0916201B0916301892B27
:1028E0008A2B8B2B61F481E090E0A0E0B0E0809334
:1028F000600190936101A0936201B0936301FF9125
:10290000EF91DF91CF91BF91AF919F918F917F9187
:102910006F915F914F913F912F910F900FBE0F904C
:102920001F901895803E29F410925F0110925E016D
:1029300070CF803F09F06DCF10926401E0CF1F92FD
:102940000F920FB60F9211248F939F93AF93BF9363
:10295000EF93FF9380919301882309F454C08091F1
:102960008D0190918E01A0918F01B0919001892BE2
:102970008A2B8B2BA1F190915C01E0915A01F0918F
:102980005B0180818927808380918D0190918E01E8
:10299000A0918F01B0919001181619061A061B0616
:1029A0009CF480918D0190918E01A0918F01B09146
:1029B00090010197A109B10980938D0190938E0137
:1029C000A0938F01B0939001FF91EF91BF91AF91D0
:1029D0009F918F910F900FBE0F901F90189510929E
:1029E00091011092930180916F008D7F80936F0011
:1029F00080915C01E0915A01F0915B01908180959A
:102A000089238083E1CF809168018111DDCF90918E
:102A10005C01E0915A01F0915B0180818927F1CF3F
:102A2000EF92FF920F931F93CF93DF93F82E192FFE
:102A3000E62E042F81E0860F880F0E94170983E09D
:102A40000E941709CF2DD12FEC0EFD2EF11CCE15B3
:102A5000DF05B9F007FF13C0FE0184910E9417093A
:102A6000182F80E00E941709812321968111EFCF52
:102A7000DF91CF911F910F91FF90EF900895888182
:102A8000EDCF81E0F5CF0F931F93CF93DF938C01B0
:102A900081E090E00E94710F80FF32C08AE090E0F8
:102AA0000E94710F9FEF980F9E3F50F522E330E098
:102AB000D80150963C932E931F9728E330E052960E
:102AC0003C932E935197CBE0D0E0D801ED91FC914F
:102AD0000190F081E02D682FC8010995CE010E9478
:102AE000710F2196C131D10581F780E00E94210745
:102AF00088EE93E0DF91CF911F910F910C94D40B4E
:102B0000DF91CF911F910F91089504970C94431575
:102B1000109298051092970588EE93E0A0E0B0E03F
:102B20008093990590939A05A0939B05B0939C057B
:102B300081E291E090939605809395058FEF9FEF4A
:102B40009093A2058093A105109213089FEF909394
:102B500014081092110881E08093120880930F08E6
:102B60001092100890930D0810920E0810920B0806
:102B700010920C089FE1909309089FE090930A0837
:102B800092E19093070898E0909308081092F30759
:102B90001092F2071092F9071092FA0790E19093C1
:102BA000FB071092F8071092F7071092FD0723E336
:102BB00031E03093F1072093F00721E431E03093C6
:102BC000F5072093F407109200081092FF07109267
:102BD0000208109201088093030810920408809361
:102BE0000508109206088EE197E09093E605809321
:102BF000E5051092E9051092EA05EBEEF5E08BEEA3
:102C000097E01082118232968E179F07D1F71092AB
:102C1000EB071092EC071092ED071092EE0710925E
:102C2000E7051092E8050895789484B5826084BD24
:102C300084B5816084BD85B5826085BD85B58160C0
:102C400085BD80916E00816080936E00109281003E
:102C500080918100826080938100809181008160F9
:102C600080938100809180008160809380008091BA
:102C700091008260809391008091910081608093A7
:102C80009100809190008160809390008091C100BC
:102C900084608093C1008091C10082608093C100F4
:102CA0008091C10081608093C1008091C3008160E8
:102CB0008093C3008091C00082608093C0008091A7
:102CC000C20081608093C20080917A00846080930A
:102CD0007A0080917A00826080937A0080917A00F5
:102CE000816080937A0080917A00806880937A0076
:102CF00010928C0110927C0110927E018091D7007D
:102D000081608093D70080EA8093D80089B5806184
:102D100089BD89B5826089BD09B400FEFDCF61E03F
:102D200070E080E090E00E94FB098091D8008F7CE9
:102D300080618093D8008091E000807F8093E000E4
:102D40008091E1008E7E8093E1008DE08093E2002F
:102D5000559A209A81EC80937C0085B1806F85B96B
:102D600084B1877E84B984B1876E84B95E9A5F9896
:102D70008AB1806D8AB9769A6E9881B3806F81BB73
:102D8000899880B38D7080BB80E58CBD81E08DBD5E
:102D900085E090E00E94D40B5F9A85E090E00E946D
:102DA000D40B5E985C98EDE5FDE084918EBD00004B
:102DB0000DB407FEFDCF31960DE0EA36F007A9F716
:102DC0005C9A81E8809364008091650081608093C3
:102DD000650080E00E9421070E94D90B87FF15C083
:102DE0005C9885EA8EBD00000DB407FEFDCF5C9AAD
:102DF0002E982F982D9880916400806280936400B3
:102E000081E083BF889513BEFCCF0E94D90B82FF5F
:102E100048C02D980E94D90B84788438E1F40E9430
:102E2000D20B88EC90E00E94D40B2F9882E090E0C7
:102E30000E9402198F3F29F06FEF82E090E00E941C
:102E40000A1984EF91E00E94D40B2F9A0E94D90BAB
:102E500084788438D9F30E94D90B84718431E1F4E9
:102E60000E94D20B88EC90E00E94D40B2E9882E056
:102E700090E00E940219882329F060E082E090E04F
:102E80000E940A1984EF91E00E94D40B2E9A0E94AE
:102E9000D90B84718431D9F388EC90E00E94D40B73
:102EA000B4CF0E94D20B82E090E00E94710F882381
:102EB00009F491C00E94E60B81E090E00E94710F3E
:102EC000182F147081FF0CC011112E98C0EFDFEF86
:102ED0000E94D90B86FF82C02E9A2F9A0E94D20B95
:102EE00082E390E00E94D40B0E94D90B8111F8CFAD
:102EF00085E00E945B0B8DE00E945B0B80E180937C
:102F0000FB07809164008E7F8093640080917A003B
:102F1000806480937A0080917A0086FDFCCFC09116
:102F20007800D09179000E94D609AB01BC01CE0196
:102F3000B0E0A0E0DC01992788278C019D01040FF7
:102F4000151F261F371FC901B80120916400216099
:102F500020936400611571058105910511F00E94AF
:102F6000F9188FE690E00E94710F809371018F3FF6
:102F700069F4109271018FE690E00E940219882393
:102F800029F060E08FE690E00E940A19EE24E394B5
:102F900005E911E0C0E0D0E0DD24D3948FB7F894C8
:102FA00040917201509173016091740170917501AB
:102FB0008FBF8091FC07242F281B822FF090FD07E4
:102FC000FF20D1F12093FE071092FD07209731F3E7
:102FD0000E940000E3CF0E94E10B6ECF112329F085
:102FE000C430D10511F42E9A2F9881E00E94210758
:102FF00000E128E54DEA5CE0BE0184E190E00E943A
:103000003B0780E00E9421078FE090E00E94D40BF4
:103010002196C931D10509F05BCF112311F02F9A08
:103020002D9880E991E00E94D40B0E94D20B80EF92
:1030300097E00E94431554CF9091FB07291738F46D
:103040008F5F891718F6E3BE889513BEBFCFD09265
:10305000FD074093FC078091F7079091F8070196D0
:103060009093F8078093F7078091F9078093FA0708
:103070000E94D90B8093F9078F2DF80181118FEFF2
:10308000002481938193819381930394D1F71092CB
:10309000020810920108109200081092FF07E091B8
:1030A0007601F0E0EE0FFF1FE659F24F8591949103
:1030B000FC01099580E00E94210788CF8F929F92A2
:1030C000AF92BF92CF92DF92EF92FF92CF93DF93B6
:1030D000EC01688179818A819B8161157105810587
:1030E000910521F464E279ED8BE597E02DE133EF72
:1030F00041E050E00E94181949015A019B01AC01BE
:10310000A7EAB1E40E9437196B017C01ACEEB4EF81
:10311000A50194010E944519C60ED71EE81EF91E8E
:10312000F7FE06C081E0C81AD108E10880E8F80A75
:10313000C882D982EA82FB82C701B6019F77DF91FC
:10314000CF91FF90EF90DF90CF90BF90AF909F9086
:103150008F9008958F929F92AF92BF92CF92DF92FD
:10316000EF92FF9260911001709111018091120114
:1031700090911301611571058105910521F464E2B7
:1031800079ED8BE597E02DE133EF41E050E00E94CF
:10319000181949015A019B01AC01A7EAB1E40E9448
:1031A00037196B017C01ACEEB4EFA50194010E94CC
:1031B0004519C60ED71EE81EF91EF7FE06C081E0AF
:1031C000C81AD108E10880E8F80AC0921001D0922C
:1031D0001101E0921201F0921301C701B6019F772D
:1031E000FF90EF90DF90CF90BF90AF909F908F9027
:1031F00008956093100170931101809312019093D0
:1032000013010895F999FECF92BD81BDF89A9927CF
:1032100080B50895262FF999FECF1FBA92BD81BDC2
:1032200020BD0FB6F894FA9AF99A0FBE0196089548
:10323000052E97FB1EF400940E942F1957FD07D00E
:103240000E944A1907FC03D04EF40C942F19509594
:103250004095309521953F4F4F4F5F4F0895909582
:103260008095709561957F4F8F4F9F4F08950E9475
:103270006C19A59F900DB49F900DA49F800D911D7A
:1032800011240895B7FF0C9437190E943719821B37
:10329000930B0895A1E21A2EAA1BBB1BFD010DC0C2
:1032A000AA1FBB1FEE1FFF1FA217B307E407F507F6
:1032B00020F0A21BB30BE40BF50B661F771F881FD2
:1032C000991F1A9469F760957095809590959B0168
:1032D000AC01BD01CF010895A29FB001B39FC00111
:1032E000A39F700D811D1124911DB29F700D811D32
:1032F0001124911D0895AA1BBB1B51E107C0AA1FF1
:10330000BB1FA617B70710F0A61BB70B881F991F86
:103310005A95A9F780959095BC01CD010895EE0FBF
:10332000FF1F0590F491E02D099481E090E0F8945E
:103330000C94721CAEE0B0E0E0EAF9E10C94491C98
:103340000D891E8986E08C831A8309838FEF9FE79E
:103350009E838D83AE01475E5F4F6F89788DCE016E
:1033600001960E94BD192F813885020F131FF801A5
:1033700010822E96E4E00C94651CABE0B0E0E3EC28
:10338000F9E10C943B1C7C013B018A01FC01178292
:103390001682838181FFC8C1CE0101965C01F701CD
:1033A0009381F30193FD859193FF81913F018823E0
:1033B00009F453C1853239F493FD859193FF8191CE
:1033C0003F01853229F4B70190E00E94AD1BE7CFA1
:1033D000912C212C312CFFE1F31538F08B3211F1B7
:1033E00090F4803209F1833229F137FC3CC020EDA2
:1033F000280F2A3050F536FE20C08AE0989E200D16
:103400001124922E06C08D3291F0803371F76894AA
:1034100030F8F30193FD859193FF81913F01811174
:10342000DACF21C0689431F8689432F8F2CF68940A
:1034300033F8EFCF689434F8ECCFEAE02E9E200DFD
:103440001124222E689435F8E4CF8E3229F436FC0C
:1034500004C1689436F8DDCF8C3619F4689437F8D7
:10346000D8CF8836B1F2982F9F7D95549330E0F0F5
:103470008336A1F18337C1F1833509F063C0280198
:10348000F2E04F0E511CF801C080D180692D70E030
:1034900036FC02C06FEF7FEFC6010E94971B4C0104
:1034A000689437F882010AC00C5F1F4FFFE3F9836D
:1034B00088248394912C6501E89437F833FE2DC05D
:1034C000522C8114910471F5552009F468CFB7018D
:1034D00080E290E00E94AD1B5A94F6CFF801808103
:1034E00089830E5F1F4FE4CF2801F2E04F0E511C7D
:1034F000F801C080D180692D70E036FC02C06FEF0A
:103500007FEFC6010E94A21B4C018201D5CFB701FB
:1035100080E290E00E94AD1B2A942814190409F05F
:10352000B0F7CECFF60137FC859137FE81916F0160
:10353000B70190E00E94AD1B51105A94F1E08F1A30
:103540009108BFCF843619F0893609F077C0F801A9
:1035500037FE6BC060817181828193810C5F1F4F48
:10356000F32DFF763F2E97FF09C0909580957095BB
:1035700061957F4F8F4F9F4F689437F82AE030E076
:10358000A5010E94DD1BC82ECA188C2C432C36FEC8
:103590000CC0E89440F8C91440F434FE05C032FC75
:1035A00003C0F32DFE7E4F2E892C44FE95C0FE01F4
:1035B000EC0DF11D8081803309F087C0242D297E18
:1035C000422E842D8870582E43FC95C040FE8FC03B
:1035D0009C2C821418F42C0C922C981844FE91C048
:1035E000B70180E390E00E94AD1B42FE09C088E76E
:1035F00090E041FE02C088E590E0B7010E94AD1B5B
:10360000C91408F48AC0CA94D12C9FEFC91AD90AE8
:10361000CA0CDB1CF60182916F01B70190E00E9499
:10362000AD1BAC14BD04B1F74FCF60817181072E83
:10363000000C880B990B0E5F1F4F92CFD32CE89490
:10364000D4F82AE030E0853739F1232D297FD22EB6
:103650008F3601F148F48835A9F0F701868197810A
:103660002B96E2E10C94571C803749F08837A9F774
:10367000D4FE02C06894D2F820E130E00DC0689416
:10368000D4F8F6CF34FE03C0822F8660D82E20E116
:1036900032E002C028E030E0F801D7FE0FC06081C0
:1036A0007181828193810C5F1F4FA5010E94DD1BF8
:1036B000C82ECA183D2CE89437F867CF6081718115
:1036C00090E080E00E5F1F4FF0CF42FC02C0839479
:1036D00078CF8394839475CF842D867809F471CF45
:1036E000F6CFB70180E290E00E94AD1B8394821474
:1036F000C0F3512C73CF522C5818821408F46ECF9B
:10370000F8CF842D867809F47BCF8BE241FE80E2EE
:1037100047FC8DE2B70190E071CFB70180E390E004
:103720000E94AD1B9A946CCF8FEF9FEF99CFFC0155
:103730000590615070400110D8F7809590958E0FDC
:103740009F1F0895FC016150704001900110D8F74F
:10375000809590958E0F9F1F08950F931F93CF9381
:10376000DF93182F092FEB018B8181FD09C01FEF1B
:103770000FEF812F902FDF91CF911F910F9108951F
:1037800082FF14C02E813F818C819D8128173907CB
:103790003CF4E881F981CF010196998388831083F5
:1037A0008E819F8101969F838E83E3CFE885F98583
:1037B000812F0995892BA1F3DACFFA01AA272830A6
:1037C00051F1203181F1E8946F936E7F6E5F7F4FEE
:1037D0008F4F9F4FAF4FB1E03ED0B4E03CD0670F6A
:1037E000781F891F9A1FA11D680F791F8A1F911DBD
:1037F000A11D6A0F711D811D911DA11D20D009F40D
:1038000068943F912AE0269F11243019305D31934E
:10381000DEF6CF010895462F4770405D4193B3E037
:103820000FD0C9F7F6CF462F4F70405D4A3318F0DE
:10383000495D31FD4052419302D0A9F7EACFB4E08F
:10384000A6959795879577956795BA95C9F7009747
:103850006105710508959B01AC010A2E06945795E8
:10386000479537952795BA95C9F7620F731F841F3F
:10387000951FA01D08952F923F924F925F926F92D5
:103880007F928F929F92AF92BF92CF92DF92EF92F0
:10389000FF920F931F93CF93DF93CDB7DEB7CA1B71
:1038A000DB0B0FB6F894DEBF0FBECDBF09942A889C
:1038B000398848885F846E847D848C849B84AA8444
:1038C000B984C884DF80EE80FD800C811B81AA81D1
:1038D000B981CE0FD11D0FB6F894DEBF0FBECDBF9C
:0838E000ED010895F894FFCFFB
:1038E8000FB00401FFFFFFFF00E10000000000002F
:1038F80001000000030100C18081000000000000F9
:103908000096082E0AB708AC08FD08BB08D90800BD
:10391800000000040CA909090D080D4315FCFF005F
:10392800008515486967682053636F726500253004
:0439380033750000E3
:00000001FF
